:200000000C9474040C949C040C949C040C9499190C9499190C9499190C949C040C949C04D2
:200020000C949C040C949C040C949C040C949C040C949C040C949C040C94301B0C949C0415
:200040000C94F7180C949C040C9467190C9441190C949C040C949C040C949C040C949C0497
:200060000C94111A0C949C040D526573657420416C6C2053657474696E6720746F20446562
:200080006661756C7400253033640025642E002D00253032753A253032753A25303275000C
:2000A00053494D5F4552524F52004E4F5F53494D002B4350494E3A4E4F2053494D002B43E6
:2000C00050494E3A5245414459004E4F5F53494D5F414E53574552005472793A00436F6EDD
:2000E0006E6563742E2E2E2000436F6E6E656374204F4B0053494D204F4B004D6F64656D93
:20010000204F4B004D6F64656D204572726F7200556E6B6E6F776E005265676973746572D4
:2001200065642C20726F616D696E672E20525353493D00526567697374726174696F6E20D6
:2001400064656E69656400536561726368696E672061206E6577206F70657261746F72002B
:20016000526567697374657265642C20686F6D65206E6574776F726B2E20525353493D0086
:200180004E6F74207265676973746572656400205374617475733A20002054696D656F754F
:2001A00074000D0A4D6F64656D205265626F6F740054696D6520576173205365740020549D
:2001C000696D656F7574000D0A004154000D0A0D0A534D53204C656E6774683D000D0A5495
:2001E00065787420534D533A00253032640025642E002B002D00204572726F722025640094
:200200000A534D5320232564000A5665723A00457863656C6C656E7400476F6F64004F4BDD
:2002200000426164000A5369673D25642F000A4261743D25642E2530326456282564252544
:2002400029004B67000A43617574696F6E212057656967687420000A31386820000A3135B2
:200260006820000A31326820000A396820000A366820000A546D696E20252B6443206174C0
:200280002025643A25303264000A48756D20256425252C205420252B6443000A4761696E29
:2002A0003A20000A54696D652025643A25303264006B672E0025733D004C4F5720424154BF
:2002C00054455259210A0041542B434D47533D22004442473A204572726F723A2000444255
:2002E000473A2053656E64204F4B0054696D6520536574204572726F7221004641494C00D7
:200300004F4B0053656E64696E6720534D532E2E2E000D4552524F5221204E756D6265729D
:20032000204E6F7420536574004164723A253032582052414D3A25303258204545503A257E
:20034000303258007D002C2256223A0025642E25642C225248223A25642C22574549474897
:2003600054223A007B2254494D45223A22253032643A25303264222C2254223A005765692E
:20038000676874206C6F7373210D0A004F4B004552524F5221000D0A5A65726F3D256C64D3
:2003A00020314B673D256C642044656C74613D256C6420002053617665642E002053617621
:2003C00065642E004E756D62657220436C6561726564004552524F5221204D617820313477
:2003E000206469676974732E000D0A456E746572204E756D6265723A20000D0A4375727280
:20040000656E743A20002053617665642E000D0A494420436C6561726564004552524F52FC
:2004200021204D617820352063686172732E000D0A456E746572206E65772049443A20001B
:2004400043757272656E743A20000D0A4552524F522120456E7465722048483A4D4D3A536E
:20046000530020456E7465722054696D653A2048483A4D4D3A535320000D0A4E6F2049322F
:2004800043206465766963657320666F756E64000D0A556E6B6E6F77206572726F72206176
:2004A000742061646472657373203078000D0A4932432064657669636520666F756E642039
:2004C00061742061646472657373203078000D0A5363616E6E696E672049326320627573C9
:2004E0002E2E2E00454E44004144433D30782530386C5820256C642C205765696768743D97
:2005000000546573742041444300546573742047534D004F4B2E2052483D25642563205468
:200520003D25642E256443004641494C005465737420534854333120004F4B2E2052483DED
:200540002564256320543D25642E256443004641494C0054657374205349373032302000F5
:2005600054657374205248202620542073656E736F7200566261743D004641494C2E004F4A
:200580004B2E20005465737420494E4132313920004F4B2E2054696D653A20004641494C81
:2005A0000050434638353633200044533332333120000D0A546573742052544320002045A7
:2005C00052524F522100204552524F52210045687465722030206F72203120000D0A417563
:2005E000746F636F7272656374696F6E204E6F772069732000204552524F522120456E745E
:200600006572202D3130302E2E2B31303000204552524F5221204D617820332064696769EC
:20062000747300456E746572204E65773A20000D0A43757272656E743A2000204552524F85
:20064000522120456E74657220312E2E323300204552524F5221204D617820322064696740
:20066000697473000D0A4D454E553A20200D0A312D5253534920200D0A322D494D454920B4
:20068000200D0A332D54696D6520200D0A392D434D4420200D0A302D4578697420200D0AFE
:2006A000506C656173652073656C65637420302E2E3920200D0A3E000D0A457869740061B4
:2006C0006E737765723A000D4154000D4552524F5221000D0A4E65772054696D653A20000D
:2006E0004552524F5221000D0A494D45493A000D0A525353493D004D454E553A20200D0A7F
:20070000312D4368616E6765204E756D62657220466F7220534D5320200D0A322D53657470
:2007200020494420200D0A332D5365742054696D6520200D0A342D54657374204861726483
:200740007761726520200D0A352D54696D65204175746F636F7272656374696F6E20200D64
:200760000A362D546865726D6F20636F6D70656E736174696F6E20200D0A372D5072696E19
:200780007420534D5320200D0A382D53657420486F757220466F7220534D5320200D0A3942
:2007A0002D52657365742053657474696E677320200D0A612D47534D5F746573742829203C
:2007C00042616C616E732053494D20200D0A302D4578697420200D0A506C6561736520732D
:2007E000656C65637420302E2E3920200D0A3E004279652E000D0A47534D0054696D656F28
:2008000075742E2E2E000D0A47534D004B616C696272005465737420534D5300562054692C
:200820006D6520253032753A253032753A25303275000D0A48773A2573205665723A257397
:200840002049443A25732050686F6E65202573205662617420004C4F5720564F4C5441479B
:200860004521212100204F4B455900204552524F52210045455032204352430045455020AF
:20088000435243204552524F520000000000240027002A0000000008000201000003040748
:2008A00000000000000000000000000023002600290000000000250028002B00040404043E
:2008C0000404040402020202020203030303030301020408102040800102040810200102A9
:2008E00004081020A61BA92711241FBECFEFD8E0DEBFCDBF26E0A2E7B2E001C01D92AB3C02
:20090000B207E1F712E0A0E0B1E0ECEFFCE502C005900D92A237B107D9F714E0C3E7D4E0DE
:2009200004C02197FE010E941C2EC237D107C9F70E94C71C0C94712E0C94000091E09093C7
:20094000D1058093D0051092CF051092CE050895E7E6F5E080E037E095E0ED3CF90771F039
:200960009191982728E0892F880F97FF03C0990F892F83272150982FB1F7EECF0895909181
:200980006605809165052FEF3FEF981748F4E92FF0E0EB5BFA4F208130E09F5F9093660586
:2009A000C901089590916605809165052FEF3FEF981748F4E92FF0E0EB5BFA4F208130E06A
:2009C0009F5F90936605C901089508950895833081F028F4813099F08230A9F008958730D1
:2009E000A9F08830C9F08430B1F4809180008F7D03C0809180008F7780938000089584B534
:200A00008F7784BD089584B58F7DFBCF8091B0008F778093B00008958091B0008F7DF9CF27
:200A2000CF93DF93282F30E0F901EC56F74F8491F901E053F74FD491F901E454F74FC4913F
:200A4000CC23A1F081110E94E704EC2FF0E0EE0FFF1FE855F74FA591B491EC91ED2381E005
:200A600090E009F480E0DF91CF91089580E090E0FACF1F93CF93DF93282F30E0F901EC567A
:200A8000F74F8491F901E053F74FD491F901E454F74FC491CC23A9F0162F81110E94E7046A
:200AA000EC2FF0E0EE0FFF1FEE54F74FA591B4918FB7F894EC91111108C0D095DE23DC931F
:200AC0008FBFDF91CF911F910895DE2BF8CFCF93DF9390E0FC01E053F74F24918454974FAE
:200AE000FC0184918823C9F090E0880F991FFC01E657F74FA591B491FC01EE54F74FC591EB
:200B0000D49161110DC09FB7F8948C91209582238C938881282328839FBFDF91CF910895EF
:200B2000623051F49FB7F8943C91822F809583238C93E8812E2BEFCF8FB7F894EC912E2B7C
:200B40002C938FBFEACF3FB7F89480913A0390913B03A0913C03B0913D0326B5A89B05C0CC
:200B60002F3F19F00196A11DB11D3FBFBA2FA92F982F8827BC01CD01620F711D811D911DD0
:200B800043E0660F771F881F991F4A95D1F708958F929F92AF92BF92CF92DF92EF92FF92BC
:200BA0006B017C010E94A3054B015C01C114D104E104F104B9F00E94A305681979098A094C
:200BC0009B09683E73408105910580F321E0C21AD108E108F10888EE880E83E0981EA11C0F
:200BE000B11CE4CFFF90EF90DF90CF90BF90AF909F908F9008952FB7F89460913603709183
:200C0000370380913803909139032FBF0895EF92FF920F931F93CF93DF938C017B01D0E073
:200C2000C0E0F701EC0FFD1F6491662361F0D801ED91FC910190F081E02DC8010995892B28
:200C400011F02196EECFCE01DF91CF911F910F91FF90EF900895AF92BF92CF92DF92EF92A0
:200C6000FF920F931F93CF93DF936C017B018B01040F151FEB015E01AE18BF08C017D10778
:200C800059F06991D601ED91FC910190F081E02DC6010995892B79F7C501DF91CF911F9151
:200CA0000F91FF90EF90DF90CF90BF90AF900895FC01538D448D252F30E0842F90E0821BBB
:200CC000930B541710F0CF96089501970895FC01918D828D981761F0A28DAE0FBF2FB11D02
:200CE0005D968C91928D9F5F9F73928F90E008958FEF9FEF0895FC01918D828D981731F0E4
:200D0000828DE80FF11D858D90E008958FEF9FEF0895FC01918D228D892F90E0805C9F4F3B
:200D2000821B91098F739927089582ED95E00E94890621E0892B09F420E0822F089580E0A8
:200D400090E0892B29F00E94950681110C9400000895FC01A48DA80FB92FB11DA35ABF4FA4
:200D60002C91848D90E001968F739927848FA689B7892C93A089B1898C91837080648C9325
:200D8000938D848D981306C00288F389E02D80818F7D80830895EF92FF920F931F93CF9329
:200DA000DF93EC0181E0888F9B8D8C8D98131AC0E889F989808185FF15C09FB7F894EE89F0
:200DC000FF896083E889F98980818370806480839FBF81E090E0DF91CF911F910F91FF90FC
:200DE000EF900895F62E0B8D10E00F5F1F4F0F731127E02E8C8D8E110CC00FB607FCFACF72
:200E0000E889F989808185FFF5CFCE010E94A906F1CFEB8DEC0FFD2FF11DE35AFF4FF0820C
:200E20009FB7F8940B8FEA89FB8980818062CFCFCF93DF93EC01888D8823B9F0AA89BB891D
:200E4000E889F9898C9185FD03C0808186FD0DC00FB607FCF7CF8C9185FFF2CF808185FF77
:200E6000EDCFCE010E94A906E9CFDF91CF91089520911803309119032817390771F49091C3
:200E8000160380911703981741F0E0911603F0E0EA52FD4F808190E008958FEF9FEF089595
:200EA0000895EF92FF920F931F93CF93DF93DC015C96ED90FC905D97E114F10479F481E0D7
:200EC00090E013969C938E93129790E080E0DF91CF911F910F91FF90EF9008955196ED9100
:200EE000FC91529750968C915097982F90950FB75E962C915E97122F127021FD6095F894D8
:200F00002081112319F1282B2083E7012197F1F728E0462F50E0308160FF1AC0382B3083C7
:200F2000E7012197F1F7BA0175956795215089F7112381F08081892380830FBF5C968D9144
:200F40009C910197F1F781E090E0C1CF2923DCCF3923E5CF9081892BEFCF682F8AEA96E078
:200F60000C94510720911803309119032817390761F4809117032091160390E0805C9F4FCD
:200F8000821B91098F739927089590E080E00895209118033091190328173907B9F4909158
:200FA000160380911703981789F0E0911603F0E0EA52FD4F80812091160330E02F5F3F4FEC
:200FC0002F7333272093160390E008958FEF9FEF08952091B302260F3327331F21323105C3
:200FE000ECF420913F05FC0190E080E0243069F082E00895A091B3022191AC014D565D4F0F
:20100000A40FB52FB11D2C930196861798F38091B302680F6093B30280E0089581E008950D
:2010200010923F0581E080933E051092390561E082E10E94390561E083E10E943905E9EB56
:20104000F0E080818E7F808380818D7F808380E28093B80085E48093BC0008951092660590
:20106000109265051092CF051092CE050E94100885EE94E0909318058093170586EE94E081
:2010800090931605809315050895CF93DF9391E0909392028823B9F0C091B800D091BA00D4
:2010A0008091BC008A7B8093BC0060E082E10E94390560E083E10E9439050E941008D0936B
:2010C000BA00C093B800DF91CF910895CF92DF92EF92FF920F931F93CF93DF93D82FC62FD6
:2010E000613208F098C00E94A3056B017C0180913F0581116BC081E080933F0580933E05BA
:201100009FEF90933D0510923C059C0F90933B0580933A0580913A05DD0FD82BD0933A05B8
:2011200080913905813009F078C0109239050E94A3056B017C0180913A058093BB0080913C
:20114000410590914205A0914305B0914405892B8A2B8B2BA1F00E94A3050091410510916C
:20116000420520914305309144056C197D098E099F09061717072807390708F448C080911C
:20118000BC0083FDD8CF85EC8093BC000E94A3056B017C0180913F05813009F440C08091E5
:2011A0003C058C1710F4C0913C05E9E1F5E0A5E4B5E080E08C1355C08C2FDF91CF911F91A9
:2011C0000F91FF90EF90DF90CF9008958091410590914205A0914305B0914405892B8A2BCB
:2011E0008B2B09F484CF0E94A305009141051091420520914305309144056C197D098E093B
:201200009F09061717072807390708F070CF809140050E944508C0E0CFCF85EEB5CF8091BA
:20122000410590914205A0914305B0914405892B8A2B8B2B09F4AECF0E94A3050091410543
:201240001091420520914305309144056C197D098E099F09061717072807390708F09ACF4E
:20126000D6CF91919D938F5FA5CFE091660580916505E81730F4F0E0EB5BFA4F808190E0CB
:2012800008958FEF9FEF08958091650590916605891B990B0895CF92DF92EF92FF920F9396
:2012A0001F93CF93DF937C01CB018A012091D105222389F0EB016B01C40ED51ECC15DD05AF
:2012C00069F06991D701ED91FC910190F081E02DC7010995F3CF642F0E94E907C801DF9143
:2012E000CF911F910F91FF90EF90DF90CF900895CF93DF931F92CDB7DEB769832091D105B4
:201300002223F9F02091CE05203258F021E030E0FC013383228390E080E00F90DF91CF91D9
:2013200008958091CF05E82FF0E0EE58FD4F998190838F5F8093CF058093CE0581E090E0F9
:20134000ECCF61E0CE0101960E94E907F7CF682F82E896E00C947809CF92DF92EF92FF9257
:201360000F931F93CF93DF93D091CE0581E0D13208F09CC0C091D0050E94A3056B017C0100
:2013800080913F0581116CC082E080933F0581E080933E058FEF80933D0510923C05D093B1
:2013A0003B05A2E7B2E0E9E1F5E080E0D8138DC010923A0580913A05CC0FC82BC0933A050A
:2013C00080913905813009F084C0109239050E94A3056B017C0180913A058093BB0080918E
:2013E000410590914205A0914305B0914405892B8A2B8B2BA1F00E94A305009141051091CA
:20140000420520914305309144056C197D098E099F09061717072807390708F442C080917F
:20142000BC0083FDD8CF85EC8093BC000E94A3056B017C0180913F05823009F44CC0809135
:201440003D058F3F09F469C080913D05803209F466C080913D05803309F463C084E026C0BE
:201460008091410590914205A0914305B0914405892B8A2B8B2B09F483CF0E94A305009161
:2014800041051091420520914305309144056C197D098E099F09061717072807390708F02F
:2014A0006FCF809140050E94450885E01092CF051092CE051092D105DF91CF911F910F91C1
:2014C000FF90EF90DF90CF9008959D9191938F5F6DCF85EEA9CF8091410590914205A0913C
:2014E0004305B0914405892B8A2B8B2B09F4A2CF0E94A3050091410510914205209143058B
:20150000309144056C197D098E099F09061717072807390708F08ECFC4CF80E0C7CF82E08D
:20152000C5CF83E0C3CFCF93DF93EC0180E40E949E04688182E896E00E94780982E896E0ED
:20154000DF91CF910C94AC090E942E0880E40E949E0482E896E00E94AC09811103C081E0F9
:2015600080933E0380913E0308950F931F93CF93DF93EC01162F072F8A810E949E048A8D32
:201580009B8DDC01ED91FC910190F081E02D602F09958A8D9B8DDC01ED91FC910190F081D6
:2015A000E02D612F09958A8D9B8D0E94AC09882341F081E8898F80E0DF91CF911F910F917D
:2015C000089581E0F9CFCF93DF93EC018A810E949E048A8D9B8D0E94AC09282F30E0211502
:2015E000310511F084E8898F81E0232B09F080E0DF91CF91089590E080E008951F93CF933A
:20160000DF93162FEA010E949E04612F82E896E00E9478096D2F82E896E00E9478096C2F17
:2016200082E896E00E94780982E896E0DF91CF911F910C94AC09CF93C0E08AEA96E00E9464
:20164000B20718161906CCF78AEA96E00E94C807EC2FF0E0EF58FC4F8D3011F08A3019F464
:201660001082CF91089580830E94AD07CF5FE5CF41983099FECF28E160E070E0CB01419AF1
:20168000660F771F881F991F4198309961602150B1F7419A4198419A419887FF08959F6FCB
:2016A0000895CF92DF92EF92FF920F931F93CF93DF93CDB7DEB7A8970FB6F894DEBF0FBE6E
:2016C000CDBF6CE271E080E090E00E94C8058E010F5F1F4F6E0189E2C80ED11C78010E947D
:2016E000380BD7016D937D938D939D937D01AC15BD05A9F789819A81AB81BC8198012C5D1E
:201700003F4FF801448155816681778184179507A607B7070CF048C04083518362837383B0
:2017200034962E173F0771F789819A81AB81BC819801205E3F4FF801448155816681778146
:20174000481759076A077B07B4F5408351836283738334962E173F0779F760E070E0CB019B
:20176000D801CD90DD90ED90FD908D016C0D7D1D8E1D9F1DAE17BF0799F728E030E040E061
:2017800050E00E94E32DCA01B901A8960FB6F894DEBF0FBECDBFDF91CF911F910F91FF90AE
:2017A000EF90DF90CF90089580839183A283B383DB01CA01B5CF80839183A283B383DB0154
:2017C000CA01C7CF0F931F93882309F45FC00E94510B60931A0370931B0380931C03909309
:2017E0001D0320911A0330911B0340911C0350911D0380918F0590919005A0919105B091C8
:201800009205281B390B4A0B5B0BA8EEB3E00E94112E2091930530919405409195055091F6
:2018200096050E94E32D89019A0100931A0310931B0320931C0330931D0380912A039091B1
:201840002B034091830550918405841B950B05966AE070E00E94AD2D409182054603C00145
:20186000479F900D1124092E000CAA0BBB0B800F911FA21FB31F8093260390932703A09364
:201880002803B09329031F910F9108950E94380BA0CF80912D03883148F480912E038C3336
:2018A00028F481E090912F039C3308F080E00895EF92FF920F931F93CF93DF939091340302
:2018C000907F9093340390913303992331F111E0160F08E0873609F407E0C1E0D0E0812FCA
:2018E0008150990B7C0161E0802F0E9439056CEB72E080E090E00E94C80560E0802F0E94AD
:201900003905EC16FD0631F06CE271E080E090E00E94C8052196C11730F3DF91CF911F9153
:201920000F91FF90EF9008950F931F93CF93DF93D82F162F042F81E50E949E0482E090E039
:201940000E94A709CAE0802F6C2F0E948D2D8295807F682F690F82E896E00E947809812F0D
:201960006C2F0E948D2D8295807F682F690F82E896E00E9478098D2F6C2F0E948D2D82957E
:20198000807F682F690F82E896E00E94780982E896E0DF91CF911F910F910C94AC0981E57B
:2019A0000E949E0490E080E00E94A70990E080E00E94A70981E090E00E94A70990E080E0AC
:2019C0000E94A70990E080E00E94A70990E080E00E94A70981E090E00E94A70981E090E07D
:2019E0000E94A70981E890E00E94A70963E282E896E00E94780980E890E00E94A70980E890
:201A000090E00E94A70980E890E00E94A70980E890E00E94A70990E080E00E94A70982E824
:201A200090E00E94A7098CE390E00E94A70982E896E00C94AC090F931F93CF93DF93D82F4F
:201A4000162F042F88E60E949E0490E080E00E94A709CAE0802F6C2F0E948D2D8295807FD4
:201A6000682F690F82E896E00E947809812F6C2F0E948D2D8295807F682F690F82E896E0A8
:201A80000E9478098D2F6C2F0E948D2D8295807F682F690F82E896E00E94780982E896E068
:201AA000DF91CF911F910F910C94AC0988E60E949E0490E080E00E94A70990E080E00E946B
:201AC000A70990E080E00E94A70990E080E00E94A70990E080E00E94A70990E080E00E947E
:201AE000A70990E080E00E94A70983E290E00E94A70990E080E00E94A70980E890E00E9451
:201B0000A70980E890E00E94A70980E890E00E94A70990E080E00E94A70990E080E00E942D
:201B2000A70990E080E00E94A70985E490E00E94A70990E080E00E94A70982E896E00C9406
:201B4000AC09CF92DF92EF92FF920F931F93CF93DF937C01162F042FC52E613208F060E20F
:201B6000D70112968C910E9466081092660580936505181313C0D02EC02FDC2D8C2F8D19D9
:201B80008117C8F4F701828D938DDC01ED91FC910284F385E02D09958993F0CF82E8F701FC
:201BA000818F80E0DF91CF911F910F91FF90EF90DF90CF90089581E0F5CF0E946608109245
:201BC0006605809365050895CF93DF93EC0162E070E080E490E00E94DD0D0E94D20488834A
:201BE0000E94D204898381E090E0DF91CF910895CF93DF9300D000D0CDB7DEB783EE8C8316
:201C0000CE0104960E94930ACE0101960E94E40D29813A81322723273227A4EAB4E40E94FA
:201C2000022E8D5492416AE070E00E94AD2D70932B0360932A0385EE8B83CE0103960E94CE
:201C4000930ACE0101960E94E40D29813A81322723273227ADE7B0E00E94022E0697843640
:201C600048F480932C030F900F900F900F90DF91CF91089583E6F5CF88E60E949E046FE0CF
:201C800082E896E00E94780982E896E00E94AC0961E070E088E690E00E94DD0D0E94D20497
:201CA00008951F93CF93DF93D0911E03DD2309F43FC088E60E949E0490E080E00E94A709AF
:201CC00082E896E00E94AC0963E070E088E690E00E94DD0D0E94D204982F92959F70CAE0B1
:201CE0008F709C9F800D112480932F030E94D204982F92959F708F709C9F800D112480931F
:201D00002E030E94D204982F929593708F709C9F800D112480932D030E943C0E87FF03C0B5
:201D20000E94560DD0E08D2FDF91CF911F91089581E50E949E0482E090E00E94A70982E8DD
:201D400096E00E94AC0963E070E081E590E00E94DD0D0E94D204C82F80932F030E94D20495
:201D6000982F929597701AE08F70919F800D112480932E030E94D204982F929593708F70D7
:201D8000919F800D112480932D03C7FF0DC00E94CF0C8C2F82958F70CF709AE0899FC00D7F
:201DA0001124C0932F03BFCFD1E0F3CF1F93CF93DF93EC01162F88810E949E04612F82E869
:201DC00096E00E94780982E896E00E94AC0962E088810E94660810926605809365050E94AC
:201DE000D204C82F0E94D20420E0822B9C2BDF91CF911F910895809132038823F9F062E0F1
:201E000087E796E00E94D60E23E0969587952A95E1F7BC0190E080E00E94462C2FE632E1AE
:201E200043E85BE30E94D42C20E030E04AE754E40E94D42C0E94102CCB0108958EE48093B0
:201E40007C006BE470E080E090E00E94C80580917A00806480937A0080917A0086FDFCCF53
:201E60008091780020917900322F282F032E000C440B550B64EB7BE281E190E00E94E32DDB
:201E8000C901845691090895CF93DF9300D000D000D0CDB7DEB766E174E28EE896E00E94DF
:201EA000B50A882381F164E070E080E090E00E94C805AE014F5F5F4F66E08EE896E00E9494
:201EC000A10D882301F1898190E0982F88272A81820F911D9093A6068093A5068C8190E0D3
:201EE000982F88272D81820F911D9093A4068093A3060E94FB05609392067093930680931A
:201F00009406909395066091A5067091A60690E080E00E94462C2FEA30E04FE25BE30E9402
:201F2000D42C20E030E044E352E40E94312B0E94102C2AE0269FA001279F500D11245093AD
:201F40002B0340932A036091A3067091A40690E080E00E94462C28EC30E048EC5AE30E94F3
:201F6000D42C0E94102C60932C0326960FB6F894DEBF0FBECDBFDF91CF9108950F931F939D
:201F8000CF93DF93C7E6D5E08C0107561540C8018C0F9D1F0E94E42A899385E0CE3CD80792
:201FA000B1F787E695E0DF91CF911F910F910895AF92BF92DF92EF92FF920F931F93CF930F
:201FC000DF935C0107E615E0D0E0C0E0F801D1908F017501EC0EFD1EC7010E94E42AD81625
:201FE00021F06D2DC7010E94EC2A2196C736D10569F787E695E0DF91CF911F910F91FF903B
:20200000EF90DF90BF90AF900895809130039091310320917F052223E1F18E3E9C4014F412
:2020200010927F05109234032D980E94A8048093CD0590E080E00E94D80F87E690E00E94D1
:20204000D80F80911E03882359F188E60E949E048FE090E00E94A70990E080E00E94A7096D
:2020600082E896E00E94AC09D0E0C0E05B9880911E03882331F00E943C0E80FF02C0FE01BC
:20208000099582E00E9410050097A1F4FC010995EDCF88349D4034F281E080937F05C2CFBE
:2020A00081E50E949E0481E090E00E94A70981E090E0D4CF5F9866EB73E080E090E00E94D2
:2020C000C8055F9A62E370E080E090E00E94C805CDCFFB0101900020E9F73197AF01461B64
:2020E000570BDC01ED91FC910280F381E02D09948F929F92AF92BF920F931F93CF93DF93EA
:20210000CDB7DEB7A1970FB6F894DEBF0FBECDBF19A2423008F44AE08E010F5D1F4F842EB9
:20212000912CB12CA12CA50194010E94C12DE62FB901CA01EA3004F5E05DD801EE938D019B
:20214000232B242B252B79F790E080E0109729F0BD018AEA96E00E946910A1960FB6F89447
:20216000DEBF0FBECDBFDF91CF911F910F91BF90AF909F908F900895E95CDFCF68E671E03E
:202180000C946910CF93DF93BC018AEA96E00E940706EC018AEA96E00E94BE108C0F9D1F5E
:2021A000DF91CF910895CF92DF92EF92FF92CF93DF936C01990FEE08FF08F7FE1DC08DE2A7
:2021C0000E94AD07EC0166277727CB016C197D098E099F094AE00E947810C80FD91F8AEAE4
:2021E00096E00E94BE108C0F9D1FDF91CF91FF90EF90DF90CF9008954AE0C701B6010E940E
:202200007810EC01ECCF0F931F93CF93DF93EC010E9469108C01CE010E94BE10800F911F53
:20222000DF91CF911F910F9108950C946910EDE2F3E082811F928F9381811F928F9380817A
:202240001F928F9381E990E09F938F9381E793E09F938F930E9443288DB79EB70A960FB643
:20226000F8949EBF0FBE8DBF61E773E08AEA96E00C941511CF93DF938DED91E00E94C210DE
:20228000C1E7D3E08991882359F00E94AD07FE01319780818A30B1F78DE00E94AD07F2CFD1
:2022A0006DEC71E08AEA96E00E94070661E773E0FB0101900020E9F7BF016257734090E017
:2022C00080E04AE00E9478108AEA96E0DF91CF910C94BE10CF92DF92EF92FF92CF93DF936A
:2022E000C0909B05D0909C05E0909D05F0909E059B01AC012C193D094E095F0969017A0140
:202300003BEFC3163FEFD306E306F3060CF064C064EF71E081E793E00E94E327F094E0948E
:20232000D094C094C11CD11CE11CF11C55E0C50ED11CE11CF11CC1E7D3E009900020E9F71E
:20234000C257D340C701B60128EE33E040E050E00E94E32D5F934F933F932F938EEE91E052
:202360009F938F93CE018F589C4F9F938F930E944328C80FD91FC701B6012AE030E040E07F
:2023800050E00E94E32DCA01B90124E630E040E050E00E94E32D9F938F937F936F9389EEDB
:2023A00091E09F938F93CE018F589C4F9F938F930E9443282DB73EB7205F3F4F0FB6F8941F
:2023C0003EBF0FBE2DBF8C0F9D1FDF91CF91FF90EF90DF90CF90089545E0C416D104E104EE
:2023E000F1040CF4A3CF62EF71E081E793E00E94E3279CCFCF92DF92EF92FF92CF93DF932A
:202400006B017C01F7FE0EC06FE870E081E793E00E94E327F094E094D094C094C11CD11C68
:20242000E11CF11CC1E7D3E009900020E9F7C257D340C701B60128EE33E040E050E00E94D8
:20244000E32DF62EE72ED82EC92E5F934F933F932F938BE890E09F938F93CE0199278F5821
:202460009C4F9F938F930E944328C80FCF92DF92EF92FF9286E890E09F938F938C2F90E0F8
:202480008F589C4F9F938F930E9443282DB73EB7205F3F4F0FB6F8943EBF0FBE2DBF8C0F81
:2024A000DF91CF91FF90EF90DF90CF90089585ED8093BC008091410590914205A09143055A
:2024C000B09144050796A11DB11D23E0B695A795979587952A95D1F72091BC0024FD03C09F
:2024E00010923F05089540914105509142056091430570914405452B462B472B69F3009751
:20250000A105B10541F025E12A95F1F700000197A109B109E1CF809140050C944508CF9231
:20252000DF92EF92FF92CF93DF936C01109225040E94FB050D2C000CEE08FF08C60ED71E5F
:20254000E81EF91EC0E00E94FB056C157D058E059F05E8F582ED95E00E94890618161906A3
:2025600074F582ED95E00E946706D1E0DC0FEC2FCC0FFF0BEB5DFB4F80838D2F0D2E000CCB
:20258000990BFC01EB5DFB4F1082803F9105A0F4D6309CF064E671E085E294E00E94572E5E
:2025A000892BE9F46BE671E085E294E00E94572E892B19F08EEF0CC0D0E0CD2FC4CF6AE057
:2025C00070E080E090E00E94C805DC2FF6CF8FEFDF91CF91FF90EF90DF90CF90089580E075
:2025E000F7CFCF92DF92EF92FF92CF93DF93EC016A0182ED95E00E948906181619062CF483
:2026000082ED95E00E946706F4CF6AEC71E082ED95E00E940706BE0182ED95E00E9415115F
:2026200067EC71E082ED95E00E940706C601DF91CF91FF90EF90DF90CF900C948F12EF922E
:20264000FF920F931F93CF93DF9300D0CDB7DEB740ED57E060E070E085E791E00E94F11262
:20266000082F880F110B0F3F100761F165E274E08FE393E00E94412E83E0E82EF12C8FE320
:2026800093E0AE014F5F5F4F69E671E00E941428BC01892B31F081E0E81AF10890E080E080
:2026A00081F781E793E00E94412E81E0012B09F480E00F900F90DF91CF911F910F91FF90DF
:2026C000EF90089581E0F5CFCF93E091E205F091E30582E08083E091DE05F091DF051082E6
:2026E000E091E005F091E10587E680831092EA05E091E605F091E70586E08083E091E40590
:20270000F091E505808180618083E091E405F091E505808188608083E091E405F091E505F3
:20272000808180688083E091E405F091E50580818F7D80832D9A6AE771E08AEA96E00E94E3
:2027400015116CE271E080E090E00E94C805C0E063E871E08AEA96E00E94151148EE53E01E
:2027600060E070E08AE691E00E94F112082E000C990B009711F0029649F463E172E08AEAE6
:2027800096E00E94031181E0CF910895C630A1F462EA71E08AEA96E00E9407062D9868E8D9
:2027A00073E180E090E00E94C8052D9A6CE271E080E090E00E94C805CF5FCC3049F665E82B
:2027C00071E08AEA96E00E94031180E0DDCF48EB5BE060E070E08BE891E00E94F1128F3FA7
:2027E000D1F062E971E085E294E00E94572E892B89F06AE370E085E294E00E94362E049635
:202800000E94C527813011F0853029F491E09093210308958EEF0895CF9380912103C0E000
:202820008823B1F040ED57E060E070E088E991E00E94F11260E472E085E294E00E94482E48
:20284000C2E0C80FCF3F39F48EEB91E00E94C2108C2FCF9108958C2FCC0F990BFC01EA5D30
:20286000FB4F20812C3239F410828B5D9B4F0E94C527C82FEDCFFC01EB5DFB4F1282F5CF56
:20288000CF92DF92FF920F931F93CF93DF93F82EC1E7D3E0109271030E94FB0E8C010C3A98
:2028A0008DE018070CF0C5C189EB92E09F938F93DF93CF930E9443280F900F900F900F9073
:2028C00027E635E03F932F9325EB32E03F932F938F589C4F9F938F930E944328609126033F
:2028E0007091270380912803909129030E94FA11C82FD0E081EB92E09F938F93CE018F58E8
:202900009C4F9F938F930E944328C80FD91F8DB79EB70A960FB6F8949EBF0FBE8DBF93E029
:20292000F91601F180912E031F928F9380912D031F928F9383EA92E09F938F93CE018F5884
:202940009C4F9F938F930E944328C80FD91F8DB79EB708960FB6F8949EBF0FBE8DBF92E0EC
:20296000F91691F06BE972E0CE018F589C4F0E94E327609126037091270380912803909132
:2029800029030E946A11EC0180912A0390912B0305962AE0C22ED12CB6010E94AD2D7F939D
:2029A0006F9380912C031F928F9389E892E09F938F93CE018F589C4F9F938F930E944328C9
:2029C0009C018091CC051F928F938091CB051F928F938091C9059091CA050596B6010E942E
:2029E000AD2D7F936F9383E792E09F938F93C20FD31FCF58DC4FDF93CF930E9443288DB77F
:202A00009EB742960FB6F8949EBF0FBE8DBF92E0F91609F411C180912D03863080F06EE6B7
:202A200072E081E793E00E94E32760919F057091A0058091A1059091A2050E946A118091D5
:202A40002D03893080F069E672E081E793E00E94E3276091A6057091A7058091A8059091CD
:202A6000A9050E946A1180912D038C3080F063E672E081E793E00E94E3276091AD05709158
:202A8000AE058091AF059091B0050E946A1180912D038F3080F06DE572E081E793E00E943A
:202AA000E3276091B4057091B5058091B6059091B7050E946A1180912D03823180F067E531
:202AC00072E081E793E00E94E3276091BB057091BC058091BD059091BE050E946A11C1E72E
:202AE000D3E009900020E9F7C257D340C801845E9C4069E070E00E94AD2D77277F936F9310
:202B0000C80168EE73E00E94AD2D9B016AE070E00E94AD2D7F936F933F932F938EE292E08B
:202B20009F938F93CE018F589C4F9F938F930E944328C80FD91F0E940C14182F1F928F9394
:202B400085E292E09F938F93CF58DC4FDF93CF930E9443288DB79EB740960FB6F8949EBFF8
:202B60000FBE8DBF61E272E01A3050F06EE172E01E3030F069E172E0133110F06FE072E08D
:202B800081E793E00E94E32791E0F9120CC069E072E081E793E00E94E3276BE171E081E73F
:202BA00093E00E942B2EC1E7D3E009900020E9F7C257D34080918B058F9380918A058F9302
:202BC00080E092E09F938F93CE018F589C4F9F938F930E944328C80FD91F80918C050F90BD
:202BE0000F900F900F900F900F908823C9F0282F082E000C330B3F938F9386EF91E09F9373
:202C00008F93CE018F589C4F9F938F930E944328C80FD91F0F900F900F900F900F900F9007
:202C2000CE01DF91CF911F910F91FF90DF90CF90089590E080E044CE65E472E081E793E053
:202C40000E94E327609122037091230380912403909125030E94FA1162E472E081E793E0EA
:202C60000E94E3273CCFCF930E94E713C82F89E991E0CF3F51F16FE871E08AEA96E00E9441
:202C8000070680E891E0CC2301F160E671E0C13071F087E491E0C230C1F083E391E0C3303B
:202CA000A1F080E191E0C53081F468E171E08AEA96E00E9407060E940C14082E000C990B6C
:202CC0000E94D3108C2FCF9108950E94C210FACFEF92FF920F931F93CF93DF9300D000D0A0
:202CE00000D01F92CDB7DEB78091210381110FC010E0812F27960FB6F894DEBF0FBECDBF00
:202D0000DF91CF911F910F91FF90EF90089540ED57E060E070E08DE991E00E94F1128111D6
:202D2000E7CF68EA71E085E294E00E940F28FE01319687E0DF011D928A95E9F78F017E01BC
:202D4000B8E0EB0EF11C64EA71E090E080E00E940F280E94C527F80181938F01EE15FF055B
:202D600091F78C819F81890F8831E8F480932D030D8100932E03FE80F0922F030E94490CB3
:202D8000182F882309F4B5CF80912D0390911E034F2D602F992349F00E941B0D81EB91E096
:202DA0000E94C210A6CF8851E1CF0E94940CF6CFCF92DF92EF92FF92CF93DF930E94FB0E37
:202DC000CAE088349D404CF00E94641381110DC084E091E00E94C210C8E08C2FDF91CF9180
:202DE000FF90EF90DF90CF9008958BEF90E00E94C21040E45FE160E070E08AEA91E00E9481
:202E0000F1128F3F61F48AEC90E00E94C210C8E0CB3011F162E082E70E94580CDECF6EEBD6
:202E200070E085E294E00E94F527CBE0892B81F761EB70E085E294E00E94F527892B31F0C8
:202E40008AEA90E00E94C210C3E0E2CF80EA90E00E94C210C7E0DCCF84EF90E00E94C210CF
:202E60008DED90E00E94C210C12CD12C7601D0E468ED70E08AEA96E00E9407064AE0C701AF
:202E8000B6010E9478100E943316C82F813011F08530B1F480E480933403C33009F442C0C3
:202EA000C23009F441C0CB7FC13009F03FC089EE90E00E94C21080E480933403C0E08DCFEA
:202EC000833029F480913403826080933403D09334036CE271E080E090E00E94C805109294
:202EE00034036CE87AE080E090E00E94C8058FEFC81AD80AE80AF80A2EE1C216D104E104D7
:202F0000F10409F0B5CF8091340380628093340360ED77E080E090E00E94C80580913403A0
:202F20008F7DB9CFC5E059CFC4E057CFC9E055CFCF92DF92EF92FF92CF93DF93D82F209129
:202F40006D05822F022E000C990BC0970A97C8F02B32B9F082E193E00E94C2108091340326
:202F6000826080933403C2E061ED72E08AEA96E00E9407068C2F0C2E000C990B0E94D31020
:202F80009CC084E0809334030E94D816C82F8111EBCF8D2F0E9440140E943A1181E793E0DA
:202FA000FC0101900020E9F7CF0182579340813A910510F01092100463E073E08AEA96E080
:202FC0000E94070640ED57E060E070E081EB91E00E94F11267EC72E082ED95E00E94070694
:202FE0006DE675E082ED95E00E94151168EA71E082ED95E00E9403110E94FB056B017C01B5
:20300000F8EBCF0EFBE0DF1EE11CF11C0E94FB056C157D058E059F0508F05FC082ED95E037
:203020000E948906181619060CF050C082ED95E00E946706CE9751F761E773E082ED95E0E7
:203040000E9415116AE182ED95E00E94CB0680EE9EE20E948F12C82F69EB71E08AEA96E04F
:203060000E9415110C2E000CDD0BCE010E94D310C11136C080918A0590918B050196909333
:203080008B0580938A0580E093E00E94C21061E087E60E94580C80918E05882341F00E94E1
:2030A0006816811104C08BEE92E00E94C210C1115BCF8EED92E00E94C210C0938C05DF912C
:2030C000CF91FF90EF90DF90CF9008956AE070E080E090E00E94C80599CFCFEFDFEFC8CFB3
:2030E0008BEF92E00E94C21063E082E70E94580CC6E0D1CFE7E6F5E086E6DF011D928A95BC
:20310000E9F70E946413882309F46AC00E941F13811166C06BE773E081E793E00E94412EC7
:2031200083E5809371031092760386E0E1E7F3E0A7E6B5E001900D928A95E1F766EC71E098
:203140008AEA96E00E94151167E675E08AEA96E00E9415116AE071E08DE695E00E94412ED5
:2031600081E080937F0594E190938D0580938E050E94380B60938F057093900580939105DA
:203180009093920580E395E7A0E0B0E08093930590939405A0939505B093960584EF91E090
:2031A0009093CA058093C90580911E03811114C081E50E949E048EE090E00E94A70982E860
:2031C00090E00E94A7096CE382E896E00E94780982E896E00E94AC0988E690E00C94C21054
:2031E00063E071E087E695E00E94412EA7CF1F920F920FB60F9211242F933F938F939F93FD
:20320000AF93BF938091360390913703A0913803B09139033091350326E0230F2D3758F5AA
:203220000296A11DB11D209335038093360390933703A0933803B093390380913A0390917A
:203240003B03A0913C03B0913D030196A11DB11D80933A0390933B03A0933C03B0933D0376
:20326000BF91AF919F918F913F912F910F900FBE0F901F90189529E8230F0396A11DB11D0F
:20328000D2CF1F920F920FB60F9211242F933F934F935F936F937F938F939F93AF93BF933C
:2032A000EF93FF9382ED95E00E94A906FF91EF91BF91AF919F918F917F916F915F914F91F5
:2032C0003F912F910F900FBE0F901F9018951F920F920FB60F9211242F938F939F93EF9372
:2032E000FF93E091E205F091E3058081E091E805F091E90582FD1BC090818091EB058F5F53
:203300008F732091EC05821741F0E091EB05F0E0EE52FA4F958F8093EB05FF91EF919F911E
:203320008F912F910F900FBE0F901F9018958081F4CF1F920F920FB60F9211242F933F9301
:203340004F935F936F937F938F939F93AF93BF93EF93FF93E0911803F0911903309749F060
:20336000A685B7858585968D91FF14C09C918923A1F4FF91EF91BF91AF919F918F917F91E7
:203380006F915F914F913F912F910F900FBE0F901F9018959C91892361F7A389B4899C919F
:2033A0008589809589238C93868997890197F1F7608D718DA685B785558538E020E0CB0160
:2033C0000197F1F7822F90E095958795282F4C91452309F02068315091F7868D81FD20959A
:2033E0008091170390E001968F73992730911603381799F0A0911703B0E0AA52BD4F2C9385
:2034000080931703828D938D0197F1F7A389B4898C919589892B8C93ACCF868D8160868FD5
:20342000F1CF1F920F920FB60F9211242F933F934F935F936F937F938F939F93AF93BF937B
:20344000EF93FF938091B900887F803609F44AC0F0F5883209F4A7C018F5803109F49BC0B1
:20346000B8F4882309F4F9C0883009F494C0FF91EF91BF91AF919F918F917F916F915F9146
:203480004F913F912F910F900FBE0F901F901895883109F488C0803251F780933D0514C034
:2034A000803409F49DC040F48033B9F38833F9F680933D0585ECB0C0803509F485C08835D7
:2034C00009F496C0883499F60E945712D0CF883909F48CC038F5883729F050F4883611F092
:2034E000803729F683E080933F051092D50257C0883809F47BC0803919F0803809F0B7CFBB
:203500008091D502803208F071C0E091D50281E08E0F8093D5028091BB00F0E0EB54FD4F91
:2035200080833DC0803B39F0E0F4803A09F479C0883A09F09CCF84E080933F051092B402AA
:203540001092B302E0911705F091180509958091B30281110FC081E08093B30210929302C4
:2035600009C0803C09F4A6CF883C09F4A3CF883B09F07DCFE091B40281E08E0F8093B4022B
:20358000F0E0ED56FD4F80818093BB009091B4028091B30229C080913A058093BB0085ECE8
:2035A0008093BC0064CF90913C0580913B05981758F5E0913C0581E08E0F80933C05F0E086
:2035C000E75EFA4F8081E9CFE0913C0581E08E0F80933C058091BB00F0E0E75EFA4F808373
:2035E00090913C0580913B059817C8F285E8D8CFE0913C0581E08E0F80933C058091BB00CB
:20360000F0E0E75EFA4F808380913E0581115CCF81E08093390584EA8093BC0010923F0563
:2036200026CF85EC8093BC0010923F058091D502803230F4E091D502F0E0EB54FD4F10827C
:203640006091D50270E0E0911505F091160585EB92E009951092D5020ACF10923D0534CF72
:203660001F920F920FB60F9211248F939F938091340384FD299A8091340385FD289A8091E0
:20368000340386FD5F9A8091340387FD5C9A8091010190910201892B81F080910101909125
:2036A0000201019790930201809301019F918F910F900FBE0F901F90189586E990E090937B
:2036C0000201809301018091000191E08927809300018091340384FD31C080910001882314
:2036E00021F08091340380FD29C029988091340385FD26C080910001882321F08091340384
:2037000081FD1EC028988091340386FD1BC080910001882321F08091340382FD13C05F9888
:203720008091340387FD10C080910001882321F08091340383FD08C05C98B8CF299AD6CFAC
:20374000289AE1CF5F9AECCF5C9AB0CF1092D5051092D40588EE93E0A0E0B0E08093D605F0
:203760009093D705A093D805B093D90528E231E03093D3052093D20525EC30E03093DF0511
:203780002093DE0524EC30E03093E1052093E00520EC30E03093E3052093E20521EC30E0B4
:2037A0003093E5052093E40522EC30E03093E7052093E60526EC30E03093E9052093E805E2
:2037C0001092EB051092EC051092ED051092EE0510928506109284068093860690938706F3
:2037E000A0938806B09389062AE331E030938306209382061092AD061092AC068093AE0621
:203800009093AF06A093B006B093B10686E591E09093AB068093AA061092C1061092C006A9
:203820001092C3061092C2061092C5061092C4061092C7061092C6066091C8066E7F6D7F65
:203840006093C8066695617081E0682786E00E94390561E086E00E946705E6EDF8E0E491D0
:20386000E093BA06E2ECF8E0E491F0E0EE0FFF1FEE54F74F859194919093BC068093BB0693
:2038800060E085E00E9467058091C80681FD04C061E085E00E94390585E08093B606E5EDC8
:2038A000F8E0E491E093B706E1ECF8E0E491F0E0EE0FFF1FE855F74F859194919093B906E6
:2038C0008093B8068CE491E090938F0680938E0682E896E09093A9068093A80684E48093E9
:2038E0009006109292061092930610929406109295061092A6061092A5061092A4061092BB
:20390000A3061092910610929A0610929B0610929C0610929D0610929E0610929F06109288
:20392000A0061092A1061092A2061092A7068DEC9CECACECBDE380936F0690937006A09372
:203940007106B093720680E090E0A0E0BFE38093730690937406A0937506B093760682E447
:2039600080937706109278061092790610927A0610927B0610927C0610927D0610927E06C2
:2039800010927F0610928106109280060895789484B5826084BD84B5816084BD85B5826033
:2039A00085BD85B5816085BD80916E00816080936E0010928100809181008260809381005C
:2039C00080918100816080938100809180008160809380008091B10084608093B100809160
:2039E000B00081608093B00080917A00846080937A0080917A00826080937A0080917A00F2
:203A00008E7F80937A0080917A00806880937A001092C10061E083E00E9467055B9A62E0C0
:203A200082E00E94670562E080E10E94670561E088E00E946705289861E087E00E94670538
:203A40005F9861E084E00E9467055C9861E089E00E946705299861E08DE00E9467052D98CE
:203A60001092C5061092C4061092C3061092C2061092C1061092C0068DEC90E09093C706EE
:203A80008093C6069091B606963108F047C025E530E03093C1062093C0062BEC30E030939D
:203AA000C3062093C20620E930E03093C5062093C4062091680084E0983048F031E09E3042
:203AC00008F430E081E001C0880F3A95EAF7822B809368002DE630E0983050F02BE630E0FD
:203AE0009E3030F02CE630E0963110F030E020E03093BE062093BD06292F30E0983008F0BA
:203B000078C081E001C0880F9A95EAF78093BF068091C6069091C7060197F1F78091C406A6
:203B20009091C506892B49F1E0911803F091190326E0EA3AF20709F1309739F0A389B4890C
:203B40009C918589809589238C938091C8068E7F8093C80610921703109216038AEA96E01C
:203B60009093190380931803E091BD06F091BE0680819091BF06892B808380EA87BD809102
:203B80006E00826080936E0082E00E941005C0E0892B09F04DC080E48093340381E08093BF
:203BA0003303D0E0C1E010E100E8F0E4FF2E82E00E941005892BE1F5D23308F4DF5F68EC6E
:203BC00070E080E090E00E94C8058EE20E94AD07DC30E1F41092340368EC70E080E090E062
:203BE0000E94C805F092340382E30E94AD07C2E0DECF9E3040F42850310981E001C0880F26
:203C00002A95EAF783CF2E503109F7CFD83139F40093340383E30E94AD07C3E0C8CFD83234
:203C200031F61093340384E30E94AD07C4E0BFCF62E08EE00E94670561E08FE00E94670518
:203C400041980E94380B90E080E00E94BE0F0E94A8049091CD05891709F45AC08CE798E084
:203C60000E94C21067E6E62E65E0F62E07E610E079E2C72E73E0D72EE1E7AE2EE3E0BE2E2E
:203C8000C8010E94E42AF70191917F019817F1F01F928F931F929F93C801875691099F9359
:203CA0008F93DF92CF92BF92AF920E94432861E773E08AEA96E00E9403112DB73EB7265FD8
:203CC0003F4F0FB6F8943EBF0FBE2DBF0F5F1F4F0D3C1105A9F687E690E00E94BE0F0E9487
:203CE000A804D82F63E778E08AEA96E00E9407068091CD05D81741F08BE698E00E94C21076
:203D00000E947A180E94051085E698E00E94C21088E60E949E0482E896E00E94AC098111E6
:203D200003C081E080931E0380E10E941005892B41F40E947A1880911E0381118BC10E9444
:203D4000CF0C0E942E080E94A40A809190068454823070F462EA70E38EE896E00E94B50ADF
:203D6000882331F061E070E080E090E00E94C8050E942E08809177060E949E0482E896E01D
:203D80000E94AC09811186C040E050E860E0809177060E94FE0A20E030E040E058E36091C8
:203DA00073067091740680917506909176060E94D42C6B017C01C0927806D0927906E09238
:203DC0007A06F0927B0620E030E040EA51E40E94D42C60937C0670937D0680937E0690939A
:203DE0007F0620916F06309170064091710650917206C701B6010E94D42C9B01AC016CEA80
:203E000075EC87E29DE30E949E2B0E94412D0E94172C6B017093810660938006AB0165E098
:203E2000809177060E94FE0AD0928106C092800660E087E796E00E94D60E8C01177E20910C
:203E4000730630917406409175065091760660916F067091700680917106909172060E9465
:203E6000D42C20E030E04AE754E40E94D42C0E94172C6932710528F06135710508F0EDC068
:203E80001860A80160E0809177060E94FE0A81E0809332030E94FB0E909331038093300398
:203EA0008C3A9D404CF486E598E00E94C210809134038062809334030E94510E811106C0FB
:203EC0006AEC71E08AEA96E00E940311CC2309F449C08DE695E09F938F9387E695E09F9356
:203EE0008F938BE191E09F938F938AED91E09F938F9382E398E09F938F9381E793E09F93F5
:203F00008F930E9443286091300370913103072E000C880B990B0E94FA1190912F031F92F0
:203F20009F9390912E031F929F9390912D031F929F932CE138E03F932F9390E08F589C4FEB
:203F40009F938F930E94432861E773E08AEA96E00E9403118DB79EB746960FB6F8949EBFA2
:203F60000FBE8DBF80E40E949E0482E896E00E94AC09811179C00E94F80D80912A03909178
:203F80002B032091C9053091CA058217930764F49093CA058093C90580912D038093CB0562
:203FA00080912E038093CC0580E00E94E20B8091260390912703A0912803B09129034091CD
:203FC0009705509198056091990570919A05841B950BA60BB70B8093220390932303A09332
:203FE0002403B0932503B7FF07C0B095A095909581959F4FAF4FBF4FC397A105B1051CF041
:2040000081E00E94E20BC23009F47FC180F5CC2309F449C0C13009F075CE20916D05822F16
:20402000022E000C990BC0970A9768F02B3259F08091340380628093340364EF71E080E032
:2040400090E00E94C80568EE73E080E090E00E94C80558CE0E94560D74CE613A710510F417
:2040600010610FCF18610DCF0E94440F86CFC33009F451C1C43009F045CE81E080933403A5
:204080000E946413811103C082E0809334038AEA96E00E94B207892B09F4B5C18AEA96E0B0
:2040A0000E94C807F4CF80912E031F928F9380912D031F928F9384E693E09F938F9381E70A
:2040C00093E09F938F930E9443288C01C0912A03D0912B03EDB7FEB738960FB6F894FEBF3D
:2040E0000FBEEDBFD7FF06C06EED71E081E793E00E942B2ECE01D7FF03C0919581959109EB
:2041000020912C031F922F936AE070E00E94AD2D9F938F937F936F938CE493E09F938F9397
:204120000F581C4F1F930F930E944328609126037091270380912803909129030E94FA11D1
:2041400026E433E03F932F9390E08F589C4F9F938F930E9443286091300370913103072E7D
:20416000000C880B990B0E94FA1164E473E081E793E00E94E32761E773E08AEA96E00E9406
:2041800003119091800580912E03809380052DB73EB7225F3F4F0FB6F8943EBF0FBE2DBF9C
:2041A000981709F4AFCD81110EC090912D03963009F045C097E0E6E2F3E0AFE9B5E0019092
:2041C0000D929A95E1F700912603109127032091280330912903409197055091980560910F
:2041E000990570919A0568017901C41AD50AE60AF70AB701A601409322035093230360939D
:2042000024037093250300939705109398052093990530939A0548315C4F6F4F7F4F0CF07E
:204220004BC090913303911147C06DE773E08AEA96E00E94070682E00E94981763CD993087
:2042400031F497E0E6E2F3E0A6EAB5E0B8CF9C3031F497E0E6E2F3E0ADEAB5E0B0CF9F30FE
:2042600031F497E0E6E2F3E0A4EBB5E0A8CF923131F497E0E6E2F3E0ABEBB5E0A0CF209127
:204280008D05921306C097E0E6E2F3E0A2ECB5E096CF911198CF4091C2055091C30560914C
:2042A000C4057091C50540939B0550939C0560939D0570939E0587CF20912D0390918D054E
:2042C000291320CD882349F090918C05992341F06AE00E948D2D911103C083E00E94981773
:2042E00080918C0581110ECD80912A0390912B039093CA058093C90580912D038093CB052B
:2043000080912E038093CC05FDCC83E198E00E94C21081E091CF8CE098E00E94C21080E8DD
:20432000809334030E94510B4B015C0168E97AE380E090E00E94C8050E94510B6B017C01B8
:20434000C818D908EA08FB0810923403FF92EF92DF92CF929F938F937F936F93BF92AF92F0
:204360009F928F9286E993E09F938F9381E793E09F938F930E94432861E773E08AEA96E0F4
:204380000E9415118DB79EB740960FB6F8949EBF0FBE8DBF90EDC91697E0D906E104F10493
:2043A0004CF48FE893E00E94C21061E082E70E94580CA8CC80928F0590929005A092910516
:2043C000B0929205C0929305D0929405E0929505F092960580912A0390912B0390938405BD
:2043E000809383058CE893E00E94C21061E087E60E94580C10929705109298051092990556
:2044000010929A057FCC66E078E08AEA96E00E9407060E94331667EF76E08AEA96E00E94B6
:20442000070610E000E0C1E7D3E09AE0E92EF12C25E2222E33E1832E35E0932E49E3C42E86
:2044400045E0D42E5CE3A52EB12C82ED95E00E948906181619060CF062C040ED57E060E022
:2044600070E080EE91E00E94F112811158C062E270E085E294E00E94362E009709F44FC0A6
:20448000EBE2E0932504FC013196A6E2B4E021E030E081918232F1F18D932F5F3F4F2F307F
:2044A0003105B9F785E294E0FC0101900020E9F7CF018C5294400C9790F565E274E08DE6F5
:2044C00095E00E94412E8AEA96E00E94BE106DE675E08AEA96E00E94151184EB93E00E941E
:2044E000C2101092340362E087E60E94580C60EA7FE080E090E00E94C80540ED57E060E0D0
:2045000070E086EE91E00E94F11260EA7FE080E090E09DCD2B5D3B4FF9011082C3CF8AEA3A
:2045200096E00E94B207892B49F562E370E080E090E00E94C8053801FFEF6F1A7F0A093B67
:204540001B4029F48BEF97E00E94C210DBCBC301B5010E94992D892B49F40E94E713982FA2
:204560009B7F913029F480E18093340383016DCF8330E1F7809134038260F6CF8AEA96E074
:204580000E94C8078C010E94AD078AEA96E00E94BE10003309F4D9C411270533110509F41D
:2045A0001DC30CF0E5C00233110509F469C1ACF40133110509F414C165EF77E08AEA96E0B7
:2045C0000E9407060E94331667EF76E08AEA96E00E940706712C612CC9CF0333110509F4F1
:2045E000A7C10433110541F76EEC74E08AEA96E00E94070610E000E0412C512C32014394C3
:20460000842D0E949E0482E896E00E94AC098111E8C16DEA74E08AEA96E00E9407063FE0D0
:20462000341518F080E30E94AD0740E1C301B2010E9478100F5F1F4F9FEF491A590A690A0B
:20464000790AEFE74E16510461047104C9F6012B31F469E774E08AEA96E00E94070662EBD4
:2046600075E08AEA96E00E94070680911E036AEA75E0811102C061EA75E08AEA96E00E94F1
:2046800007060E94510E8111C5C16CE975E08AEA96E00E9407066AE671E08AEA96E00E9484
:2046A00003110E94FB0E8C0164E875E08AEA96E00E94070680913203882309F4B4C16FE7BB
:2046C00075E08AEA96E00E94070663E775E081E793E00E94EE27B801110F880B990B0E9409
:2046E000FA1161E773E08AEA96E00E94031180E695E00E94C21063E575E08AEA96E00E94FC
:2047000007060E94A40A811193C18EE495E00E94C2106DE275E08AEA96E00E9407068EE848
:2047200096E00E94E30A8111B5C188E295E00E94C2108AE095E00E94C2100E94D816182FEF
:204740008111DBC16CE072E08AEA96E00E94031181E095E00E94C2108AEA96E00E94B2075E
:20476000892B09F4D6C18AEA96E00E94C807F4CF0833110509F4D5C284F40633110509F42A
:204780007CC20733110509F017CF1092330381E00E9440140E943A110FCF0933110509F463
:2047A0000DC30136110509F007CF80912103811102C00E94D8161092710364E676E08AEACA
:2047C00096E00E9407068AEA96E00E94B2078C01892B09F4F6C28AEA96E00E94C807F3CF5C
:2047E0006AEF73E08AEA96E00E9407066DE675E08AEA96E00E94151169EE73E08AEA96E086
:204800000E9407068AEA96E00E94B207892B29F08AEA96E00E94C807F5CF0E941B0BFE01F1
:2048200001900020E9F7AF014257534063ED73E04331510508F055C08091710381110BC0AF
:204840006AE071E08DE695E00E94412E84EC93E00E94C210B1CE4F5F5F4F61E773E08DE684
:2048600095E00E94222E8AEA96E00E94BE106DE675E08AEA96E00E9415118CEB93E0E8CF7C
:204880006CEE71E08AEA96E00E94031160E474E08AEA96E00E94070667E675E08AEA96E010
:2048A0000E9415116FE274E08AEA96E00E9407068AEA96E00E94B207892B29F08AEA96E0F6
:2048C0000E94C807F5CF0E941B0BFE0101900020E9F7AF01425753404630510538F06BE12F
:2048E00074E08AEA96E00E94070666CE80917103811109C063E071E087E695E00E94412E30
:204900008EE094E0A5CF4F5F5F4F61E773E087E695E00E94222E8AEA96E00E94BE1067E6CF
:2049200075E08AEA96E00E94151186E094E090CF0E94510E66EF71E08AEA96E00E941511DE
:204940000E94171162E674E08AEA96E00E9407068AEA96E00E94B207892B29F08AEA96E05C
:204960000E94C807F5CF0E941B0BFE0101900020E9F78AE494E0EA57F34009F069CF81E7BB
:2049800093E00E94C527182F84E793E00E94C527082F87E793E00E94C527782E0E94490C20
:2049A0006DEF71E0882309F460C180911E03472D602F882391F0812F0E941B0D0E94510EA5
:2049C00065E072E08AEA96E00E9415110E9417118AEA96E00E94BE10EFCD812F0E94940CBC
:2049E000EDCF843009F028CE60E974E08AEA96E00E9407068FE0841518F080E30E94AD0759
:204A000040E1C301B2010E9478108AEA96E00E94BE1012CE61E975E08AEA96E00E94070662
:204A20000E94171138CE89E795E00E94C2104DCE0E94F80D20912A0330912B03C901B7013C
:204A40000E94AD2D97FF03C09195819591099F938F93C901B7010E94AD2D7F936F931F9294
:204A60002F9280912C031F928F93DF92CF92DF93CF930E94432861E773E08AEA96E00E9488
:204A800003118DB79EB70C960FB6F8949EBF0FBE8DBF3FCE0E94440F20912A0330912B0331
:204AA000C901B7010E94AD2D97FF03C09195819591099F938F93C901B7010E94AD2D7F9365
:204AC0006F931F922F9280912C031F928F939F928F92DF93CF930E94432861E773E08AEA0D
:204AE00096E00E9403112DB73EB7245F3F4F0FB6F8943EBF0FBE2DBF1CCE66E172E08AEAA2
:204B000096E00E941511812F110F990B0E94D3101FCE8AEA96E00E94B207892B09F057C068
:204B20000E94380B2B013C0180918F0590919005A0919105B0919205A3019201281B390B6F
:204B40004A0B5B0BA8EEB3E00E94112E209193053091940540919505509196050E94E32D54
:204B600020931A0330931B0340931C0350931D037F926F925F924F927F926F925F924F92C7
:204B800088EE94E09F938F93DF93CF930E94432860911A0370911B0380911C0390911D0358
:204BA0000E94FA1161E773E08AEA96E00E94031168EE73E080E090E00E94C8058DB79EB78C
:204BC0000C960FB6F8949EBF0FBE8DBFA2CF8AEA96E00E94C80784EE94E03ACE6CED75E004
:204BE0008AEA96E00E94070680918E0560E871E0811102C06DE172E08AEA96E00E9403114B
:204C00006EEC75E08AEA96E00E9407068AEA96E00E94B207892B29F08AEA96E00E94C807DF
:204C2000F5CF0E941B0BFE0101900020E9F7CF0182579340039718F086EC95E009CE81E714
:204C400093E00E94C5278230A8F480938E0561E272E08AEA96E00E94151180918E0560E82C
:204C600071E0811102C06DE172E08AEA96E00E940311A2CC8EEB95E0EBCD6FE276E08AEA20
:204C800096E00E94070680918205082E000C990B0E94D31063E276E08AEA96E00E940706B8
:204CA0008AEA96E00E94B207892B29F08AEA96E00E94C807F5CF0E941B0BFE01019000204B
:204CC000E9F7CF0182579340059740F581E793E00E94C527182F85EF95E0153608F0B8CD46
:204CE0006AE372E08AEA96E00E941511112331F063E472E08AEA96E00E941511612F70E0E3
:204D000090E080E04AE00E94781065E472E08AEA96E00E940311109382054ECC6EE076E04C
:204D2000E0CD6AE472E08AEA96E00E94151160918D0570E090E080E04AE00E94781064E534
:204D400072E08AEA96E00E9415118AEA96E00E94B207892B29F08AEA96E00E94C807F5CF1E
:204D60000E941B0BFE0101900020E9F7CF0182579340049718F08FE496E06ACD81E793E0C1
:204D80000E94C527182F8FEF810F873118F08BE396E05ECD6AE372E08AEA96E00E94151110
:204DA000612F70E090E080E04AE00E9478108AEA96E00E94BE1010938D05FECB0E947A1863
:204DC000FBCB8AEA96E00E94B207892B39F462E370E080E090E00E94C805F3CF8AEA96E067
:204DE0000E94C807782E0E94AD0722E3721609F43EC027154CF031E3731619F1F0E37F123B
:204E0000DCCC88EB96E024CD83E3781609F447C099E37912F3CF67EC76E08AEA96E00E941A
:204E200007068AEA96E00E94B207892B09F049C062E370E080E090E00E94C805C8018C0140
:204E4000F0CF0E940C14082E000C990B9093200380931F036FEE76E08AEA96E00E94070624
:204E600080911F03909120030E94D310A6CC67EE76E08AEA96E00E9407060E941F1381111A
:204E800007C061E773E08AEA96E00E94031195CC60EE76E08AEA96E00E9407068ECC0E9476
:204EA0006816882359F00E94510E63ED76E08AEA96E00E9407060E9417117FCC6BEC76E07E
:204EC000E9CF8AEA96E00E94C807782E0E94AD07EDE07E1621F0F801EB5DFB4F7082C8010B
:204EE0000196FDE07F12ABCFF801EB5DFB4F108264E672E08AEA96E00E94151165E274E02D
:204F00008AEA96E00E94031140E157E260E070E085E294E00E94F112182F6CE672E08AEA28
:204F200096E00E941511812F110F990B0E94D3106FEB76E08AEA96E00E94070665E274E056
:204F40008AEA96E00E94151138CC299880EF97E0FBCA86E591E09093AB068093AA068091AB
:204F60001803909119038A5A964071F4E091BD06F091BE0690818091BF0680958923808396
:204F800010921903109218030895FC0188279927E89421912032E9F3293010F02E30C8F3BF
:204FA0002B3241F02D3239F4689404C00E943B28820F911D219120532A30C0F31EF490956A
:204FC00081959F4F0895FB01DC010D900020E9F7119705900D920020E1F70895FB01DC0170
:204FE00005900D920020E1F70895FB0155915523A9F0BF01DC014D9145174111E1F759F4A7
:20500000CD010590002049F04D9140154111C9F3FB014111EFCF81E090E00197089549EC4C
:2050200056E00E9414280895FA01A191B081009719F41097E1F0CD01DC01CD010D9000200F
:2050400011F4C00113C0FB012191222319F02015D9F7F3CFFB012191201519F41E921196AD
:2050600006C02223C1F70D900020A1F7D001FA01A193B08308957AE0979F902D879F802D28
:20508000910D11240895AEE0B0E0E9E4F8E20C94082B0D891E898EE08C831A8309838FEFA7
:2050A0009FE79E838D83AE01475E5F4F6F89788DCE0101960E9466282F813885020F131FF4
:2050C000F80110822E96E4E00C94242BABE0B0E0ECE6F8E20C94FA2A7C013B018A01FC0102
:2050E00017821682838181FFC8C1CE0101965C01F7019381F30193FD859193FF81913F0125
:20510000882309F453C1853239F493FD859193FF81913F01853229F4B70190E00E94562A47
:20512000E7CF912C212C312CFFE1F31538F08B3211F190F4803209F1833229F137FC3CC055
:2051400020ED280F2A3050F536FE20C08AE0989E200D1124922E06C08D3291F0803371F775
:20516000689430F8F30193FD859193FF81913F018111DACF21C0689431F8689432F8F2CF65
:20518000689433F8EFCF689434F8ECCFEAE02E9E200D1124222E689435F8E4CF8E3229F446
:2051A00036FC04C1689436F8DDCF8C3619F4689437F8D8CF8836B1F2982F9F7D9554933091
:2051C000E0F08336A1F18337C1F1833509F063C02801F2E04F0E511CF801C080D180692D8F
:2051E00070E036FC02C06FEF7FEFC6010E94402A4C01689437F882010AC00C5F1F4FFFE34C
:20520000F98388248394912C6501E89437F833FE2DC0522C8114910471F5552009F468CFAC
:20522000B70180E290E00E94562A5A94F6CFF801808189830E5F1F4FE4CF2801F2E04F0E23
:20524000511CF801C080D180692D70E036FC02C06FEF7FEFC6010E944B2A4C018201D5CF5F
:20526000B70180E290E00E94562A2A942814190409F0B0F7CECFF60137FC859137FE8191A7
:205280006F01B70190E00E94562A51105A94F1E08F1A9108BFCF843619F0893609F077C0B2
:2052A000F80137FE6BC060817181828193810C5F1F4FF32DFF763F2E97FF09C09095809537
:2052C000709561957F4F8F4F9F4F689437F82AE030E0A5010E94862AC82ECA188C2C432CFD
:2052E00036FE0CC0E89440F8C91440F434FE05C032FC03C0F32DFE7E4F2E892C44FE95C09C
:20530000FE01EC0DF11D8081803309F087C0242D297E422E842D8870582E43FC95C040FE2A
:205320008FC09C2C821418F42C0C922C981844FE91C0B70180E390E00E94562A42FE09C0C5
:2053400088E790E041FE02C088E590E0B7010E94562AC91408F48AC0CA94D12C9FEFC91AC7
:20536000D90ACA0CDB1CF60182916F01B70190E00E94562AAC14BD04B1F74FCF608171819F
:20538000072E000C880B990B0E5F1F4F92CFD32CE894D4F82AE030E0853739F1232D297F1A
:2053A000D22E8F3601F148F48835A9F0F701868197812B96E2E10C94162B803749F0883779
:2053C000A9F7D4FE02C06894D2F820E130E00DC06894D4F8F6CF34FE03C0822F8660D82ED6
:2053E00020E132E002C028E030E0F801D7FE0FC060817181828193810C5F1F4FA5010E9418
:20540000862AC82ECA183D2CE89437F867CF6081718190E080E00E5F1F4FF0CF42FC02C07D
:20542000839478CF8394839475CF842D867809F471CFF6CFB70180E290E00E94562A839428
:205440008214C0F3512C73CF522C5818821408F46ECFF8CF842D867809F47BCF8BE241FE1E
:2054600080E247FC8DE2B70190E071CFB70180E390E00E94562A9A946CCF8FEF9FEF99CF26
:20548000FC010590615070400110D8F7809590958E0F9F1F0895FC01615070400190011007
:2054A000D8F7809590958E0F9F1F08950F931F93CF93DF93182F092FEB018B8181FD09C005
:2054C0001FEF0FEF812F902FDF91CF911F910F91089582FF14C02E813F818C819D81281766
:2054E00039073CF4E881F981CF0101969983888310838E819F8101969F838E83E3CFE88520
:20550000F985812F0995892BA1F3DACFFA01AA27283051F1203181F1E8946F936E7F6E5F6D
:205520007F4F8F4F9F4FAF4FB1E03ED0B4E03CD0670F781F891F9A1FA11D680F791F8A1FB0
:20554000911DA11D6A0F711D811D911DA11D20D009F468943F912AE0269F11243019305D3B
:205560003193DEF6CF010895462F4770405D4193B3E00FD0C9F7F6CF462F4F70405D4A3344
:2055800018F0495D31FD4052419302D0A9F7EACFB4E0A6959795879577956795BA95C9F770
:2055A00000976105710508959B01AC010A2E06945795479537952795BA95C9F7620F731F5E
:2055C000841F951FA01D0895F999FECF92BD81BDF89A992780B50895262FF999FECF1FBA7D
:2055E00092BD81BD20BD0FB6F894FA9AF99A0FBE019608952F923F924F925F926F927F9252
:205600008F929F92AF92BF92CF92DF92EF92FF920F931F93CF93DF93CDB7DEB7CA1BDB0BB6
:205620000FB6F894DEBF0FBECDBF09942A88398848885F846E847D848C849B84AA84B984D3
:20564000C884DF80EE80FD800C811B81AA81B981CE0FD11D0FB6F894DEBF0FBECDBFED0126
:2056600008955058BB27AA270E94492B0C949A2C0E948C2C38F00E94932C20F039F49F3FB8
:2056800019F426F40C94892C0EF4E095E7FB0C94832CE92F0E94AB2C58F3BA176207730756
:2056A0008407950720F079F4A6F50C94CD2C0EF4E0950B2EBA2FA02D0B01B90190010C0148
:2056C000CA01A0011124FF27591B99F0593F50F4503E68F11A16F040A22F232F342F4427F2
:2056E000585FF3CF469537952795A795F0405395C9F77EF41F16BA0B620B730B840BBAF02A
:205700009150A1F0FF0FBB1F661F771F881FC2F70EC0BA0F621F731F841F48F48795779503
:205720006795B795F7959E3F08F0B0CF9395880F08F09927EE0F9795879508950E94B22B69
:205740000C949A2C0E94932C58F00E948C2C40F029F45F3F29F00C94832C51110C94CE2C91
:205760000C94892C0E94AB2C68F39923B1F3552391F3951B550BBB27AA2762177307840763
:2057800038F09F5F5F4F220F331F441FAA1FA9F335D00E2E3AF0E0E832D091505040E695C9
:2057A000001CCAF72BD0FE2F29D0660F771F881FBB1F261737074807AB07B0E809F0BB0B8C
:2057C000802DBF01FF2793585F4F3AF09E3F510578F00C94832C0C94CE2C5F3FE4F3983EA4
:2057E000D4F3869577956795B795F7959F5FC9F7880F911D9695879597F90895E1E0660F3A
:20580000771F881FBB1F621773078407BA0720F0621B730B840BBA0BEE1F88F7E095089535
:205820000E94172C6894B1110C94CE2C08950E94B32C88F09F5798F0B92F9927B751B0F0C7
:20584000E1F0660F771F881F991F1AF0BA95C9F714C0B13091F00E94CD2CB1E008950C9455
:20586000CD2C672F782F8827B85F39F0B93FCCF3869577956795B395D9F73EF490958095A5
:20588000709561957F4F8F4F9F4F0895E89409C097FB3EF490958095709561957F4F8F4FEC
:2058A0009F4F9923A9F0F92F96E9BB279395F695879577956795B795F111F8CFFAF4BB0F78
:2058C00011F460FF1BC06F5F7F4F8F4F9F4F16C0882311F096E911C0772321F09EE8872F68
:2058E000762F05C0662371F096E8862F70E060E02AF09A95660F771F881FDAF7880F969503
:20590000879597F9089597F99F6780E870E060E008959FEF80EC089500240A941616170671
:2059200018060906089500240A9412161306140605060895092E0394000C11F4882352F00C
:20594000BB0F40F4BF2B11F460FF04C06F5F7F4F8F4F9F4F089557FD9058440F551F59F0E6
:205960005F3F71F04795880F97FB991F61F09F3F79F087950895121613061406551FF2CF8A
:205980004695F1DF08C0161617061806991FF1CF86957105610508940895E894BB2766279A
:2059A0007727CB0197F908950E94E72C0C949A2C0E948C2C38F00E94932C20F0952311F089
:2059C0000C94832C0C94892C11240C94CE2C0E94AB2C70F3959FC1F3950F50E0551F629F47
:2059E000F001729FBB27F00DB11D639FAA27F00DB11DAA1F649F6627B00DA11D661F829FE0
:205A00002227B00DA11D621F739FB00DA11D621F839FA00D611D221F749F3327A00D611D0D
:205A2000231F849F600D211D822F762F6A2F11249F5750409AF0F1F088234AF0EE0FFF1F41
:205A4000BB1F661F771F881F91505040A9F79E3F510580F00C94832C0C94CE2C5F3FE4F398
:205A6000983ED4F3869577956795B795F795E7959F5FC1F7FE2B880F911D9695879597F917
:205A800008950E94752D30F09F3710F40C94CE2C0C944C2D0C94672D882371F4772321F089
:205AA0009850872B762F07C0662311F499270DC09051862B70E060E02AF09A95660F771F4F
:205AC000881FDAF7880F9695879597F908959F3F31F0915020F4879577956795B795880F48
:205AE000911D9695879597F908950E94B32CA0F0BEE7B91788F4BB279F3860F41616B11D7B
:205B0000672F782F8827985FF7CF869577956795B11D93959639C8F30895991B79E004C0CB
:205B2000991F961708F0961B881F7A95C9F780950895AA1BBB1B51E107C0AA1FBB1FA6173B
:205B4000B70710F0A61BB70B881F991F5A95A9F780959095BC01CD01089597FB072E16F4E3
:205B6000009407D077FD09D00E94992D07FC05D03EF4909581959F4F0895709561957F4F6C
:205B80000895A1E21A2EAA1BBB1BFD010DC0AA1FBB1FEE1FFF1FA217B307E407F50720F0FF
:205BA000A21BB30BE40BF50B661F771F881F991F1A9469F760957095809590959B01AC0176
:205BC000BD01CF010895052E97FB1EF400940E94FA2D57FD07D00E94C12D07FC03D04EF493
:205BE0000C94FA2D50954095309521953F4F4F4F5F4F089590958095709561957F4F8F4F51
:205C00009F4F0895A29FB001B39FC001A39F700D811D1124911DB29F700D811D1124911D65
:205C200008950E94022EA59F900DB49F900DA49F800D911D11240895EE0FFF1F0590F4919F
:205C4000E02D0994FB01DC0102C001900D9241505040D8F70895FB01DC010D900020E9F7CC
:205C6000119701900D920020E1F70895FC018191861721F08823D9F7992708953197CF018A
:205C80000895FB01DC0101900D920020E1F70895DC015D91552331F0FB01019005160110AC
:205CA000E1F7B9F7809590958A0F9B1F0895FB0151915523A9F0BF01DC014D91451741111A
:205CC000E1F759F4CD010190002049F04D9140154111C9F3FB014111EFCF81E090E0019731
:205CE000089514E0C3E7D4E004C0FE010E941C2E2196C437D107C9F7F894FFCF0196005378
:205D00003030303000004E756D626572204E6F742053657421000032352E30312E3238000E
:205D200000000000CB062B0658061807890667067B060000000078094B09FB0A50074409E9
:205D4000BF04350900000000E30AB50AA10D0000000051072B06FB0A5007B207C80738073C
:205D60000D0A4F4B0D0A000D0A4552524F520D0A002B47534E004D6F64656D204F6E002E93
:205D8000004572726F72002B435245473F00435245473A002B435351002B43434C4B3F007A
:205DA0002F2C3A2B22002B4350494E3F002B434D47463D31000D0A41395F416E7377657257
:205DC0003D0049443D0054696D65207761732072657365742100312E31002D002B434C43A4
:205DE00043002B43485550004368616E6765204944000D0A4E6F772000204572726F72215C
:205E0000000D0A5365742000537461747573204F4B004572726F7220004F6666000D0A4144
:205E200075746F636F7272656374696F6E204E6F7720697320002053617665643A20002BCA
:205E40000067722F43000D0A4E6F7720697320002E20536574204E657720486F75723A00D4
:0E5E6000737472696E673D00737461743D0067
:00000001FF
