:100000000C9492030C94BA030C94BA030C946719E1
:100010000C9467190C9467190C94BA030C94BA03E6
:100020000C94BA030C94FE1A0C94BA030C94BA0301
:100030000C94BA030C94BA030C94BA030C94BA034C
:100040000C941D190C94BA030C94EB180C94C5185D
:100050000C94BA030C94BA030C94BA030C94BA032C
:100060000C94DF190C94BA0354696D653D00457812
:1000700063656C6C656E7400476F6F64004F4B0076
:10008000426164000A5369673D25642F000A42619A
:10009000743D25642E253032645628256425252993
:1000A000000A4820256425252C2054252B64430074
:1000B0006B672E0A54696D652025643A25303264D9
:1000C000006B672E0A4174202564683A2000494479
:1000D0002025733D004C4F572042415454455259FE
:1000E00020210A000A466F726D5F534D530025644C
:1000F0002E25303264002D000D54455354204753B3
:100100004D3A20200D312D53656E6420534D532000
:10011000200D322D5253534920200D332D67657425
:1001200054696D6520200D342D494D454920200D21
:10013000392D434D4420200D302D45786974202001
:100140000D506C656173652073656C656374203058
:100150002E2E3920200D000D4279652100616E732D
:100160007765723A000D4154004552524F52004992
:100170004D45493A000D4552524F52000D4E65779C
:1001800020446174652F54696D653A2000525353C1
:10019000493D00726573756C743D00616E737765DF
:1001A000723D005445535420534D53000A53656E1D
:1001B0006420534D533D002B4350494E3A4E4F203F
:1001C00053494D002B4350494E3A52454144590042
:1001D000556E6B6E6F776E005265676973746572EA
:1001E00065642C20726F616D696E67005265676986
:1001F0007374726174696F6E2064656E6965640002
:10020000536561726368696E672061206E6577204F
:100210006F70657261746F7200526567697374659F
:100220007265642C20686F6D65206E6574776F72DF
:100230006B004E6F742072656769737465726564D4
:1002400000205374617475733A20005472793A0037
:1002500074696D656F75742E2E2E00436F6E6E651A
:1002600063742E2E2E2000525353493D00434F4EAF
:100270004E4543545F4F4B2E0053494D5F4F4B2E1D
:10028000000D4E4F5F53494D2E004D4F44454D5F7D
:100290004F4B2E005265626F6F74204D6F64656D19
:1002A0000054696D652057617320536574002054B4
:1002B000696D656F7574000D0A004154001F1C1FA5
:1002C0001E1F1E1F1F1E1F1E1F00000000240027D0
:1002D000002A0000000008000201000003040700DB
:1002E00000000000000000534D532073656E642031
:1002F0004641494C00534D532073656E64204F4B6B
:10030000004B67000A43617574696F6E2120576561
:100310006967687420000A203136682025642E251C
:100320003032642F25642F2564000A203134682080
:1003300025642E253032642F25642F2564000A2081
:100340003132682025642E253032642F25642F2514
:1003500064000A2036682025642E253032642F255B
:10036000642F2564000A747279696E6720746F20A7
:1003700073656E6420736D732E2E2E004552524F9E
:100380005221204E756D626572206E6F7420536528
:100390007400534D532073656E64204F4B00534DD2
:1003A000532073656E64204641494C000D455252FE
:1003B0004F5221204E756D626572204E6F7420532E
:1003C0006574004F4B004661696C20002064656CC9
:1003D00074613D00202B6F6E654B673D000D7A65A3
:1003E000726F4B673D002053617665642E00205389
:1003F000617665642E004E756D62657220436C6592
:10040000617265642E004552524F5221204D617831
:10041000203134206469676974732E000D456E7451
:100420006572204E756D6265723A2000204E6F74C1
:1004300020536574000D43757272656E743A200026
:100440004552524F5221204D61782035206368611A
:1004500072732E002053617665642E004944204358
:100460006C65617265642E000D456E74657220497D
:10047000443A000D43757272656E743A20000D4E59
:10048000657720446174652F54696D653A20000DCD
:100490004552524F522120466F726D6174000D45D6
:1004A00052524F5221204C656E677468000D456EA4
:1004B00074657220446174652C2054696D653A201E
:1004C0004A616E203120323032322C48483A4D4D4C
:1004D00020000D4E6F2049324320646576696365C4
:1004E0007320666F756E64000D556E6B6E6F7720AE
:1004F0006572726F722061742061646472657373D7
:10050000203078000D4932432064657669636520A8
:10051000666F756E642061742061646472657373C4
:10052000203078000D5363616E6E696E672049322A
:1005300063206275732E2E2E004F4B2E000D5465D6
:1005400073742047534D3A000D5465737420485816
:100550003731313A002520543D002052483D004FAC
:100560004B2E004641494C00546573742053493763
:100570003032303A20004F4B2E20446174653A20CF
:10058000004641494C000D54657374205254433A5F
:1005900020000D4D454E553A20200D312D43686108
:1005A0006E6765204D6173746572204E756D62656E
:1005B0007220200D322D53657420494420200D33C4
:1005C0002D53657420446174652F54696D65202036
:1005D0000D342D54657374204861726477617265BF
:1005E00020200D352D546573742047534D20200D68
:1005F000362D4578697420200D506C656173652037
:1006000073656C65637420312E2E3620200D3E00FC
:10061000427965210054696D656F75742E2E2E0028
:100620004B616C696272005465737420534D5300C2
:100630007D007B2254494D45223A22253032643ACE
:1006400025303264222C2254223A25642C2252482E
:10065000223A25642C22574549474854223A0056ED
:1006600020446174653A20002E0020566261743D7A
:1006700000204D61737465723A005D2049443A0070
:100680005365702032322032303232000D48573AF2
:10069000004C4F5720564F4C5441474521212100D3
:1006A000204E756D626572204E6F74205365740024
:1006B00020546578743A0D000D53656E6420534DD7
:1006C0005320746F3A00253032752F253032752F44
:1006D0002530347520253032753A253032753A256B
:1006E00030327500000000002300260029000000C1
:1006F0000000250028002B00040404040404040462
:1007000002020202020203030303030301020408BC
:10071000102040800102040810200102040810206B
:10072000701BC22411241FBECFEFD8E0DEBFCDBFA7
:1007300025E0A8EBB1E001C01D92AB36B207E1F7AE
:1007400011E0A0E0B1E0E4EDF5E502C005900D9206
:10075000A83BB107D9F713E0C1E9D3E004C0219762
:10076000FE010E94772AC039D107C9F70E94631C95
:100770000C94DD2A0C94000061157105810591052A
:10078000E1F581E090E0A0E0B0E080937A049093FE
:100790007B04A0937C04B0937D0486EC9CE0909352
:1007A000790480937804809170008E7F809370002C
:1007B0008091B0008C7F8093B0008091B100877FE2
:1007C0008093B1008091B6008F7D8093B6008091B8
:1007D00070008D7F809370008091B1008460809361
:1007E000B1008091B1008C7F8093B10083E890E0EC
:1007F0009093770480937604089560937A047093BD
:100800007B0480937C0490937D04C7CF91E0909308
:100810002504809324041092230410922204089546
:1008200080911C059FEF980F9C3090F590911D05CD
:100830002FEF290F2F3160F520911E05283140F54B
:1008400020911F052C3320F5209120052C3300F535
:10085000823001F59E31E0F49D3141F520911B0578
:1008600030E02053384FC90183709927892B81F4D8
:10087000C90164E670E00E940E2A892BB9F4C9010F
:1008800060E971E00E940E2A9C0181E0232B79F03F
:1008900080E008959F3151F48150990B67E070E03A
:1008A0000E94222A809590958170089581E0089594
:1008B00008950895EF92FF920F931F93CF93DF93C4
:1008C0008C017B01D0E0C0E0F701EC0FFD1F6491CB
:1008D000662361F0D801ED91FC910190F081E02D4B
:1008E000C8010995892B11F02196EECFCE01DF9139
:1008F000CF911F910F91FF90EF900895AF92BF920B
:10090000CF92DF92EF92FF920F931F93CF93DF93DB
:100910006C017B018B01040F151FEB015E01AE180A
:10092000BF08C017D10759F06991D601ED91FC912C
:100930000190F081E02DC6010995892B79F7C50159
:10094000DF91CF911F910F91FF90EF90DF90CF90AB
:10095000BF90AF900895FC01538D448D252F30E05A
:10096000842F90E0821B930B541710F0CF960895BC
:1009700001970895FC01918D828D981761F0A28DE9
:10098000AE0FBF2FB11D5D968C91928D9F5F9F73AF
:10099000928F90E008958FEF9FEF0895FC01918D65
:1009A000828D981731F0828DE80FF11D858D90E0D2
:1009B00008958FEF9FEF0895FC01918D228D892F6F
:1009C00090E0805C9F4F821B91098F739927089557
:1009D0008EE794E00E94DC0421E0892B09F420E0FA
:1009E000822F089580E090E0892B29F00E94E8048E
:1009F00081110C9400000895FC01A48DA80FB92F5B
:100A0000B11DA35ABF4F2C91848D90E001968F7336
:100A10009927848FA689B7892C93A089B1898C9155
:100A2000837080648C93938D848D981306C00288A4
:100A3000F389E02D80818F7D80830895EF92FF926E
:100A40000F931F93CF93DF93EC0181E0888F9B8DF1
:100A50008C8D98131AC0E889F989808185FF15C0AB
:100A60009FB7F894EE89FF896083E889F9898081CE
:100A70008370806480839FBF81E090E0DF91CF919D
:100A80001F910F91FF90EF900895F62E0B8D10E0BF
:100A90000F5F1F4F0F731127E02E8C8D8E110CC02E
:100AA0000FB607FCFACFE889F989808185FFF5CF79
:100AB000CE010E94FC04F1CFEB8DEC0FFD2FF11D58
:100AC000E35AFF4FF0829FB7F8940B8FEA89FB89B6
:100AD00080818062CFCFCF93DF93EC01888D882314
:100AE000B9F0AA89BB89E889F9898C9185FD03C091
:100AF000808186FD0DC00FB607FCF7CF8C9185FF76
:100B0000F2CF808185FFEDCFCE010E94FC04E9CFBA
:100B1000DF91CF910895833081F028F4813099F0EE
:100B20008230A9F008958730A9F08830C9F0843068
:100B3000B1F4809180008F7D03C0809180008F7719
:100B400080938000089584B58F7784BD089584B51F
:100B50008F7DFBCF8091B0008F778093B000089598
:100B60008091B0008F7DF9CFCF93DF93282F30E0B5
:100B7000F901ED52FD4F8491F901E45FF84FD491F2
:100B8000F901E850F94FC491CC23A1F081110E94E2
:100B90008B05EC2FF0E0EE0FFF1FEC51F94FA59104
:100BA000B491EC91ED2381E090E009F480E0DF91D5
:100BB000CF91089580E090E0FACF1F93CF93DF9319
:100BC000282F30E0F901ED52FD4F8491F901E45FE7
:100BD000F84FD491F901E850F94FC491CC23A9F012
:100BE000162F81110E948B05EC2FF0E0EE0FFF1FF6
:100BF000E251F94FA591B4918FB7F894EC9111118E
:100C000008C0D095DE23DC938FBFDF91CF911F9179
:100C10000895DE2BF8CFCF93DF9390E0FC01E45FE3
:100C2000F84F24918850994FFC0184918823C9F092
:100C300090E0880F991FFC01E753FD4FA591B491F7
:100C4000FC01E251F94FC591D49161110DC09FB7DC
:100C5000F8948C91209582238C9388812823288373
:100C60009FBFDF91CF910895623051F49FB7F89400
:100C70003C91822F809583238C93E8812E2BEFCF9C
:100C80008FB7F894EC912E2B2C938FBFEACF3FB700
:100C9000F89480919B0290919C02A0919D02B0914A
:100CA0009E0226B5A89B05C02F3F19F00196A11DF5
:100CB000B11D3FBFBA2FA92F982F8827BC01CD01A6
:100CC000620F711D811D911D43E0660F771F881F04
:100CD000991F4A95D1F708958F929F92AF92BF9234
:100CE000CF92DF92EF92FF926B017C010E94470648
:100CF0004B015C01C114D104E104F104B9F00E947C
:100D00004706681979098A099B09683E734081057D
:100D1000910580F321E0C21AD108E108F10888EEBC
:100D2000880E83E0981EA11CB11CE4CFFF90EF90C9
:100D3000DF90CF90BF90AF909F908F9008952091BB
:100D4000A1023091A2022817390771F490919F02F5
:100D50008091A002981741F0E0919F02F0E0EA5ADA
:100D6000FD4F808190E008958FEF9FEF08950895E3
:100D7000EF92FF920F931F93CF93DF93DC015C966A
:100D8000ED90FC905D97E114F10479F481E090E03E
:100D900013969C938E93129790E080E0DF91CF9111
:100DA0001F910F91FF90EF9008955196ED91FC9156
:100DB000529750968C915097982F90950FB75E96BA
:100DC0002C915E97122F127021FD6095F89420816E
:100DD000112319F1282B2083E7012197F1F728E04F
:100DE000462F50E0308160FF1AC0382B3083E70176
:100DF0002197F1F7BA0175956795215089F711236D
:100E000081F08081892380830FBF5C968D919C91B6
:100E10000197F1F781E090E0C1CF2923DCCF39239E
:100E2000E5CF9081892BEFCF682F8AE495E00C9471
:100E3000B8062091A1023091A2022817390761F467
:100E40008091A00220919F0290E0805C9F4F821BC6
:100E500091098F739927089590E080E0089520917B
:100E6000A1023091A20228173907B9F490919F028C
:100E70008091A002981789F0E0919F02F0E0EA5A71
:100E8000FD4F808120919F0230E02F5F3F4F2F73F5
:100E9000332720939F0290E008958FEF9FEF0895EE
:100EA000DC0150E0EDEBF2E081E0861730F4949144
:100EB000490F511D8F5F3196F8CF633038F0CD0167
:100EC00083709927892B11F44F5F5F4F9D012D5F30
:100ED0003F4F36952795369527956DE671E0A69F8D
:100EE000C001A79F900DB69F900D11240197820F0E
:100EF000931F840F951F08954F925F926F927F9278
:100F00008F929F92AF92BF92CF92DF92EF92FF9219
:100F1000CF93DF93EC016A017B012CE3822E912CAD
:100F2000A12CB12CCB01BA01A50194010E94362A53
:100F30006D83CA01B901A50194010E94362A6C8310
:100F4000C701B60120E13EE040E050E00E94362AB1
:100F5000CA01B90128E130E040E050E00E94362AA1
:100F60006B83C701B60120E831E541E050E00E9403
:100F7000362A188263E9862E6EEF962EAA24AA944A
:100F8000BA2C8881782F7370C12CD12C7601C39430
:100F9000772319F0C12CD12C7601260137019DE66B
:100FA000490E91E0591E611C711C2415350546053A
:100FB000570578F0240135014C185D086E087F084C
:100FC000730162012C0D3D1D4E1D5F1D8F5F8883D7
:100FD000D8CF81E089836981862F8150990BFC01EC
:100FE000E354FD4FE491711103C0623009F4EF5FE7
:100FF0008E2F90E0B0E0A0E0281739074A075B0782
:1010000038F0281B390B4A0B5B0B6F5F6983E3CF0A
:101010002F5F2A83DF91CF91FF90EF90DF90CF90E9
:10102000BF90AF909F908F907F906F905F904F9008
:101030000895FC019F012F5F3F4F80818F7E80329A
:1010400069F080E02AE0919130ED390F3A3040F4B8
:10105000829F900D112480ED890FF5CFF901EACF21
:10106000089520913302260F3327331F2132310593
:10107000ECF420916C04FC0190E080E0243069F0F5
:1010800082E00895A09133022191AC014D5E5D4F45
:10109000A40FB52FB11D2C930196861798F380915C
:1010A0003302680F6093330280E0089581E0089571
:1010B00010926C0481E080934B041092460461E02E
:1010C00082E10E94DD0561E083E10E94DD05E9EB3C
:1010D000F0E080818E7F808380818D7F808380E2BD
:1010E0008093B80085E48093BC0008951092210499
:1010F0001092200410922304109222040E94580897
:1011000088E594E09093CB028093CA0289E594E04D
:101110009093C9028093C8020895CF93DF9391E022
:10112000909312028823B9F0C091B800D091BA0010
:101130008091BC008A7B8093BC0060E082E10E94C9
:10114000DD0560E083E10E94DD050E945808D09330
:10115000BA00C093B800DF91CF910895CF92DF928B
:10116000EF92FF920F931F93CF93DF93D82FC62F49
:10117000613208F098C00E9447066B017C018091A3
:101180006C0481116BC081E080936C0480934B04EC
:101190009FEF90934A04109249049C0F9093480447
:1011A0008093470480914704DD0FD82BD0934704E8
:1011B00080914604813009F078C0109246040E9464
:1011C00047066B017C01809147048093BB008091AE
:1011D0006E0490916F04A0917004B0917104892BFA
:1011E0008A2B8B2BA1F00E94470600916E04109170
:1011F0006F0420917004309171046C197D098E097F
:101200009F09061717072807390708F448C0809177
:10121000BC0083FDD8CF85EC8093BC000E944706BC
:101220006B017C0180916C04813009F440C0809195
:1012300049048C1710F4C0914904E6E2F4E0ACE4F0
:10124000B4E080E08C1355C08C2FDF91CF911F91BB
:101250000F91FF90EF90DF90CF90089580916E04F2
:1012600090916F04A0917004B0917104892B8A2B26
:101270008B2B09F484CF0E94470600916E041091D5
:101280006F0420917004309171046C197D098E09EE
:101290009F09061717072807390708F070CF8091B4
:1012A0006D040E948D08C0E0CFCF85EEB5CF809150
:1012B0006E0490916F04A0917004B0917104892B19
:1012C0008A2B8B2B09F4AECF0E94470600916E0447
:1012D00010916F0420917004309171046C197D0994
:1012E0008E099F09061717072807390708F09ACFB4
:1012F000D6CF91919D938F5FA5CFE09121048091EE
:101300002004E81730F4F0E0E45BFB4F808190E0CC
:1013100008958FEF9FEF089590912104809120040C
:101320002FEF3FEF981748F4E92FF0E0E45BFB4F15
:10133000208130E09F5F90932104C901089580913E
:10134000200490912104891B990B0895CF92DF927C
:10135000EF92FF920F931F93CF93DF937C01CB010A
:101360008A0120912504222389F0EB016B01C40E30
:10137000D51ECC15DD0569F06991D701ED91FC9181
:101380000190F081E02DC7010995F3CF642F0E94F1
:101390003108C801DF91CF911F910F91FF90EF901D
:1013A000DF90CF900895CF93DF931F92CDB7DEB734
:1013B0006983209125042223F9F020912204203210
:1013C00058F021E030E0FC013383228390E080E09C
:1013D0000F90DF91CF91089580912304E82FF0E0E2
:1013E000EE50FE4F998190838F5F8093230480930A
:1013F000220481E090E0ECCF61E0CE0101960E94F2
:101400003108F7CFCF92DF92EF92FF920F931F93A5
:10141000CF93DF93D091220481E0D13208F09CC0B9
:10142000C09124040E9447066B017C0180916C04EA
:1014300081116CC082E080936C0481E080934B0446
:101440008FEF80934A0410924904D0934804A2EF8E
:10145000B1E0E6E2F4E080E0D8138DC010924704DA
:1014600080914704CC0FC82BC09347048091460459
:10147000813009F084C0109246040E9447066B0137
:101480007C01809147048093BB0080916E04909111
:101490006F04A0917004B0917104892B8A2B8B2B5F
:1014A000A1F00E94470600916E0410916F042091F4
:1014B0007004309171046C197D098E099F0906171B
:1014C00017072807390708F442C08091BC0083FD44
:1014D000D8CF85EC8093BC000E9447066B017C014D
:1014E00080916C04823009F44CC080914A048F3F93
:1014F00009F469C080914A04803209F466C0809181
:101500004A04803309F463C084E026C080916E04ED
:1015100090916F04A0917004B0917104892B8A2B73
:101520008B2B09F483CF0E94470600916E04109123
:101530006F0420917004309171046C197D098E093B
:101540009F09061717072807390708F06FCF809102
:101550006D040E948D0885E01092230410922204ED
:1015600010922504DF91CF911F910F91FF90EF9082
:10157000DF90CF9008959D9191938F5F6DCF85EE11
:10158000A9CF80916E0490916F04A0917004B091E6
:101590007104892B8A2B8B2B09F4A2CF0E9447065A
:1015A00000916E0410916F042091700430917104C9
:1015B0006C197D098E099F09061717072807390737
:1015C00008F08ECFC4CF80E0C7CF82E0C5CF83E0E4
:1015D000C3CFCF93DF93EC0180E40E9406046881BF
:1015E00081E295E00E94D30981E295E0DF91CF91FD
:1015F0000C94020ACF93DF93EC01809132050E9494
:1016000006048091300590913105DC01ED91FC914B
:101610000190F081E02D6D2F09958091300590911A
:101620003105DC01ED91FC910190F081E02D6C2FF2
:10163000099580913005909131050E94020A882316
:1016400039F081E88093490580E0DF91CF910895DA
:1016500081E0FBCF0F931F93CF93DF93082F162FBB
:1016600088E60E940604CDE2D5E088819981DC01FC
:10167000ED91FC910190F081E02D602F099588811A
:101680009981DC01ED91FC910190F081E02D612FB9
:101690000995888199810E94020A8A83DF91CF91FE
:1016A0001F910F9108950E94760880E40E9406041D
:1016B00081E295E00E94020A811103C081E08093DB
:1016C000C7028091C702089590E080E008951092CB
:1016D000EE011092EF011092F0011092F1011092C0
:1016E000ED0180917604909177048093B200E0E759
:1016F000F0E080818160808308958F929F92AF9205
:10170000BF92DF92EF92FF920F931F93CF93DF93DD
:1017100000D01F92CDB7DEB78EE00E94B405892BB2
:1017200031F060E070E0CB010E946C06F5CF93E0F1
:10173000D92E812C912C54018394DA948FEFD812F6
:1017400025C061E08FE00E94DD0560E08FE00E942F
:10175000DD0561E08FE00E94DD0560E08FE00E9422
:10176000DD052B81205869817A8190E0822F0F90CE
:101770000F900F90DF91CF911F910F91FF90EF90FD
:10178000DF90BF90AF909F908F90089507E010E09A
:10179000EE24E394F12CEC0EFD1EED0CF11C61E047
:1017A0008FE00E94DD058EE00E94B405B501A40122
:1017B000002E04C0440F551F661F771F0A94D2F7EE
:1017C000F7012081892B51F0422B408360E08FE0AC
:1017D0000E94DD050150110910F7AFCF409542235B
:1017E000F4CFCF92DF92EF92FF920E947D0B0E9486
:1017F0007D0B0E947D0B0E947D0B6B017C010E9482
:101800007D0BC60ED71EE81EF91E0E947D0B6C0DC7
:101810007D1D8E1D9F1D23E030E040E050E00E94C2
:10182000582ACA01B901FF90EF90DF90CF90089538
:10183000CF92DF92EF92FF920F931F930E94F10BD2
:101840000091A6021091A7022091A8023091A9024E
:101850006B017C01C01AD10AE20AF30AA7019601C2
:10186000A8EEB3E00E948C2A209106013091070176
:1018700050E040E00E94582AC9016AE070E00E94EE
:10188000222A70937304609372041F910F91FF904A
:10189000EF90DF90CF9008958EE480937C006BE40E
:1018A00070E080E090E00E946C0680917A00806495
:1018B00080937A0080917A0086FDFCCF8091780039
:1018C00020917900322F282F032E000C440B550B4A
:1018D00064EB7BE281E190E00E94582ACA01B901E1
:1018E00064567109810991090895E0E7F0E080816B
:1018F0008E7F80831092B80160E084E00E94DD0555
:1019000060E087E00E94DD0560E088E00E94DD0580
:1019100060E089E00C94DD05EF92FF920F931F9336
:10192000CF93DF93C82F162F0E94750C8091C602AB
:10193000882329F11F5F08E0C73609F407E0C1E0FA
:10194000D0E0812F8150990B7C0161E0802F0E94B3
:10195000DD0564EF71E080E090E00E946C0660E0DD
:10196000802F0E94DD05EC16FD0631F064EF71E07A
:1019700080E090E00E946C062196C11730F3DF9161
:10198000CF911F910F91FF90EF900895CF93809189
:10199000C602882341F18091B8018823E1F0C0910B
:1019A00004016C2F809105010E94DD0581E0C827AC
:1019B000C09304016091020170910301C11104C040
:1019C000609100017091010190E080E00E94BC03F1
:1019D000CF910C94670B809170008E7F8093700084
:1019E000CF910C94750CCF9108958091C6028823F5
:1019F00099F00E94750C80E293E09093030180932C
:101A0000020180E490E0909301018093000181E065
:101A10008093B8010C94670B0895DC01ED91FC9163
:101A20000190F081E02D0994CF93DF93EC0162E007
:101A300080E40E94AE08109221048093200481E289
:101A400095E00E948C09888381E295E00E948C09D0
:101A5000898381E090E0DF91CF910895DF92EF924A
:101A6000FF920F931F93CF93DF93CDB7DEB72C97E1
:101A70000FB6F894DEBF0FBECDBF88E60E94060405
:101A800080912D0590912E05DC01ED91FC91019046
:101A9000F081E02D60E0099580912D0590912E0553
:101AA0000E94020A80932F05882331F140E050E024
:101AB000BA01CE0101960E947C0786E0FE013196B4
:101AC000DE01179601900D928A95E1F72F813885F6
:101AD00049855A856B857C8580E090E02C960FB611
:101AE000F894DEBF0FBECDBFDF91CF911F910F9154
:101AF000FF90EF90DF90089567E088E60E94AE08BF
:101B000010922104809320048730A1F084E0809318
:101B10002F0540E050E0BA01CE0107960E947C07F5
:101B200086E0FE013796DE01119601900D928A95AE
:101B3000E1F7C3CF80912D0590912E05DC01ED9149
:101B4000FC910284F385E02D09958F77282F30E0F2
:101B5000F4E035952795FA95E1F7922F990F990FB3
:101B6000022F091B000F080F80912D0590912E0563
:101B7000DC01ED91FC910284F385E02D09959C0137
:101B8000A4E035952795AA95E1F72F703327922F7A
:101B9000990F990FF22EF91AFF0CF80E80912D056E
:101BA00090912E05DC01ED91FC910284F385E02DEE
:101BB000099586FF7CC0982F9F71292F30E0E4E0C3
:101BC00035952795EA95E1F7322F330F330F122F12
:101BD000131B110F190F85FD145F80912D05909136
:101BE0002E05DC01ED91FC910284F385E02D099531
:101BF00080912D0590912E05DC01ED91FC910284E0
:101C0000F385E02D09959C0144E0359527954A958B
:101C1000E1F72F703327922F990F990FE22EE91ACF
:101C2000EE0CE80E80912D0590912E05DC01ED91D2
:101C3000FC910284F385E02D0995D82E80912D0525
:101C400090912E05DC01ED91FC910284F385E02D4D
:101C50000995AC0164E0559547956A95E1F74F7099
:101C60005527942F990F990F242F291B220F280FE6
:101C700030E0A9014053584FD7FE02C04C595F4F86
:101C80008D2D8F77405D4F83282F30E094E0359580
:101C900027959A95E1F7922F990F990F291B220FFB
:101CA000280F2887E9861A87FB860C870FCF9C01AF
:101CB00074E0359527957A95E1F72F703327922FA9
:101CC000990F990F122F191B110F180F86CFCF9351
:101CD000C82F88E60E94060480912D0590912E055C
:101CE000DC01ED91FC910190F081E02D6C2F0995C4
:101CF00080912D0590912E050E94020AC82F809395
:101D00002F0581111DC061E088E60E94AE08109287
:101D1000210480932004813031F084E080932F05EA
:101D20008C2FCF91089580912D0590912E05DC0187
:101D3000ED91FC910284F385E02D0995C82FF0CF39
:101D4000C0E0EECF1F93CF93DF938FE00E94670E2A
:101D5000682F6F778FE00E942A0B88E60E940604A6
:101D600080912D0590912E05DC01ED91FC91019063
:101D7000F081E02D60E00995A0912D05B0912E0530
:101D800020912005CAE0822F6C2F0E94022A682F22
:101D9000660F680F660F620FED91FC91119701902D
:101DA000F081E02DCD010995A0912D05B0912E0572
:101DB00020911F05822F6C2F0E94022A682F660F28
:101DC000680F660F620FED91FC9111970190F08101
:101DD000E02DCD010995A0912D05B0912E05209102
:101DE0001E05822F6C2F0E94022A682F660F680F33
:101DF000660F620FED91FC9111970190F081E02D3B
:101E0000CD01099580911B05CCE9C80F10E88436F7
:101E100010F4C82F10E040911D0560911C0590E062
:101E20000E945007069667E070E00E940E2A682F15
:101E3000811101C067E080912D0590912E05DC0194
:101E4000ED91FC910190F081E02D0995A0912D0577
:101E5000B0912E0520911D05DAE0822F6D2F0E9492
:101E6000022A682F660F680F660F620FED91FC91D2
:101E700011970190F081E02DCD01099520911C056D
:101E8000822F6D2F0E94022A682F660F680F660F3F
:101E9000620F862F812B682F70E080912D05909125
:101EA0002E050E940D0DA0912D05B0912E058C2FB1
:101EB0006D2F0E94022A682F660F680F660F6C0F45
:101EC000ED91FC9111970190F081E02DCD010995E4
:101ED00080912D0590912E050E94020A80932F0576
:101EE000DF91CF911F910895EF92FF920F931F936F
:101EF000CF93DF93CDB7DEB728970FB6F894DEBF48
:101F00000FBECDBF80E40E94060481E295E00E94EE
:101F1000020A811142C083EE8887CE0108960E9492
:101F2000E90ACE0101960E94140D29813A813227D7
:101F300023273227A4EAB4E40E947D2A8D549241DB
:101F400064E670E00E94222A6093740485EE8F8319
:101F5000CE0107960E94E90ACE0101960E94140D57
:101F600029813A81322723273227ADE7B0E00E944A
:101F70007D2A0697843678F48093750428960FB6E8
:101F8000F894DEBF0FBECDBFDF91CF911F910F91AF
:101F9000FF90EF90089583E6EFCF86E194E20E94F0
:101FA000FA0A882309F457C064E070E080E090E00A
:101FB0000E946C0666E0809132050E94AE08109285
:101FC000210480932004863009F042C08E010F5F07
:101FD0001F4F7E0187E0E80EF11C80913005909143
:101FE0003105DC01ED91FC910284F385E02D09952A
:101FF000F80181938F01EE16FF0679F7898190E051
:10200000982F88272A81820F911D909348058093ED
:1020100047058C8190E0982F88272D81820F911D94
:1020200090934605809345052FB7F89480919702C9
:1020300090919802A0919902B0919A022FBF80933B
:10204000340590933505A0933605B093370503C04A
:1020500082E880934905609147057091480590E0BA
:1020600080E00E9407292FEA30E04FE25BE30E9404
:10207000952920E030E044E352E40E9464280E9465
:10208000D12860937404609145057091460590E0F5
:1020900080E00E94072928EC30E048EC5AE30E94D7
:1020A00095290E94D8286093750468CFFB010190A0
:1020B0000020E9F73197AF01461B570BDC01ED918A
:1020C000FC910280F381E02D099462E471E08AE4DE
:1020D00095E00C945610CF93DF93BC018AE495E011
:1020E0000E945A04EC010E9465108C0F9D1FDF9125
:1020F000CF9108958F929F92AF92BF920F931F93AB
:10210000CF93DF93CDB7DEB7A1970FB6F894DEBFBC
:102110000FBECDBF19A2423008F44AE08E010F5D18
:102120001F4F842E912CB12CA12CA50194010E944B
:10213000362AE62FB901CA01EA3004F5E05DD8017C
:10214000EE938D01232B242B252B79F790E080E053
:10215000109729F0BD018AE495E00E945610A196DF
:102160000FB6F894DEBF0FBECDBFDF91CF911F91A8
:102170000F91BF90AF909F908F900895E95CDFCF53
:10218000CF93DF934AE00E947A10EC010E94651021
:102190008C0F9D1FDF91CF910895CF92DF92EF9228
:1021A000FF92CF93DF9397FF19C06B017C018DE203
:1021B0000E941407EC0166277727CB016C197D0973
:1021C0008E099F094AE00E947A108C0F9D1FDF91B3
:1021D000CF91FF90EF90DF90CF9008954AE0DF918C
:1021E000CF91FF90EF90DF90CF900C947A10CF9327
:1021F000DF93BC01990F880B990B0E94CD10EC0165
:102200000E9465108C0F9D1FDF91CF910895CF9391
:10221000DF93BC018AE495E00E945610EC010E9415
:1022200065108C0F9D1FDF91CF9108950C9456106F
:10223000EBE1F5E085811F928F9384811F928F934C
:1022400083811F928F93808190E08053984F9F935A
:102250008F9381811F928F9382811F928F9386EC3F
:1022600096E09F938F938CE094E09F938F930E94CE
:102270005C258DB79EB740960FB6F8949EBF0FBEF3
:102280008DBF6CE074E08AE495E00C941611CF9356
:10229000DF93EC0168EB76E08AE495E00E945A0453
:1022A000BE018AE495E00E94161160EB76E08AE4B4
:1022B00095E00E945A048CE693E00E94071190E09A
:1022C00080E0DF91CF910895CF93DF93EC0197FFEA
:1022D00006C066EF70E08CE693E00E94FC24CE011D
:1022E000D7FF03C0919581959109CCE6D3E0099081
:1022F0000020E9F7CD56D34064E670E00E94222A20
:102300009F938F937F936F938EEE90E09F938F9325
:10231000CE0184599C4F9F938F930E945C252DB7CB
:102320003EB7285F3F4F0FB6F8943EBF0FBE2DBF9C
:102330008C0F9D1FDF91CF910895FF920F931F93F4
:10234000CF93DF93EC01F62E08811981C8010E941A
:102350000D28F81621F06F2DC8010E941F28CE010C
:10236000DF91CF911F910F91FF900895EF92FF920F
:102370000F931F93CF93DF9300D0CDB7DEB702E763
:1023800014E0825794407C01C701800F911F9A830B
:102390008983F80161918F01CE0101960E949D1100
:1023A000F4E006371F0781F782E794E00F900F9063
:1023B000DF91CF911F910F91FF90EF900895EF92D1
:1023C000FF920F931F93CF93DF9300D0CDB7DEB76B
:1023D0008C017B019A838983FB016081CE01019688
:1023E0000E949D110F5F1F4F1A830983F7016181BE
:1023F000CE0101960E949D11C7010F900F90DF91B1
:10240000CF911F910F91FF90EF900895CF92DF929F
:10241000EF92FF920F931F93CF93DF93EB017B011A
:1024200024E0E20EF11C8B016C01C61AD70AC6012A
:10243000800F911F0E940D28F80181938F01EE15E6
:10244000FF05A9F7CE01DF91CF911F910F91FF906A
:10245000EF90DF90CF9008950F931F93CF93DF936A
:102460008C01EB010E940D288883C80101960E940F
:102470000D288983CE01DF91CF911F910F9108958F
:10248000CF93DF93EB010E940D288883CE01DF916B
:10249000CF910895CF93DF9300D01F92CDB7DEB7D1
:1024A0001B82BE016D5F7F4F81E090E00E94401271
:1024B0008091AC029091AD022B81222309F476C069
:1024C0008E3E9C4054F41A821982BE016F5F7F4F8A
:1024D00081E090E00E94DF111B828B81882309F448
:1024E00075C08EE00E94670E682F67648EE00E94C0
:1024F0002A0B88E60E94060480912D0590912E05F6
:10250000DC01ED91FC910190F081E02D67E00995EF
:1025100070E060E080912D0590912E050E940D0DD8
:1025200060E870E080912D0590912E050E940D0DC0
:1025300060E870E080912D0590912E050E940D0DB0
:1025400060E870E080912D0590912E050E940D0DA0
:1025500080912D0590912E050E94020A80932F05EF
:102560008FE00E94670E682F6C7F8FE00E942A0B1D
:1025700060E08DE00E94DD050E94750C68E670E069
:102580008AE495E00E945A042FB7F894609197026C
:10259000709198028091990290919A022FBF0E94A7
:1025A000C01060E083E00E94DD05FFCF88349D40CD
:1025B0000CF493CF81E090E09A838983BE016F5F32
:1025C0007F4F0E94DF1181E08B8387CF8EE00E94D6
:1025D000670E8C7B682F64608EE0C8CF85ED80939A
:1025E000BC0080916E0490916F04A0917004B09132
:1025F00071040796A11DB11D23E0B695A795979587
:1026000087952A95D1F72091BC0024FD03C0109234
:102610006C04089540916E0450916F0460917004B1
:1026200070917104452B462B472B69F30097A10548
:10263000B10541F025E12A95F1F700000197A109C4
:10264000B109E1CF80916D040C948D08CF92DF9297
:10265000EF92FF920F931F93CF93DF93EC016A01E8
:102660007B018EE794E00E94DC04181619062CF416
:102670008EE794E00E94BA04F4CF6AEB72E08EE732
:1026800094E00E945A04BE018EE794E00E94161165
:1026900067EB72E08EE794E00E945A041092CC023D
:1026A0002FB7F8948091970290919802A091990287
:1026B000B0919A022FBFC80ED91EEA1EFB1ED0E0B1
:1026C000C0E02FB7F8948091970290919802A09162
:1026D0009902B0919A022FBF8C159D05AE05BF05DA
:1026E000B8F58EE794E00E94DC04181619063CF554
:1026F0008EE794E00E94BA048E010F5F1F4FC4530F
:10270000DD4F8883F801E453FD4F1082003A110534
:1027100054F506301105D4F06EE371E08CEC92E0D4
:102720000E94C32A892B11F565E471E08CEC92E0DC
:102730000E94C32A892B51F081E090E00BC06AE02F
:1027400070E080E090E00E946C068E01E801B9CF55
:102750008FEF9FEFDF91CF911F910F91FF90EF903F
:10276000DF90CF90089582E090E0F4CF90E080E099
:10277000F1CFCF9361E08DE00E940B0661E08DE028
:102780000E94DD056CE271E080E090E00E946C0642
:10279000E0918E04F0918F0482E08083E0918A04BE
:1027A000F0918B041082E0918C04F0918D0487E607
:1027B000808310929604E0919204F091930486E055
:1027C0008083E0919004F091910480818061808306
:1027D000E0919004F0919104808188608083E09181
:1027E0009004F0919104808180688083E09190044E
:1027F000F091910480818F7D808384E491E00E9438
:102800000711C1E06FE471E08AE495E00E941611BF
:1028100048EE53E060E070E084E491E00E9426130B
:10282000029728F40E94651081E0CF910895CA3084
:10283000F1F464E972E08AE495E00E945A0460E0F1
:102840008DE00E94DD056AE174E080E090E00E9486
:102850006C0661E08DE00E940B0661E08DE00E9455
:10286000DD0560E971E080E090E00E946C06CF5FDA
:10287000C53141F680E0D9CFCF93DF938091A50297
:10288000D0E0C0E08823C9F040ED57E060E070E0A0
:1028900081E591E00E94261366E571E08CEC92E000
:1028A0000E94B42A9C012E5F3F4FE9012F3F32075F
:1028B00041F48EEA92E00E946B10CE01DF91CF913D
:1028C0000895FC01E153FD4F4081C90184539D4FA0
:1028D0004C3229F41082DF91CF910C94DE24FC015C
:1028E0001282F9CF8F929F92AF92BF92EF92FF9296
:1028F0000F931F93CF93DF93CDB7DEB72A970FB611
:10290000F894DEBF0FBECDBF84EE90E00E946B1046
:102910000E94180C0E94740F0E942E0D5C836D8320
:102920000091AC021091AD02C801845E9C4069E048
:1029300070E00E94222A7B018AE390E00E940D2829
:102940008F838BE390E00E940D2888878CE390E0D2
:102950000E940D2889878DE390E00E940D288A87C8
:102960008090720490907304092C000CAA08BB0894
:102970008F819885A985BA85881A990AAA0ABB0AFF
:102980008F829886A986BA868CE693E010926C03B3
:1029900000311E4064F425ED30E03F932F939F9368
:1029A0008F930E945C250F900F900F900F908FEBEC
:1029B00092E09F938F938EEC90E09F938F938CE6A1
:1029C00093E09F938F930E945C2580917204909175
:1029D00073040E9464111F9224E12F9321EC30E0D4
:1029E0003F932F9384599C4F9F938F930E945C2514
:1029F000C4010E9464118C018D811F928F938C8180
:102A00001F928F9380EB90E09F938F93C80184591E
:102A10009C4F9F938F930E945C25080F191F8091F4
:102A200074041F928F93809175041F928F9381EA93
:102A300090E09F938F93C80184599C4F9F938F93ED
:102A40000E945C25080F191F8091AC029091AD0285
:102A5000FF24FF92EF9268EE73E00E94222A9B010E
:102A60006AE070E00E94222A7F936F933F932F9336
:102A70008DE890E09F938F93C80184599C4F9F935A
:102A80008F930E945C25080F191F0FB6F894DEBFC4
:102A90000FBECDBF0E943C147C01FF928F9384E84F
:102AA00090E09F938F93C80184599C4F9F938F937D
:102AB0000E945C25800F911F84599C4F0F900F90AE
:102AC0000F900F900F900F902AE0E216F104ECF4B3
:102AD00020E830E03F932F939F938F930E945C25D3
:102AE0000F900F900F900F902A960FB6F894DEBFBC
:102AF0000FBECDBFDF91CF911F910F91FF90EF904F
:102B0000BF90AF909F908F9008952EE0E216F10451
:102B10001CF42DE730E0DECF23E1E216F1041CF4D3
:102B200028E730E0D7CF2EE630E0D4CF8F929F92C7
:102B3000AF92BF92CF92DF92EF92FF920F931F93CB
:102B4000CF93DF93CDB7DEB72D970FB6F894DEBFE6
:102B50000FBECDBF8091A502811115C010E0812F5D
:102B60002D960FB6F894DEBF0FBECDBFDF91CF918B
:102B70001F910F91FF90EF90DF90CF90BF90AF909B
:102B80009F908F90089540ED57E060E070E089E5F8
:102B900091E00E942613892B09F764E671E08CEC22
:102BA00092E00E942825FE01319687E0DF011D9208
:102BB0008A95E9F78F017E01B8E0EB0EF11C60E623
:102BC00071E090E080E00E9428250E94DE24F80158
:102BD00081938F01EE15FF0591F79E812D813C8138
:102BE0004B816A81898180931B0560931C0540930A
:102BF0001D0530931E0520931F05909320059F818E
:102C000020E13EE0929F6001939FD00C11240D2C97
:102C1000000CEE08FF0890E00E9450079C01A8E11C
:102C2000B0E00E947D2A20911E054B015C01820EBE
:102C3000911CA11CB11CA5019401ACE3B0E00E9461
:102C40008C2A20911F054B015C01820E911CA11C56
:102C5000B11CA50194010E948C2A20912005C20E6E
:102C6000D11CE11CF11CAB01BC014C0D5D1D6E1DA6
:102C70007F1DC8010E947C0786E0F801ABE1B5E04A
:102C800001900D928A95E1F70E941004182F882375
:102C900009F465CF0E94A20E81EA92E00E946B10B7
:102CA0005ECFCF92DF92EF92FF92CF93DF930E949D
:102CB0004C0CCAE0D0E068347D40810591050CF4ED
:102CC00071C00E94F50C0E94B913C1E0D0E08823C6
:102CD00009F468C08AE892E00E946B1048E853E16A
:102CE00060E070E086E691E00E942613019609F408
:102CF0004BC064EC71E08CEC92E00E940E25892BB5
:102D000069F467EB71E08CEC92E00E940E25C3E061
:102D1000D0E0892BD9F1C2E0D0E038C089E792E059
:102D20000E946B108BE592E00E946B10C12CD12C9D
:102D30007601C0E040ED57E060E070E08DE691E0A4
:102D40000E9426130196B1F580E592E00E946B1077
:102D500068EE73E080E090E00E946C068FEFC81A86
:102D6000D80AE80AF80A2EE1C216D104E104F104F7
:102D700009F7CB7FC13009F44CC063E082E70E94C1
:102D80008C0CC5E0D0E00EC0C1E0D0E00E94750C14
:102D900061E872E08AE495E00E945A0462E082E70A
:102DA0000E948C0CCE01DF91CF91FF90EF90DF90CD
:102DB000CF90089564E771E08CEC92E00E94C32A02
:102DC000CFEF892B51F06AE370E08CEC92E00E9427
:102DD000A22A04960E94DE24C82F6BE472E08AE4E3
:102DE00095E00E945A044AE0C701B6010E947A1099
:102DF00061E472E08AE495E00E945A0482E392E082
:102E0000CC2309F4A3CFC13011F589E192E00E94EF
:102E10006B108DE692E00E946B100E943C14909320
:102E2000EC018093EB0167E672E08AE495E00E9492
:102E30005A048091EB019091EC010E94F71081E01F
:102E40008093A5020E94750CD0E0C0E0ABCF80E07B
:102E500092E0C23009F47ACF8CEE91E0C33009F4ED
:102E600075CFC53019F488ED91E0D1CF80ED91E0B8
:102E70006DCFCF92DF92EF92FF920F931F93CF937C
:102E8000DF9300D0CDB7DEB76B017A01BC0189EBCF
:102E900091E00E94AD2A01E010E029EB31E0AE01A3
:102EA0004F5F5F4FB601C9010E942D25009739F091
:102EB0000F5F1F4F30E020E0E016F10684F70F901F
:102EC0000F90DF91CF911F910F91FF90EF90DF90C6
:102ED000CF900895CF93DF9340ED57E060E070E02E
:102EE0008AE791E00E942613EC01CF3FDC07A1F0B6
:102EF00043E050E063E471E08CEC92E00E9439170B
:102F0000BC018CE693E00E94AD2A81E0CD2B09F450
:102F100080E0DF91CF91089581E0FBCF1F93CF93A5
:102F2000DF9310926C0368EF70E08AE495E00E94F2
:102F30005A048AE495E00E941907EC01892B29F0D4
:102F40008AE495E00E942F07F4CF8AE495E00E947E
:102F50001907892B39F462E370E080E090E00E9469
:102F60006C06F3CF8AE495E00E942F07182F0E9489
:102F70001407133309F464C084F4113349F1123394
:102F800009F44DC0103379F667E571E08AE495E005
:102F9000DF91CF911F910C945A04143309F472C03D
:102FA000193381F765E671E08AE495E00E945A04DE
:102FB0008AE495E00E941907892B09F075C062E345
:102FC00070E080E090E00E946C06CE01EC01F0CF52
:102FD0006CEA71E08AE495E00E945A0463EA71E0C9
:102FE0008CE693E00E9407258FE791E00E9447114D
:102FF000EC016BE971E08AE495E00E945A046CEC04
:1030000072E08AE495E00E94161163E971E08AE4B7
:1030100095E00E945A04CE010E94F71084CF0E94CE
:103020003C149093EC018093EB016DE871E08AE42D
:1030300095E00E945A048091EB019091EC01ECCF55
:103040000E9496158823B9F00E942E0D20931B052F
:1030500030931C0540931D0550931E0560931F057A
:10306000709320056CE771E08AE495E00E945A04B1
:103070000E94181158CF65E771E08AE495E00E943C
:103080005A0451CF6FE671E08AE495E00E945A0439
:103090000E946A17811105C08CE693E00E94071117
:1030A00042CF69E671E0E9CF8AE495E00E942F07FC
:1030B000182F0E9414071D3021F0FE01E453FD4F2C
:1030C0001083CE0101961D3009F080CFC453DD4F2F
:1030D00018826CE871E08AE495E00E9416118CEC8D
:1030E00092E00E94071140E157E260E070E08CEC52
:1030F00092E00E942613EC0164E971E08AE495E015
:103100000E941611CE010E94F7106DE571E08AE46D
:1031100095E00E945A046CEC72E08AE495E00E940B
:10312000161101CF0F931F93CF93DF9300D0CDB72C
:10313000DEB710926C038AE495E00E941907181616
:103140001906CCF78AE495E00E942F078C011A82B9
:10315000198289830D9759F0BE016F5F7F4F8CE60E
:1031600093E00E94972A802F0E941407E4CF70E01A
:1031700060E08CE693E00E94972A80E00F900F9029
:10318000DF91CF911F910F9108951F920F920FB66B
:103190000F9211242F933F934F935F936F937F93DD
:1031A0008F939F93AF93BF93EF93FF938EE794E03A
:1031B0000E94FC04FF91EF91BF91AF919F918F917D
:1031C0007F916F915F914F913F912F910F900FBE23
:1031D0000F901F9018951F920F920FB60F92112407
:1031E0002F938F939F93EF93FF93E0918E04F09131
:1031F0008F048081E0919404F091950482FD1BC0BE
:103200009081809197048F5F8F732091980482172B
:1032100041F0E0919704F0E0E258FB4F958F8093E6
:103220009704FF91EF919F918F912F910F900FBE77
:103230000F901F9018958081F4CF1F920F920FB6B8
:103240000F9211242F933F938F939F93AF93BF932C
:103250008091970290919802A0919902B0919A0260
:103260003091960226E0230F2D3758F50296A11DC6
:10327000B11D209396028093970290939802A09399
:103280009902B0939A0280919B0290919C02A09126
:103290009D02B0919E020196A11DB11D80939B02DB
:1032A00090939C02A0939D02B0939E02BF91AF9118
:1032B0009F918F913F912F910F900FBE0F901F9074
:1032C000189529E8230F0396A11DB11DD2CF1F9297
:1032D0000F920FB60F9211242F933F934F935F934A
:1032E0006F937F938F939F93AF93BF93EF93FF93CE
:1032F000E091A102F091A202309749F0A685B7852E
:103300008585968D91FF14C09C918923A1F4FF912E
:10331000EF91BF91AF919F918F917F916F915F914D
:103320004F913F912F910F900FBE0F901F901895C6
:103330009C91892361F7A389B4899C9185898095A3
:1033400089238C93868997890197F1F7608D718D18
:10335000A685B785558538E020E0CB010197F1F7C8
:10336000822F90E095958795282F4C91452309F061
:103370002068315091F7868D81FD20958091A002C3
:1033800090E001968F73992730919F02381799F03A
:10339000A091A002B0E0AA5ABD4F2C938093A00246
:1033A000828D938D0197F1F7A389B4898C919589CA
:1033B000892B8C93ACCF868D8160868FF1CF1F9245
:1033C0000F920FB60F9211242F933F934F935F9359
:1033D0006F937F938F939F93AF93BF93EF93FF93DD
:1033E0008091B900887F803609F44AC0F0F58832B0
:1033F00009F4A7C018F5803109F49BC0B8F48823FC
:1034000009F4F9C0883009F494C0FF91EF91BF919D
:10341000AF919F918F917F916F915F914F913F916C
:103420002F910F900FBE0F901F901895883109F4BF
:1034300088C0803251F780934A0414C0803409F464
:103440009DC040F48033B9F38833F9F680934A0481
:1034500085ECB0C0803509F485C0883509F496C084
:10346000883499F60E94EE12D0CF883909F48CC0C6
:1034700038F5883729F050F4883611F0803729F66E
:1034800083E080936C041092550257C0883809F489
:103490007BC0803919F0803809F0B7CF8091550290
:1034A000803208F071C0E091550281E08E0F809368
:1034B00055028091BB00F0E0EB5CFD4F80833DC086
:1034C000803B39F0E0F4803A09F479C0883A09F099
:1034D0009CCF84E080936C041092340210923302EB
:1034E000E091CA02F091CB020995809133028111DB
:1034F0000FC081E0809333021092130209C0803C18
:1035000009F4A6CF883C09F4A3CF883B09F07DCF0E
:10351000E091340281E08E0F80933402F0E0ED5EA2
:10352000FD4F80818093BB009091340280913302E3
:1035300029C0809147048093BB0085EC8093BC0038
:1035400064CF9091490480914804981758F5E09110
:10355000490481E08E0F80934904F0E0EA5DFB4F5F
:103560008081E9CFE091490481E08E0F8093490486
:103570008091BB00F0E0EA5DFB4F808390914904AD
:10358000809148049817C8F285E8D8CFE0914904A3
:1035900081E08E0F809349048091BB00F0E0EA5DEA
:1035A000FB4F808380914B0481115CCF81E080933D
:1035B000460484EA8093BC0010926C0426CF85EC0C
:1035C0008093BC0010926C0480915502803230F4DC
:1035D000E0915502F0E0EB5CFD4F108260915502E6
:1035E00070E0E091C802F091C90285E392E009958C
:1035F000109255020ACF10924A0434CF1F920F92B4
:103600000FB60F9211242F933F934F935F936F93B5
:103610007F938F939F93AF93BF93EF93FF9380918B
:103620007604909177048093B2008091EE0190919E
:10363000EF01A091F001B091F1010196A11DB11D22
:103640008093EE019093EF01A093F001B093F1010C
:103650008091EE019091EF01A091F001B091F10104
:1036600040917A0450917B0460917C0470917D04B8
:1036700084179507A607B70710F18091ED01811116
:103680001EC081E08093ED018091EE019091EF01E9
:10369000A091F001B091F101841B950BA60BB70B23
:1036A0008093EE019093EF01A093F001B093F101AC
:1036B000E0917804F091790409951092ED01FF9161
:1036C000EF91BF91AF919F918F917F916F915F919A
:1036D0004F913F912F910F900FBE0F901F90189513
:1036E000109281041092800488EE93E0A0E0B0E094
:1036F0008093820490938304A0938404B093850400
:103700002CE031E030937F0420937E0425EC30E000
:1037100030938B0420938A0424EC30E030938D04A2
:1037200020938C0420EC30E030938F0420938E049F
:1037300021EC30E0309391042093900422EC30E0AF
:10374000309393042093920426EC30E03093950458
:103750002093940410929704109298041092990464
:1037600010929A0410922405109223058093250547
:1037700090932605A0932705B09328052EE131E00C
:10378000309322052093210510924D0510924C058F
:1037900080934E0590934F05A0935005B09351052B
:1037A00080E391E090934B0580934A051092610568
:1037B00010926005109263051092620510926505E3
:1037C0001092640510926705109266056091680575
:1037D0006E7F6D7F609368056695617081E06827F4
:1037E00086E00E94DD0561E086E00E940B06E2E1D2
:1037F000F7E0E491E0935A05EEEFF6E0E491F0E0B3
:10380000EE0FFF1FE251F94F8591949190935C0563
:1038100080935B0560E085E00E940B06809168055F
:1038200081FD04C061E085E00E94DD0585E08093B4
:103830005605E1E1F7E0E491E0935705EDEFF6E09E
:10384000E491F0E0EE0FFF1FEC51F94F8591949158
:1038500090935905809358051092320510923405C3
:1038600010923505109236051092370510924805D2
:1038700010924705109246051092450510923305A7
:1038800010923C0510923D0510923E0510923F05A6
:103890001092400510924105109242051092430586
:1038A000109244051092490581E295E090932E050F
:1038B00080932D0510922F0540E050E0BA018BE176
:1038C00095E00C947C07CF93DF9300D000D000D01C
:1038D0001F92CDB7DEB7789484B5826084BD84B57D
:1038E000816084BD85B5826085BD85B5816085BDFB
:1038F00080916E00816080936E00109281008091B3
:10390000810082608093810080918100816080933A
:103910008100809180008160809380008091B1005F
:1039200084608093B1008091B00081608093B0008A
:1039300080917A00846080937A0080917A0082601E
:1039400080937A0080917A008E7F80937A008091B4
:103950007A00806880937A001092C10061E083E071
:103960000E940B0661E083E00E94DD0561E088E0D3
:103970000E940B0660E088E00E94DD0561E087E0C0
:103980000E940B0660E087E00E94DD0561E084E0B4
:103990000E940B0660E084E00E94DD0561E089E0A2
:1039A0000E940B0660E089E00E94DD0562E082E093
:1039B0000E940B0610926505109264051092630533
:1039C0001092620510926105109260058DEC90E0F6
:1039D000909367058093660590915605963108F09F
:1039E00047C025E530E030936105209360052BEC5E
:1039F00030E0309363052093620520E930E0309396
:103A00006505209364052091680084E0983048F0B3
:103A100031E09E3008F430E081E001C0880F3A9533
:103A2000EAF7822B809368002DE630E0983050F062
:103A30002BE630E09E3030F02CE630E0963110F08E
:103A400030E020E030935E0520935D05292F30E0C3
:103A5000983008F074C081E001C0880F9A95EAF7A9
:103A600080935F0580916605909167050197F1F756
:103A70008091640590916505892B49F1E091A1023F
:103A8000F091A20225E0EA34F20709F1309739F00B
:103A9000A389B4899C918589809589238C93809191
:103AA00068058E7F809368051092A00210929F0295
:103AB0008AE495E09093A2028093A102E0915D05D3
:103AC000F0915E05808190915F05892B808382E073
:103AD0000E94B405892B09F059C061E087E00E947B
:103AE000DD0581E08093C6028093C50200E063E0BB
:103AF000F62E82E00E94B405892B09F047C00233FC
:103B000008F40F5F68EC70E080E090E00E946C06C3
:103B10008EE20E9414070C30F9F460E087E00E9406
:103B2000DD0568EC70E080E090E00E946C0661E0EA
:103B300087E00E94DD0582E08093C502DACF9E30E7
:103B400040F42850310981E001C0880F2A95EAF736
:103B500087CF2E503109F7CF083159F460E087E064
:103B60000E94DD0561E084E00E94DD05F092C5025F
:103B7000C0CF083209F0BDCF60E084E00E94DD05CF
:103B800061E089E00E94DD0584E0D6CF0E947608DE
:103B90000E94530B84E48093320581E295E0909378
:103BA0003105809330050E94760882EA90E30E94F6
:103BB000FA0A882331F061E070E080E090E00E9432
:103BC0006C0645E050E062E870E08FEB92E00E9406
:103BD000FD278091BF028F3F11F50E94B913882302
:103BE00009F435C10E946A17811131C166E773E09B
:103BF0008CE693E00E94AD2A83E580936C0345E058
:103C000050E062E870E08CE693E00E94152845E001
:103C100050E062E870E08FEB92E00E94FD274FE0F9
:103C200050E068E870E08EEA92E00E94FD27109272
:103C3000BD028091AE028F3F09F010C160EA76E0CC
:103C40008CEC92E00E9407250E944C0C7093AD0210
:103C50006093AC026C3A7D4034F461E976E08AE42A
:103C600095E00E945A040E942E0D20931B0530936C
:103C70001C0540931D0550931E0560931F0570930E
:103C800020058091C502882309F485C06CE876E0A0
:103C90008AE495E00E945A0460EA71E08AE495E0C3
:103CA0000E94161164EA71E08AE495E00E94161100
:103CB00060E876E08AE495E00E945A046AE776E0DC
:103CC0008AE495E00E945A046FEB72E08AE495E082
:103CD0000E94161161E776E08AE495E00E945A049A
:103CE0006CEC72E08AE495E00E9416116AE676E0D8
:103CF0008AE495E00E945A048091AC029091AD0252
:103D000058EEE52E53E0F52EB7010E94222A072E29
:103D1000000C880B990B0E94CD1068E676E08AE4CF
:103D200095E00E945A048091AC029091AD02B701D7
:103D30000E94222A8436910534F462EA71E08AE412
:103D400095E00E9416118091AC029091AD0268EE50
:103D500073E00E94222A0A9734F462EA71E08AE44E
:103D600095E00E9416118091AC029091AD0268EE30
:103D700073E00E94222ABC01990F880B990B0E94C4
:103D8000CD106FE576E08AE495E00E945A040E9427
:103D900018110E94651064EF71E080E090E00E94CD
:103DA000BC03809170008E7F8093700060E087E09C
:103DB0000E94DD050E942E0D20931B0530931C05EB
:103DC00040931D0550931E0560931F0570932005B9
:103DD0005093AB026093AA028EE290E00E940D28FD
:103DE0008093A6028FE290E00E940D288093A702A4
:103DF00080E390E00E940D288093A80281E390E088
:103E00000E940D288093A90266E071E086E390E0AD
:103E10000E942C1261E08FE00E940B0660E08EE0B1
:103E20000E940B0660E08FE00E94DD050E94740F87
:103E30000E94180C8091C502823009F4BBC1A8F41D
:103E40008823B1F1813009F4A7C10E944A1245E0EC
:103E500050E062E870E08AE991E0D7CE6EEA72E065
:103E60008CEC92E00E94AD2AEFCE833009F4D8C1E9
:103E7000843059F789E0809305010E945116892BFF
:103E800009F07AC261E089E00E94DD0562E975E02F
:103E90008AE495E00E945A048AE495E00E9419079A
:103EA000892B09F4E9C28AE495E00E942F07F4CF38
:103EB000BE01695F7F4F89E090E00E9440126091EF
:103EC000AA028F81681709F44AC089E090E09A83BA
:103ED0008983CE0101960E949D11BE016B5F7F4FC9
:103EE00082E390E00E942C12E0907204F090730440
:103EF0008D819E81E81AF90A63EA72E08AE390E014
:103F00000E942C1262E774E082E390E00E94DF11CD
:103F10008091AA02811109C08091AB02863009F01C
:103F20004EC089E990E00E94B6118091AB028431C5
:103F300021F48091AA02882349F04DE9E4164FEF5D
:103F4000F4066CF48091C602811109C08091AE0222
:103F50008F3F09F04DC08CE793E00E946B10809179
:103F600075041F928F93809174041F928F93809198
:103F7000AA021F928F938091AB021F928F9382E3CC
:103F800096E09F938F938CE693E09F938F930E948C
:103F90005C2580917204909173040E94641160E327
:103FA00076E08CE693E00E94FC248CE693E00E948D
:103FB00007110FB6F894DEBF0FBECDBF46CF8C30D1
:103FC00019F48DE990E0AFCF8E3019F481EA90E0DA
:103FD000AACF803119F485EA90E0A5CF843109F0A9
:103FE000A4CF62E774E08AE390E00E94DF119DCFE6
:103FF00085E693E00E946B108091A502811102C0BA
:104000000E9451168091A502882309F4A8CF0E942E
:1040100072140CE613E0F80101900020E9F78F011B
:104020000D5613408091AB02980124593C4F690111
:10403000843109F09FC019821A821B821C82BE0142
:104040006F5F7F4F89E990E00E94061289819A8113
:104050002C811F922F932B811F922F9344E6E42EE5
:10406000F12CB7010E94222A9F938F937F936F9325
:1040700082E593E09F938F93DF92CF920E945C251D
:10408000080F191F62E774E08DE990E00E940612A4
:1040900089819A812C811F922F932B811F922F93BC
:1040A000B7010E94222A9F938F937F936F938EE391
:1040B00093E09F938F93C80184599C4F9F938F9354
:1040C0000E945C25080F191F62E774E081EA90E006
:1040D0000E94061289819A812C811F922F932B8135
:1040E0001F922F93B7010E94222A9F938F937F9351
:1040F0006F938AE293E09F938F93C80184599C4FFA
:104100009F938F930E945C25080F191F0FB6F89498
:10411000DEBF0FBECDBF62E774E085EA90E00E948B
:10412000061289819A812C811F922F932B811F92D5
:104130002F93B7010E94222A9F938F937F936F93AF
:1041400086E193E09F938F9304591C4F1F930F9325
:104150000E945C250E9496150FB6F894DEBF0FBE34
:10416000CDBF8EEA92E00E944711892B91F485EF32
:1041700092E0F3CE64E073E0C9010E94FC24C70121
:104180000E94641161E073E084599C4F0E94FC24FA
:10419000E8CF87EE92E0E1CE6CE271E080E090E063
:1041A0000E946C068091AE0261E08F3F09F0E0C092
:1041B00082E7DFC087E296E00E946B108091AE023A
:1041C0008F3F31F48CEA93E00E946B1061E0F0CFF6
:1041D00087E0809305018091A502811102C00E94B1
:1041E00051168091A502882309F42FCE0E949615BE
:1041F0000E9472148EEA92E00E944711892B49F4C2
:1042000061E087E60E948C0C82E993E00E946B10CB
:104210001CCE63E082E70E948C0C8EE993E0F6CF1F
:1042200080E296E00E946B100E94F10B6093A60260
:104230007093A7028093A8029093A90261E084E0A2
:104240000E94DD0568E97AE380E090E00E946C0658
:1042500060E084E00E94DD050E94F10B6B017C01AF
:104260006DED73E08AE495E00E945A046091A60225
:104270007091A7028091A8029091A9024AE00E9441
:104280007A1064ED73E08AE495E00E945A04C70155
:10429000B6010E94CD106CEC73E08AE495E00E94B8
:1042A0005A048091A6029091A702A091A802B09111
:1042B000A902A7019601281B390B4A0B5B0BCA0107
:1042C000B9010E94C0108091A6029091A702A0910E
:1042D000A802B091A902B701A601481B590B6A0BAD
:1042E0007B0B403D574061057105E8F463E082E7D0
:1042F0000E948C0C66EC73E08AE495E00E945A04FC
:104300008091A6029091A702A091A802B091A90263
:10431000A7019601281B390B4A0B5B0BCA01B90197
:104320000E94C01092CDC81AD90AD0920701C0923B
:10433000060183EC93E00E946B1036EAE32E32E034
:10434000F32E0EE210E01A830983F70161917F01D9
:10435000CE0101960E949D110F5F1F4F0233110580
:1043600091F766E071E086E390E00E94DF1162E081
:1043700087E60E948C0C69CD60E47FE180E090E0EC
:104380000E946C060E94F50C88E0809305017ECDAA
:1043900090E080E07C018EE794E00E94DC04181637
:1043A00019060CF077C040ED57E060E070E08AEA53
:1043B00091E00E942613892B09F06CC062E270E044
:1043C0008CEC92E00E94A22A009709F463C0B0929C
:1043D000CC02FC013196ADECB2E021E030E08191FD
:1043E000823209F452C08D932F5F3F4F2F30310539
:1043F000B1F78CEC92E0FC0101900020E9F7CF01CD
:10440000835D92400B9708F045C06CEC72E08EEA39
:1044100092E00E94AD2A41E150E068E870E08EEA47
:1044200092E00E9415280E9465106EEA72E08AE40C
:1044300095E00E94161186EE93E00E946B1060E0FA
:1044400089E00E94DD0562E087E60E948C0C60EA4C
:104450007FE080E090E00E946C0640ED57E060E075
:1044600070E080EB91E00E94261360EA7FE080E03C
:1044700090E00E946C06E9CCF12CE12C9BE2B92E75
:104480002CE6C22E23E0D22E86CF24533D4FF901D5
:104490001082AFCF8AE495E00E941907892BA9F416
:1044A00062E370E080E090E00E946C06C701019634
:1044B000F9EBEF16FBE0FF0609F06CCF65E176E063
:1044C0008AE495E00E945A04C0CC8AE495E00E94F8
:1044D0002F077C01082F0E941407FF2423E3E21614
:1044E000F10409F4B4C0CCF441E3E416F10409F199
:1044F00052E3E516F10409F46BC062E975E08AE461
:1045000095E00E945A04063309F042CF60E089E04A
:104510000E94DD0580E196E079CE84E3E816F1049F
:1045200009F45FC195E3E916F10439F70E948E178B
:10453000E4CF65E374E08AE495E00E945A04809138
:10454000AE028F3F49F56CE274E08AE495E00E9488
:104550005A046CE174E08AE495E00E945A040E94D7
:104560009218F60101900020E9F7CF018D56934093
:1045700066E074E0429758F480916C03811113C097
:104580006FEF88E890E00E941F2866EF73E08AE4EE
:1045900095E00E945A04B1CF6EEA72E08AE495E099
:1045A0000E941611D6CF40EA50E068E870E08CE631
:1045B00093E00E9415280E9465106CE673E08AE47F
:1045C00095E00E9416118EEE93E00E946B1095CF3D
:1045D00063E774E08AE495E00E945A046FEB72E0AE
:1045E0008AE495E00E94161168E674E08AE495E09A
:1045F0000E945A040E949218F60101900020E9F7E7
:10460000CF018D569340069718F060E474E0BFCF59
:1046100080916C03811108C06FEF82E890E00E94E6
:104620001F286CE574E0B3CF40EA50E062E870E028
:104630008CE693E00E9415280E9465106CE673E0FA
:104640008AE495E00E94161184E594E0BECF0E94B2
:104650002E0D20931B0530931C0540931D05509390
:104660001E0560931F05709320058AE00E941407C1
:104670000E9465100E9418116DEA74E08AE495E0CA
:104680000E945A040E949218F60101900020E9F756
:10469000CF018D5693406EE974E0479708F077CFCD
:1046A00041E050E066EB71E08CE693E00E94391740
:1046B000BC018CEC92E00E94AD2A42E050E066EB37
:1046C00071E08CE693E00E943917BC0189ED92E01D
:1046D0000E94AD2A85ED92E00E941908782EE091A3
:1046E000CC02E154E33108F02CC00E2E000CFF0B7D
:1046F000E458FC4D0C94772A9B23A123A123D423B7
:10470000A123D623A123A123A1238F23A123A12366
:10471000C723D223D023A123A123A123CE23809179
:10472000CD0211E0813669F08091CE0216E08E361E
:1047300041F017E006C08091CD0214E0803709F007
:1047400018E080ED92E00E941908A82E89ED92E011
:104750000E941908E82E8CED92E00E941908F82EAC
:104760008FED92E00E94190870921B0510931C05B2
:10477000A0921D05E0921E05F0921F058093200572
:104780000E941004811114C08FE894E01ECF809124
:10479000CE0213E08237A9F215E0D3CF19E0D1CFD2
:1047A0001AE0CFCF1BE0CDCF1CE0CBCF12E0C9CFBA
:1047B0000E94A20E0E942E0D20931B0530931C0513
:1047C00040931D0550931E0560931F0570932005AF
:1047D0006EE774E08AE495E00E945A040E94181182
:1047E0008CCE64E275E08AE495E00E945A04F12CD4
:1047F000E12C412C512C32014394842D0E9406045B
:1048000081E295E00E94020A811175C064E075E0C2
:104810008AE495E00E945A04FFE0F41518F080E362
:104820000E94140740E1C301B2010E947A102FEFE9
:10483000E21AF20A4FEF441A540A640A740A5FE754
:104840004516510461047104C1F6EF2831F462ED9C
:1048500074E08AE495E00E945A0466E875E08AE410
:1048600095E00E945A048EE00E94670E87FD5AC0B0
:1048700080912F05811156C066E775E08AE495E0C6
:104880000E945A040E942E0D20931B0530931C0594
:1048900040931D0550931E0560931F0570932005DE
:1048A0000E94181184E491E00E94071168E675E007
:1048B0008AE495E00E945A040E94530B811139C08A
:1048C00083E695E00E946B1068E475E08AE495E069
:1048D0000E945A0469E375E08AE495E00E945A0454
:1048E0006DE375E08AE495E00E945A040E948E17F9
:1048F00062E975E04CCE843009F09CCF68EE74E03C
:104900008AE495E00E945A043FE0341518F080E3F1
:104910000E94140740E1C301B2010E947A100E9474
:10492000651088CF61E875E08AE495E00E945A043A
:10493000B9CF6FE575E08AE495E00E945A040E94C1
:10494000740F6AE575E08AE495E00E945A0460916C
:10495000750470E090E080E04AE00E947A1065E51E
:1049600075E08AE495E00E945A046091740470E056
:1049700090E080E04AE00E947A108EEA91E00E9486
:104980000711A2CF80E391E090934B0580934A05F5
:104990008091A1029091A2028A54954071F4E09115
:1049A0005D05F0915E05908180915F05809589237A
:1049B00080831092A2021092A1020895FC01882720
:1049C0009927E89421912032E9F3293010F02E3014
:1049D000C8F32B3241F02D3239F4689404C00E94A0
:1049E0005425820F911D219120532A30C0F31EF4CB
:1049F000909581959F4F0895FB01DC010D9000205B
:104A0000E9F7119705900D920020E1F70895FB0159
:104A1000DC0105900D920020E1F70895FB0155910E
:104A20005523A9F0BF01DC014D9145174111E1F774
:104A300059F4CD010590002049F04D9140154111E8
:104A4000C9F3FB014111EFCF81E090E00197089598
:104A500049E655E00E942D250895FA01A191B08103
:104A6000009719F41097E1F0CD01DC01CD010D9014
:104A7000002011F4C00113C0FB012191222319F081
:104A80002015D9F7F3CFFB012191201519F41E92BF
:104A9000119606C02223C1F70D900020A1F7D00186
:104AA000FA01A193B08308957AE0979F902D879F94
:104AB000802D910D11240895AEE0B0E0E2E6F5E21C
:104AC0000C943B280D891E898EE08C831A83098300
:104AD0008FEF9FE79E838D83AE01475E5F4F6F89A7
:104AE000788DCE0101960E947F252F813885020F97
:104AF000131FF80110822E96E4E00C945728ABE0C7
:104B0000B0E0E5E8F5E20C942D287C013B018A0138
:104B1000FC0117821682838181FFC8C1CE010196F4
:104B20005C01F7019381F30193FD859193FF8191DE
:104B30003F01882309F453C1853239F493FD8591EF
:104B400093FF81913F01853229F4B70190E00E94E3
:104B50006F27E7CF912C212C312CFFE1F31538F092
:104B60008B3211F190F4803209F1833229F137FC54
:104B70003CC020ED280F2A3050F536FE20C08AE0D8
:104B8000989E200D1124922E06C08D3291F0803314
:104B900071F7689430F8F30193FD859193FF81914B
:104BA0003F018111DACF21C0689431F8689432F85E
:104BB000F2CF689433F8EFCF689434F8ECCFEAE0A2
:104BC0002E9E200D1124222E689435F8E4CF8E32CB
:104BD00029F436FC04C1689436F8DDCF8C3619F41C
:104BE000689437F8D8CF8836B1F2982F9F7D9554C6
:104BF0009330E0F08336A1F18337C1F1833509F0BA
:104C000063C02801F2E04F0E511CF801C080D18032
:104C1000692D70E036FC02C06FEF7FEFC6010E9485
:104C200059274C01689437F882010AC00C5F1F4F66
:104C3000FFE3F98388248394912C6501E89437F885
:104C400033FE2DC0522C8114910471F5552009F4C6
:104C500068CFB70180E290E00E946F275A94F6CFA8
:104C6000F801808189830E5F1F4FE4CF2801F2E0B5
:104C70004F0E511CF801C080D180692D70E036FCC8
:104C800002C06FEF7FEFC6010E9464274C018201D2
:104C9000D5CFB70180E290E00E946F272A942814B4
:104CA000190409F0B0F7CECFF60137FC859137FE35
:104CB00081916F01B70190E00E946F2751105A94C3
:104CC000F1E08F1A9108BFCF843619F0893609F0C8
:104CD00077C0F80137FE6BC060817181828193815A
:104CE0000C5F1F4FF32DFF763F2E97FF09C0909565
:104CF0008095709561957F4F8F4F9F4F689437F8DF
:104D00002AE030E0A5010E949F27C82ECA188C2CEB
:104D1000432C36FE0CC0E89440F8C91440F434FE2D
:104D200005C032FC03C0F32DFE7E4F2E892C44FEBD
:104D300095C0FE01EC0DF11D8081803309F087C024
:104D4000242D297E422E842D8870582E43FC95C038
:104D500040FE8FC09C2C821418F42C0C922C9818B6
:104D600044FE91C0B70180E390E00E946F2742FEAD
:104D700009C088E790E041FE02C088E590E0B701F5
:104D80000E946F27C91408F48AC0CA94D12C9FEFDF
:104D9000C91AD90ACA0CDB1CF60182916F01B7014E
:104DA00090E00E946F27AC14BD04B1F74FCF608133
:104DB0007181072E000C880B990B0E5F1F4F92CF4D
:104DC000D32CE894D4F82AE030E0853739F1232D4C
:104DD000297FD22E8F3601F148F48835A9F0F701EA
:104DE000868197812B96E2E10C944928803749F01F
:104DF0008837A9F7D4FE02C06894D2F820E130E0E9
:104E00000DC06894D4F8F6CF34FE03C0822F8660BC
:104E1000D82E20E132E002C028E030E0F801D7FED1
:104E20000FC060817181828193810C5F1F4FA5014A
:104E30000E949F27C82ECA183D2CE89437F867CFE8
:104E40006081718190E080E00E5F1F4FF0CF42FCE7
:104E500002C0839478CF8394839475CF842D867811
:104E600009F471CFF6CFB70180E290E00E946F277E
:104E700083948214C0F3512C73CF522C581882148F
:104E800008F46ECFF8CF842D867809F47BCF8BE2BF
:104E900041FE80E247FC8DE2B70190E071CFB7019F
:104EA00080E390E00E946F279A946CCF8FEF9FEF82
:104EB00099CFFC010590615070400110D8F78095A2
:104EC00090958E0F9F1F0895FC01615070400190D6
:104ED0000110D8F7809590958E0F9F1F08950F931E
:104EE0001F93CF93DF93182F092FEB018B8181FD47
:104EF00009C01FEF0FEF812F902FDF91CF911F91EE
:104F00000F91089582FF14C02E813F818C819D8175
:104F1000281739073CF4E881F981CF01019699837C
:104F2000888310838E819F8101969F838E83E3CF38
:104F3000E885F985812F0995892BA1F3DACFFA014C
:104F4000AA27283051F1203181F1E8946F936E7FC8
:104F50006E5F7F4F8F4F9F4FAF4FB1E03ED0B4E0B9
:104F60003CD0670F781F891F9A1FA11D680F791FFA
:104F70008A1F911DA11D6A0F711D811D911DA11D0B
:104F800020D009F468943F912AE0269F112430191B
:104F9000305D3193DEF6CF010895462F4770405DB6
:104FA0004193B3E00FD0C9F7F6CF462F4F70405D65
:104FB0004A3318F0495D31FD4052419302D0A9F7C0
:104FC000EACFB4E0A6959795879577956795BA95BA
:104FD000C9F700976105710508959B01AC010A2E80
:104FE00006945795479537952795BA95C9F7620F57
:104FF000731F841F951FA01D0895DC01CB01FC01C8
:10500000F999FECF06C0F2BDE1BDF89A319600B421
:105010000D9241505040B8F70895F999FECF92BDD6
:1050200081BDF89A992780B50895DC01CB0103C0B2
:105030002D910E94202841505040D0F70895262FEE
:10504000F999FECF1FBA92BD81BD20BD0FB6F8946D
:10505000FA9AF99A0FBE019608952F923F924F92B5
:105060005F926F927F928F929F92AF92BF92CF92F8
:10507000DF92EF92FF920F931F93CF93DF93CDB701
:10508000DEB7CA1BDB0B0FB6F894DEBF0FBECDBF79
:1050900009942A88398848885F846E847D848C844A
:1050A0009B84AA84B984C884DF80EE80FD800C8153
:1050B0001B81AA81B981CE0FD11D0FB6F894DEBF36
:1050C0000FBECDBFED0108955058BB27AA270E94FF
:1050D0007C280C945B290E944D2938F00E945429A9
:1050E00020F039F49F3F19F426F40C944A290EF469
:1050F000E095E7FB0C944429E92F0E946C2958F3B2
:10510000BA17620773078407950720F079F4A6F5AC
:105110000C948E290EF4E0950B2EBA2FA02D0B01C6
:10512000B90190010C01CA01A0011124FF27591BEC
:1051300099F0593F50F4503E68F11A16F040A22FF2
:10514000232F342F4427585FF3CF46953795279563
:10515000A795F0405395C9F77EF41F16BA0B620B62
:10516000730B840BBAF09150A1F0FF0FBB1F661FA9
:10517000771F881FC2F70EC0BA0F621F731F841FEC
:1051800048F4879577956795B795F7959E3F08F012
:10519000B0CF9395880F08F09927EE0F97958795D4
:1051A00008950E94D8286894B1110C948F2908950D
:1051B0000E94742988F09F5798F0B92F9927B7510A
:1051C000B0F0E1F0660F771F881F991F1AF0BA95AB
:1051D000C9F714C0B13091F00E948E29B1E0089552
:1051E0000C948E29672F782F8827B85F39F0B93F44
:1051F000CCF3869577956795B395D9F73EF490955E
:105200008095709561957F4F8F4F9F4F0895E894DB
:1052100009C097FB3EF490958095709561957F4FFE
:105220008F4F9F4F9923A9F0F92F96E9BB279395AC
:10523000F695879577956795B795F111F8CFFAF4BC
:10524000BB0F11F460FF1BC06F5F7F4F8F4F9F4FED
:1052500016C0882311F096E911C0772321F09EE84B
:10526000872F762F05C0662371F096E8862F70E0B1
:1052700060E02AF09A95660F771F881FDAF7880F8B
:105280009695879597F9089597F99F6780E870E05C
:1052900060E008959FEF80EC089500240A941616AC
:1052A000170618060906089500240A941216130614
:1052B000140605060895092E0394000C11F48823A2
:1052C00052F0BB0F40F4BF2B11F460FF04C06F5FBE
:1052D0007F4F8F4F9F4F089557FD9058440F551F94
:1052E00059F05F3F71F04795880F97FB991F61F068
:1052F0009F3F79F087950895121613061406551FDF
:10530000F2CF4695F1DF08C0161617061806991F4A
:10531000F1CF86957105610508940895E894BB273F
:1053200066277727CB0197F908950E94A8290C9446
:105330005B290E944D2938F00E94542920F09523C2
:1053400011F00C9444290C944A2911240C948F29AF
:105350000E946C2970F3959FC1F3950F50E0551F83
:10536000629FF001729FBB27F00DB11D639FAA27BA
:10537000F00DB11DAA1F649F6627B00DA11D661F09
:10538000829F2227B00DA11D621F739FB00DA11D2A
:10539000621F839FA00D611D221F749F3327A00DE4
:1053A000611D231F849F600D211D822F762F6A2F80
:1053B00011249F5750409AF0F1F088234AF0EE0FE5
:1053C000FF1FBB1F661F771F881F91505040A9F712
:1053D0009E3F510580F00C9444290C948F295F3F27
:1053E000E4F3983ED4F3869577956795B795F7954E
:1053F000E7959F5FC1F7FE2B880F911D96958795C6
:1054000097F90895991B79E004C0991F961708F041
:10541000961B881F7A95C9F780950895AA1BBB1B18
:1054200051E107C0AA1FBB1FA617B70710F0A61BA4
:10543000B70B881F991F5A95A9F780959095BC01C5
:10544000CD01089597FB072E16F4009407D077FD41
:1054500009D00E940E2A07FC05D03EF49095819554
:105460009F4F0895709561957F4F0895A1E21A2E80
:10547000AA1BBB1BFD010DC0AA1FBB1FEE1FFF1FF8
:10548000A217B307E407F50720F0A21BB30BE40B48
:10549000F50B661F771F881F991F1A9469F760958F
:1054A0007095809590959B01AC01BD01CF01089549
:1054B000052E97FB1EF400940E946F2A57FD07D01B
:1054C0000E94362A07FC03D04EF40C946F2A5095A4
:1054D0004095309521953F4F4F4F5F4F08959095E0
:1054E0008095709561957F4F8F4F9F4F0895EE0F78
:1054F000FF1F0590F491E02D0994A29FB001B39F86
:10550000C001A39F700D811D1124911DB29F700DCC
:10551000811D1124911D08950E947D2AA59F900D43
:10552000B49F900DA49F800D911D11240895FB013F
:10553000DC010D900020E9F7119701900D920020F9
:10554000E1F70895FC018191861721F08823D9F7AE
:10555000992708953197CF010895FB01DC0101904F
:105560000D920020E1F70895DC015D91552331F0A3
:10557000FB01019005160110E1F7B9F780959095B0
:105580008A0F9B1F0895FB0151915523A9F0BF017C
:10559000DC014D9145174111E1F759F4CD0101901E
:1055A000002049F04D9140154111C9F3FB01411113
:1055B000EFCF81E090E00197089513E0C1E9D3E0D7
:1055C00004C0FE010E94772A2196C239D107C9F78B
:0455D000F894FFCF7D
:1055D400F401F40101072413000000001E057E04F9
:1055E400AB046B05DC04BA04CE0400000000D3094C
:1055F400A609640BB7069F098C097D090000000009
:10560400B8067E04640BB70619072F079F060D0A18
:105614004F4B0D0A000D0A4552524F520D0A002EEF
:10562400002B435351003A20002B43434C4B3F0083
:105634002F2C3A2B22002B4350494E3F002B435230
:1056440045473F00435245473A002B47534E002BF2
:105654003739323738373234383538007374726931
:105664006E673D00737461743D0053303030300018
:10567400312E30002053573A5B002B434C434300F8
:085684002B43485550002C0097
:00000001FF
