:100000000C9492030C94BA030C94BA030C94431A04
:100010000C94431A0C94431A0C94BA030C94BA032C
:100020000C94BA030C94DA1B0C94BA030C94BA0324
:100030000C94BA030C94BA030C94BA030C94BA034C
:100040000C94F9190C94BA030C94C7190C94A119C7
:100050000C94BA030C94BA030C94BA030C94BA032C
:100060000C94BB1A0C94BA0354696D653D00457835
:1000700063656C6C656E7400476F6F64004F4B0076
:10008000426164000A5369673D25642F000A42619A
:10009000743D25642E253032645628256425252993
:1000A000000A4820256425252C2054252B64430074
:1000B0006B672E0A54696D652025643A25303264D9
:1000C000006B672E0A4174202564683A2000494479
:1000D0002025733D004C4F572042415454455259FE
:1000E00020210A000A466F726D5F534D530025644C
:1000F0002E25303264002D000D54455354204753B3
:100100004D3A20200D312D53656E6420534D532000
:10011000200D322D5253534920200D332D67657425
:1001200054696D6520200D342D494D454920200D21
:10013000392D434D4420200D302D45786974202001
:100140000D506C656173652073656C656374203058
:100150002E2E3920200D000D4279652100616E732D
:100160007765723A000D4154004552524F52004992
:100170004D45493A000D4552524F52000D4E65779C
:1001800020446174652F54696D653A2000525353C1
:10019000493D00726573756C743D00616E737765DF
:1001A000723D005445535420534D53000A53656E1D
:1001B0006420534D533D002B4350494E3A4E4F203F
:1001C00053494D002B4350494E3A52454144590042
:1001D000556E6B6E6F776E005265676973746572EA
:1001E00065642C20726F616D696E67005265676986
:1001F0007374726174696F6E2064656E6965640002
:10020000536561726368696E672061206E6577204F
:100210006F70657261746F7200526567697374659F
:100220007265642C20686F6D65206E6574776F72DF
:100230006B004E6F742072656769737465726564D4
:1002400000205374617475733A20005472793A0037
:1002500074696D656F75742E2E2E00436F6E6E651A
:1002600063742E2E2E2000525353493D00434F4EAF
:100270004E4543545F4F4B2E0053494D5F4F4B2E1D
:10028000000D4E4F5F53494D2E004D4F44454D5F7D
:100290004F4B2E005265626F6F74204D6F64656D19
:1002A0000054696D652057617320536574002054B4
:1002B000696D656F7574000D0A004154001F1C1FA5
:1002C0001E1F1E1F1F1E1F1E1F00000000240027D0
:1002D000002A0000000008000201000003040700DB
:1002E00000000000000000534D532073656E642031
:1002F0004641494C00534D532073656E64204F4B6B
:10030000004B67000A43617574696F6E2120576561
:100310006967687420000A203136682025642E251C
:100320003032642F25642F2564000A203134682080
:1003300025642E253032642F25642F2564000A2081
:100340003132682025642E253032642F25642F2514
:1003500064000A2036682025642E253032642F255B
:10036000642F2564000A747279696E6720746F20A7
:1003700073656E6420736D732E2E2E004552524F9E
:100380005221204E756D626572206E6F7420536528
:100390007400534D532073656E64204F4B00534DD2
:1003A000532073656E64204641494C000D455252FE
:1003B0004F5221204E756D626572204E6F7420532E
:1003C0006574004F4B004661696C20002064656CC9
:1003D00074613D00202B6F6E654B673D000D7A65A3
:1003E000726F4B673D002053617665642E00205389
:1003F000617665642E004E756D62657220436C6592
:10040000617265642E004552524F5221204D617831
:10041000203134206469676974732E000D456E7451
:100420006572204E756D6265723A2000204E6F74C1
:1004300020536574000D43757272656E743A200026
:100440004552524F5221204D61782035206368611A
:1004500072732E002053617665642E004944204358
:100460006C65617265642E000D456E74657220497D
:10047000443A000D43757272656E743A20000D4E59
:10048000657720446174652F54696D653A20000DCD
:100490004552524F522120466F726D6174000D45D6
:1004A00052524F5221204C656E677468000D456EA4
:1004B00074657220446174652C2054696D653A201E
:1004C0004A616E203120323032322C48483A4D4D4C
:1004D00020000D4E6F2049324320646576696365C4
:1004E0007320666F756E64000D556E6B6E6F7720AE
:1004F0006572726F722061742061646472657373D7
:10050000203078000D4932432064657669636520A8
:10051000666F756E642061742061646472657373C4
:10052000203078000D5363616E6E696E672049322A
:1005300063206275732E2E2E004F4B2E000D5465D6
:1005400073742047534D3A000D5465737420485816
:100550003731313A002520543D002052483D004FAC
:100560004B2E004641494C00546573742053493763
:100570003032303A20004F4B2E20446174653A20CF
:10058000004641494C000D54657374205254433A5F
:1005900020000D4D454E553A20200D312D43686108
:1005A0006E6765204D6173746572204E756D62656E
:1005B0007220200D322D53657420494420200D33C4
:1005C0002D53657420446174652F54696D65202036
:1005D0000D342D54657374204861726477617265BF
:1005E00020200D352D546573742047534D20200D68
:1005F000362D4578697420200D506C656173652037
:1006000073656C65637420312E2E3620200D3E00FC
:10061000427965210054696D656F75742E2E2E0028
:100620004B616C696272005465737420534D5300C2
:100630007D007B2254494D45223A22253032643ACE
:1006400025303264222C2254223A25642C2252482E
:10065000223A25642C22574549474854223A0056ED
:1006600020446174653A20002E0020566261743D7A
:1006700000204D61737465723A005D2049443A0070
:100680005365702032332032303232000D48573AF1
:10069000004C4F5720564F4C5441474521212100D3
:1006A000204E756D626572204E6F74205365740024
:1006B00020546578743A0D000D53656E6420534DD7
:1006C0005320746F3A00253032752F253032752F44
:1006D0002530347520253032753A253032753A256B
:1006E00030327500000000002300260029000000C1
:1006F0000000250028002B00040404040404040462
:1007000002020202020203030303030301020408BC
:10071000102040800102040810200102040810206B
:100720004C1C9E2511241FBECFEFD8E0DEBFCDBFED
:1007300025E0AEECB1E001C01D92A138B207E1F7AF
:1007400011E0A0E0B1E0ECE8F7E502C005900D9201
:10075000AE3CB107D9F713E0C1E9D3E004C021975B
:10076000FE010E94532BC039D107C9F70E943F1DDB
:100770000C94B92B0C94000061157105810591054D
:10078000E1F581E090E0A0E0B0E0809390049093E8
:100790009104A0939204B093930482E99CE0909317
:1007A0008F0480938E04809170008E7F8093700000
:1007B0008091B0008C7F8093B0008091B100877FE2
:1007C0008093B1008091B6008F7D8093B6008091B8
:1007D00070008D7F809370008091B1008460809361
:1007E000B1008091B1008C7F8093B10083E890E0EC
:1007F00090938D0480938C0408956093900470937B
:1008000091048093920490939304C7CF91E09093C6
:100810003B0480933A0410923904109238040895EE
:10082000809132059FEF980F9C3090F590913305A1
:100830002FEF290F2F3160F520913405283140F535
:10084000209135052C3320F5209136052C3300F509
:10085000823001F59E31E0F49D3141F52091310562
:1008600030E02053384FC90183709927892B81F4D8
:10087000C90164E670E00E94EA2A892BB9F4C90133
:1008800060E971E00E94EA2A9C0181E0232B79F063
:1008900080E008959F3151F48150990B67E070E03A
:1008A0000E94FE2A809590958170089581E00895B8
:1008B00008950895EF92FF920F931F93CF93DF93C4
:1008C0008C017B01D0E0C0E0F701EC0FFD1F6491CB
:1008D000662361F0D801ED91FC910190F081E02D4B
:1008E000C8010995892B11F02196EECFCE01DF9139
:1008F000CF911F910F91FF90EF900895AF92BF920B
:10090000CF92DF92EF92FF920F931F93CF93DF93DB
:100910006C017B018B01040F151FEB015E01AE180A
:10092000BF08C017D10759F06991D601ED91FC912C
:100930000190F081E02DC6010995892B79F7C50159
:10094000DF91CF911F910F91FF90EF90DF90CF90AB
:10095000BF90AF900895FC01538D448D252F30E05A
:10096000842F90E0821B930B541710F0CF960895BC
:1009700001970895FC01918D828D981761F0A28DE9
:10098000AE0FBF2FB11D5D968C91928D9F5F9F73AF
:10099000928F90E008958FEF9FEF0895FC01918D65
:1009A000828D981731F0828DE80FF11D858D90E0D2
:1009B00008958FEF9FEF0895FC01918D228D892F6F
:1009C00090E0805C9F4F821B91098F739927089557
:1009D00084E994E00E94DC0421E0892B09F420E002
:1009E000822F089580E090E0892B29F00E94E8048E
:1009F00081110C9400000895FC01A48DA80FB92F5B
:100A0000B11DA35ABF4F2C91848D90E001968F7336
:100A10009927848FA689B7892C93A089B1898C9155
:100A2000837080648C93938D848D981306C00288A4
:100A3000F389E02D80818F7D80830895EF92FF926E
:100A40000F931F93CF93DF93EC0181E0888F9B8DF1
:100A50008C8D98131AC0E889F989808185FF15C0AB
:100A60009FB7F894EE89FF896083E889F9898081CE
:100A70008370806480839FBF81E090E0DF91CF919D
:100A80001F910F91FF90EF900895F62E0B8D10E0BF
:100A90000F5F1F4F0F731127E02E8C8D8E110CC02E
:100AA0000FB607FCFACFE889F989808185FFF5CF79
:100AB000CE010E94FC04F1CFEB8DEC0FFD2FF11D58
:100AC000E35AFF4FF0829FB7F8940B8FEA89FB89B6
:100AD00080818062CFCFCF93DF93EC01888D882314
:100AE000B9F0AA89BB89E889F9898C9185FD03C091
:100AF000808186FD0DC00FB607FCF7CF8C9185FF76
:100B0000F2CF808185FFEDCFCE010E94FC04E9CFBA
:100B1000DF91CF910895833081F028F4813099F0EE
:100B20008230A9F008958730A9F08830C9F0843068
:100B3000B1F4809180008F7D03C0809180008F7719
:100B400080938000089584B58F7784BD089584B51F
:100B50008F7DFBCF8091B0008F778093B000089598
:100B60008091B0008F7DF9CFCF93DF93282F30E0B5
:100B7000F901ED52FD4F8491F901E45FF84FD491F2
:100B8000F901E850F94FC491CC23A1F081110E94E2
:100B90008B05EC2FF0E0EE0FFF1FEC51F94FA59104
:100BA000B491EC91ED2381E090E009F480E0DF91D5
:100BB000CF91089580E090E0FACF1F93CF93DF9319
:100BC000282F30E0F901ED52FD4F8491F901E45FE7
:100BD000F84FD491F901E850F94FC491CC23A9F012
:100BE000162F81110E948B05EC2FF0E0EE0FFF1FF6
:100BF000E251F94FA591B4918FB7F894EC9111118E
:100C000008C0D095DE23DC938FBFDF91CF911F9179
:100C10000895DE2BF8CFCF93DF9390E0FC01E45FE3
:100C2000F84F24918850994FFC0184918823C9F092
:100C300090E0880F991FFC01E753FD4FA591B491F7
:100C4000FC01E251F94FC591D49161110DC09FB7DC
:100C5000F8948C91209582238C9388812823288373
:100C60009FBFDF91CF910895623051F49FB7F89400
:100C70003C91822F809583238C93E8812E2BEFCF9C
:100C80008FB7F894EC912E2B2C938FBFEACF3FB700
:100C9000F8948091B1029091B202A091B302B09108
:100CA000B40226B5A89B05C02F3F19F00196A11DDF
:100CB000B11D3FBFBA2FA92F982F8827BC01CD01A6
:100CC000620F711D811D911D43E0660F771F881F04
:100CD000991F4A95D1F708958F929F92AF92BF9234
:100CE000CF92DF92EF92FF926B017C010E94470648
:100CF0004B015C01C114D104E104F104B9F00E947C
:100D00004706681979098A099B09683E734081057D
:100D1000910580F321E0C21AD108E108F10888EEBC
:100D2000880E83E0981EA11CB11CE4CFFF90EF90C9
:100D3000DF90CF90BF90AF909F908F9008952091BB
:100D4000B7023091B8022817390771F49091B502B3
:100D50008091B602981741F0E091B502F0E0E459B5
:100D6000FD4F808190E008958FEF9FEF08950895E3
:100D7000EF92FF920F931F93CF93DF93DC015C966A
:100D8000ED90FC905D97E114F10479F481E090E03E
:100D900013969C938E93129790E080E0DF91CF9111
:100DA0001F910F91FF90EF9008955196ED91FC9156
:100DB000529750968C915097982F90950FB75E96BA
:100DC0002C915E97122F127021FD6095F89420816E
:100DD000112319F1282B2083E7012197F1F728E04F
:100DE000462F50E0308160FF1AC0382B3083E70176
:100DF0002197F1F7BA0175956795215089F711236D
:100E000081F08081892380830FBF5C968D919C91B6
:100E10000197F1F781E090E0C1CF2923DCCF39239E
:100E2000E5CF9081892BEFCF682F80E695E00C9479
:100E3000B8062091B7023091B8022817390761F43B
:100E40008091B6022091B50290E0805C9F4F821B9A
:100E500091098F739927089590E080E0089520917B
:100E6000B7023091B80228173907B9F49091B5024A
:100E70008091B602981789F0E091B502F0E0E4594C
:100E8000FD4F80812091B50230E02F5F3F4F2F73DF
:100E900033272093B50290E008958FEF9FEF0895D8
:100EA000DC0150E0EDEBF2E081E0861730F4949144
:100EB000490F511D8F5F3196F8CF633038F0CD0167
:100EC00083709927892B11F44F5F5F4F9D012D5F30
:100ED0003F4F36952795369527956DE671E0A69F8D
:100EE000C001A79F900DB69F900D11240197820F0E
:100EF000931F840F951F08954F925F926F927F9278
:100F00008F929F92AF92BF92CF92DF92EF92FF9219
:100F1000CF93DF93EC016A017B012CE3822E912CAD
:100F2000A12CB12CCB01BA01A50194010E94122B76
:100F30006D83CA01B901A50194010E94122B6C8333
:100F4000C701B60120E13EE040E050E00E94122BD4
:100F5000CA01B90128E130E040E050E00E94122BC4
:100F60006B83C701B60120E831E541E050E00E9403
:100F7000122B188263E9862E6EEF962EAA24AA946D
:100F8000BA2C8881782F7370C12CD12C7601C39430
:100F9000772319F0C12CD12C7601260137019DE66B
:100FA000490E91E0591E611C711C2415350546053A
:100FB000570578F0240135014C185D086E087F084C
:100FC000730162012C0D3D1D4E1D5F1D8F5F8883D7
:100FD000D8CF81E089836981862F8150990BFC01EC
:100FE000E354FD4FE491711103C0623009F4EF5FE7
:100FF0008E2F90E0B0E0A0E0281739074A075B0782
:1010000038F0281B390B4A0B5B0B6F5F6983E3CF0A
:101010002F5F2A83DF91CF91FF90EF90DF90CF90E9
:10102000BF90AF909F908F907F906F905F904F9008
:101030000895FC019F012F5F3F4F80818F7E80329A
:1010400069F080E02AE0919130ED390F3A3040F4B8
:10105000829F900D112480ED890FF5CFF901EACF21
:10106000089520914902260F3327331F213231057D
:10107000ECF420918204FC0190E080E0243069F0DF
:1010800082E00895A09149022191AC01475D5D4F36
:10109000A40FB52FB11D2C930196861798F380915C
:1010A0004902680F6093490280E0089581E0089545
:1010B0001092820481E08093610410925C0461E0EC
:1010C00082E10E94DD0561E083E10E94DD05E9EB3C
:1010D000F0E080818E7F808380818D7F808380E2BD
:1010E0008093B80085E48093BC0008951092370483
:1010F0001092360410923904109238040E94580855
:1011000088E594E09093E1028093E00289E594E021
:101110009093DF028093DE020895CF93DF9391E0F6
:10112000909328028823B9F0C091B800D091BA00FA
:101130008091BC008A7B8093BC0060E082E10E94C9
:10114000DD0560E083E10E94DD050E945808D09330
:10115000BA00C093B800DF91CF910895CF92DF928B
:10116000EF92FF920F931F93CF93DF93D82FC62F49
:10117000613208F098C00E9447066B017C018091A3
:10118000820481116BC081E08093820480936104AA
:101190009FEF9093600410925F049C0F90935E0405
:1011A00080935D0480915D04DD0FD82BD0935D04A6
:1011B00080915C04813009F078C010925C040E9438
:1011C00047066B017C0180915D048093BB00809198
:1011D000840490918504A0918604B0918704892BA2
:1011E0008A2B8B2BA1F00E9447060091840410915A
:1011F000850420918604309187046C197D098E093D
:101200009F09061717072807390708F448C0809177
:10121000BC0083FDD8CF85EC8093BC000E944706BC
:101220006B017C0180918204813009F440C080917F
:101230005F048C1710F4C0915F04ECE3F4E0A2E6C5
:10124000B4E080E08C1355C08C2FDF91CF911F91BB
:101250000F91FF90EF90DF90CF90089580918404DC
:1012600090918504A0918604B0918704892B8A2BE4
:101270008B2B09F484CF0E944706009184041091BF
:10128000850420918604309187046C197D098E09AC
:101290009F09061717072807390708F070CF8091B4
:1012A00083040E948D08C0E0CFCF85EEB5CF80913A
:1012B000840490918504A0918604B0918704892BC1
:1012C0008A2B8B2B09F4AECF0E9447060091840431
:1012D0001091850420918604309187046C197D0952
:1012E0008E099F09061717072807390708F09ACFB4
:1012F000D6CF91919D938F5FA5CFE09137048091D8
:101300003604E81730F4F0E0EE59FB4F808190E0AE
:1013100008958FEF9FEF08959091370480913604E0
:101320002FEF3FEF981748F4E92FF0E0EE59FB4F0D
:10133000208130E09F5F90933704C9010895809128
:10134000360490913704891B990B0895CF92DF9250
:10135000EF92FF920F931F93CF93DF937C01CB010A
:101360008A0120913B04222389F0EB016B01C40E1A
:10137000D51ECC15DD0569F06991D701ED91FC9181
:101380000190F081E02DC7010995F3CF642F0E94F1
:101390003108C801DF91CF911F910F91FF90EF901D
:1013A000DF90CF900895CF93DF931F92CDB7DEB734
:1013B000698320913B042223F9F0209138042032E4
:1013C00058F021E030E0FC013383228390E080E09C
:1013D0000F90DF91CF91089580913904E82FF0E0CC
:1013E000E85FFD4F998190838F5F809339048093EC
:1013F000380481E090E0ECCF61E0CE0101960E94DC
:101400003108F7CFCF92DF92EF92FF920F931F93A5
:10141000CF93DF93D091380481E0D13208F09CC0A3
:10142000C0913A040E9447066B017C0180918204BE
:1014300081116CC082E08093820481E0809361041A
:101440008FEF8093600410925F04D0935E04A8E055
:10145000B2E0ECE3F4E080E0D8138DC010925D04BC
:1014600080915D04CC0FC82BC0935D0480915C0417
:10147000813009F084C010925C040E9447066B0121
:101480007C0180915D048093BB00809184049091E5
:101490008504A0918604B0918704892B8A2B8B2B1D
:1014A000A1F00E94470600918404109185042091C8
:1014B0008604309187046C197D098E099F090617EF
:1014C00017072807390708F442C08091BC0083FD44
:1014D000D8CF85EC8093BC000E9447066B017C014D
:1014E00080918204823009F44CC0809160048F3F67
:1014F00009F469C080916004803209F466C080916B
:101500006004803309F463C084E026C080918404C1
:1015100090918504A0918604B0918704892B8A2B31
:101520008B2B09F483CF0E9447060091840410910D
:10153000850420918604309187046C197D098E09F9
:101540009F09061717072807390708F06FCF809102
:1015500083040E948D0885E01092390410923804AB
:1015600010923B04DF91CF911F910F91FF90EF906C
:10157000DF90CF9008959D9191938F5F6DCF85EE11
:10158000A9CF8091840490918504A0918604B091A4
:101590008704892B8A2B8B2B09F4A2CF0E94470644
:1015A0000091840410918504209186043091870471
:1015B0006C197D098E099F09061717072807390737
:1015C00008F08ECFC4CF80E0C7CF82E0C5CF83E0E4
:1015D000C3CFCF93DF93EC0180E40E9406046881BF
:1015E00087E395E00E94D30987E395E0DF91CF91EF
:1015F0000C94020ACF93DF93EC01809148050E947E
:1016000006048091460590914705DC01ED91FC911F
:101610000190F081E02D6D2F099580914605909104
:101620004705DC01ED91FC910190F081E02D6C2FDC
:10163000099580914605909147050E94020A8823EA
:1016400039F081E880935F0580E0DF91CF910895C4
:1016500081E0FBCF0F931F93CF93DF93082F162FBB
:1016600088E60E940604C3E4D5E088819981DC0104
:10167000ED91FC910190F081E02D602F099588811A
:101680009981DC01ED91FC910190F081E02D612FB9
:101690000995888199810E94020A8A83DF91CF91FE
:1016A0001F910F9108950E94760880E40E9406041D
:1016B00087E395E00E94020A811103C081E08093D4
:1016C000DD028091DD02089590E080E0089510929F
:1016D0000402109205021092060210920702109264
:1016E000030280918C0490918D048093B200E0E716
:1016F000F0E080818160808308958F929F92AF9205
:10170000BF92DF92EF92FF920F931F93CF93DF93DD
:1017100000D01F92CDB7DEB78EE00E94B405892BB2
:1017200031F060E070E0CB010E946C06F5CF93E0F1
:10173000D92E812C912C54018394DA948FEFD812F6
:1017400025C061E08FE00E94DD0560E08FE00E942F
:10175000DD0561E08FE00E94DD0560E08FE00E9422
:10176000DD052B81205869817A8190E0822F0F90CE
:101770000F900F90DF91CF911F910F91FF90EF90FD
:10178000DF90BF90AF909F908F90089507E010E09A
:10179000EE24E394F12CEC0EFD1EED0CF11C61E047
:1017A0008FE00E94DD058EE00E94B405B501A40122
:1017B000002E04C0440F551F661F771F0A94D2F7EE
:1017C000F7012081892B51F0422B408360E08FE0AC
:1017D0000E94DD050150110910F7AFCF409542235B
:1017E000F4CFCF92DF92EF92FF920E947D0B0E9486
:1017F0007D0B0E947D0B0E947D0B6B017C010E9482
:101800007D0BC60ED71EE81EF91E0E947D0B6C0DC7
:101810007D1D8E1D9F1D23E030E040E050E00E94C2
:10182000342BCA01B901FF90EF90DF90CF9008955B
:101830008EE480937C006BE470E080E090E00E9496
:101840006C0680917A00806480937A0080917A009F
:1018500086FDFCCF8091780020917900322F282FCF
:10186000032E000C440B550B64EB7BE281E190E00E
:101870000E94342BCA01B90164567109810991098A
:101880000895E0E7F0E080818E7F80831092CE01A2
:1018900060E084E00E94DD0560E087E00E94DD05F5
:1018A00060E088E00E94DD0560E089E00C94DD05E1
:1018B000EF92FF920F931F93CF93DF93C82F162FB2
:1018C0000E94410C8091DC02882329F11F5F08E00F
:1018D000C73609F407E0C1E0D0E0812F8150990BB1
:1018E0007C0161E0802F0E94DD0564EF71E080E003
:1018F00090E00E946C0660E0802F0E94DD05EC16EF
:10190000FD0631F064EF71E080E090E00E946C062B
:101910002196C11730F3DF91CF911F910F91FF9066
:10192000EF900895CF938091DC02882341F180915C
:10193000CE018823E1F0C09104016C2F8091050154
:101940000E94DD0581E0C827C09304016091020177
:1019500070910301C11104C06091000170910101F7
:1019600090E080E00E94BC03CF910C94670B8091C3
:1019700070008E7F80937000CF910C94410CCF91BA
:1019800008958091DC02882399F00E94410C80E246
:1019900093E0909303018093020180E490E09093A0
:1019A00001018093000181E08093CE010C94670BCC
:1019B0000895DC01ED91FC910190F081E02D0994F6
:1019C000DF92EF92FF920F931F93CF93DF93CDB7E8
:1019D000DEB72C970FB6F894DEBF0FBECDBF88E6FA
:1019E0000E9406048091430590914405DC01ED912D
:1019F000FC910190F081E02D60E009958091430514
:101A0000909144050E94020A80934505882331F194
:101A100040E050E0BA01CE0101960E947C0786E0CA
:101A2000FE013196DE01179601900D928A95E1F73D
:101A30002F81388549855A856B857C8580E090E0CB
:101A40002C960FB6F894DEBF0FBECDBFDF91CF91BD
:101A50001F910F91FF90EF90DF90089567E088E667
:101A60000E94AE0810923704809336048730A1F0AC
:101A700084E08093450540E050E0BA01CE0107962E
:101A80000E947C0786E0FE013796DE0111960190E8
:101A90000D928A95E1F7C3CF80914305909144055B
:101AA000DC01ED91FC910284F385E02D09958F779F
:101AB000282F30E0F4E035952795FA95E1F7922F3D
:101AC000990F990F022F091B000F080F80914305F2
:101AD00090914405DC01ED91FC910284F385E02DA9
:101AE00009959C01A4E035952795AA95E1F72F70FB
:101AF0003327922F990F990FF22EF91AFF0CF80E37
:101B00008091430590914405DC01ED91FC910284A4
:101B1000F385E02D099586FF7CC0982F9F71292FB2
:101B200030E0E4E035952795EA95E1F7322F330F61
:101B3000330F122F131B110F190F85FD145F8091A6
:101B4000430590914405DC01ED91FC910284F385FD
:101B5000E02D09958091430590914405DC01ED91BC
:101B6000FC910284F385E02D09959C0144E03595B4
:101B700027954A95E1F72F703327922F990F990FE8
:101B8000E22EE91AEE0CE80E80914305909144058F
:101B9000DC01ED91FC910284F385E02D0995D82EAE
:101BA0008091430590914405DC01ED91FC91028404
:101BB000F385E02D0995AC0164E0559547956A954C
:101BC000E1F74F705527942F990F990F242F291B58
:101BD000220F280F30E0A9014053584FD7FE02C012
:101BE0004C595F4F8D2D8F77405D4F83282F30E00C
:101BF00094E0359527959A95E1F7922F990F990FD3
:101C0000291B220F280F2887E9861A87FB860C8755
:101C10000FCF9C0174E0359527957A95E1F72F70E9
:101C20003327922F990F990F122F191B110F180F8D
:101C300086CFCF93DF93EC0162E080E40E94AE0890
:101C4000109237048093360487E395E00E948C0954
:101C5000888387E395E00E948C09898381E090E086
:101C6000DF91CF910895CF93C82F88E60E94060494
:101C70008091430590914405DC01ED91FC91019028
:101C8000F081E02D6C2F09958091430590914405DA
:101C90000E94020AC82F8093450581111DC061E092
:101CA00088E60E94AE081092370480933604813093
:101CB00031F084E0809345058C2FCF910895809179
:101CC000430590914405DC01ED91FC910284F3857C
:101CD000E02D0995C82FF0CFC0E0EECF1F93CF9332
:101CE000DF938FE00E94330E682F6F778FE00E94A2
:101CF0002A0B88E60E9406048091430590914405D2
:101D0000DC01ED91FC910190F081E02D60E00995FE
:101D1000A0914305B091440520913605CAE0822F79
:101D20006C2F0E94DE2A682F660F680F660F620F05
:101D3000ED91FC9111970190F081E02DCD01099575
:101D4000A0914305B091440520913505822F6C2F59
:101D50000E94DE2A682F660F680F660F620FED91F2
:101D6000FC9111970190F081E02DCD010995A09192
:101D70004305B091440520913405822F6C2F0E94B9
:101D8000DE2A682F660F680F660F620FED91FC91D7
:101D900011970190F081E02DCD01099580913105D9
:101DA000CCE9C80F10E8843610F4C82F10E0409139
:101DB00033056091320590E00E945007069667E077
:101DC00070E00E94EA2A682F811101C067E08091CB
:101DD000430590914405DC01ED91FC910190F08167
:101DE000E02D0995A0914305B0914405209133055C
:101DF000DAE0822F6D2F0E94DE2A682F660F680FAF
:101E0000660F620FED91FC9111970190F081E02D2A
:101E1000CD01099520913205822F6D2F0E94DE2A77
:101E2000682F660F680F660F620F862F812B682F51
:101E300070E080914305909144050E94D90CA091D7
:101E40004305B09144058C2F6D2F0E94DE2A682F28
:101E5000660F680F660F6C0FED91FC911197019062
:101E6000F081E02DCD0109958091430590914405C5
:101E70000E94020A80934505DF91CF911F9108953A
:101E8000EF92FF920F931F93CF93DF93CDB7DEB7FF
:101E900028970FB6F894DEBF0FBECDBF80E40E9436
:101EA000060487E395E00E94020A811142C083EE96
:101EB0008887CE0108960E94E90ACE0101960E9409
:101EC000190E29813A81322723273227A4EAB4E464
:101ED0000E94592B8D54924164E670E00E94FE2AC4
:101EE00060938A0485EE8F83CE0107960E94E90AEB
:101EF000CE0101960E94190E29813A8132272327AB
:101F00003227ADE7B0E00E94592B0697843678F46B
:101F100080938B0428960FB6F894DEBF0FBECDBF1A
:101F2000DF91CF911F910F91FF90EF90089583E67D
:101F3000EFCF86E194E20E94FA0A882309F457C0A1
:101F400064E070E080E090E00E946C0666E08091C2
:101F500048050E94AE0810923704809336048630FC
:101F600009F042C08E010F5F1F4F7E0187E0E80E2F
:101F7000F11C8091460590914705DC01ED91FC91A3
:101F80000284F385E02D0995F80181938F01EE1607
:101F9000FF0679F7898190E0982F88272A81820FA0
:101FA000911D90935E0580935D058C8190E0982F44
:101FB00088272D81820F911D90935C0580935B058E
:101FC0002FB7F8948091AD029091AE02A091AF022C
:101FD000B091B0022FBF80934A0590934B05A09318
:101FE0004C05B0934D0503C082E880935F05609176
:101FF0005D0570915E0590E080E00E94E3292FEA84
:1020000030E04FE25BE30E94712A20E030E044E3DD
:1020100052E40E9440290E94AD2960938A04609195
:102020005B0570915C0590E080E00E94E32928EC5C
:1020300030E048EC5AE30E94712A0E94B429609370
:102040008B0468CFFB0101900020E9F73197AF01C5
:10205000461B570BDC01ED91FC910280F381E02DD2
:10206000099468E571E080E695E00C942210CF9326
:10207000DF93BC0180E695E00E945A04EC010E94C7
:1020800031108C0F9D1FDF91CF9108958F929F92F9
:10209000AF92BF920F931F93CF93DF93CDB7DEB76D
:1020A000A1970FB6F894DEBF0FBECDBF19A2423084
:1020B00008F44AE08E010F5D1F4F842E912CB12C45
:1020C000A12CA50194010E94122BE62FB901CA018F
:1020D000EA3004F5E05DD801EE938D01232B242B2B
:1020E000252B79F790E080E0109729F0BD0180E67C
:1020F00095E00E942210A1960FB6F894DEBF0FBEA5
:10210000CDBFDF91CF911F910F91BF90AF909F9066
:102110008F900895E95CDFCFCF93DF934AE00E9470
:102120004610EC010E9431108C0F9D1FDF91CF9162
:102130000895CF92DF92EF92FF92CF93DF9397FFB4
:1021400019C06B017C018DE20E941407EC01662727
:102150007727CB016C197D098E099F094AE00E94FF
:1021600046108C0F9D1FDF91CF91FF90EF90DF9075
:10217000CF9008954AE0DF91CF91FF90EF90DF90EC
:10218000CF900C944610CF93DF930E949910EC01EE
:102190000E9431108C0F9D1FDF91CF910895CF9336
:1021A000DF93BC01990F880B990B0E949910EC01E9
:1021B0000E9431108C0F9D1FDF91CF910895CF9316
:1021C000DF93BC0180E695E00E942210EC010E94A2
:1021D00031108C0F9D1FDF91CF9108950C94221028
:1021E000E1E3F5E085811F928F9384811F928F93A5
:1021F00083811F928F93808190E08053984F9F93AB
:102200008F9381811F928F9382811F928F9386EC8F
:1022100096E09F938F9382E294E09F938F930E9426
:1022200038268DB79EB740960FB6F8949EBF0FBE66
:102230008DBF62E274E080E695E00C94EE10CF93DF
:10224000DF93EC0168EB76E080E695E00E945A04AB
:10225000BE0180E695E00E94EE1060EB76E080E63D
:1022600095E00E945A0482E893E00E94DF1090E01B
:1022700080E0DF91CF9108958F929F92AF92BF92AD
:10228000CF92DF92EF92FF920F931F93CF93DF9342
:10229000CDB7DEB7A8970FB6F894DEBF0FBECDBF9F
:1022A0008E010F5F1F4F6E0189E2C80ED11C7801AD
:1022B0000E947D0BD7016D937D938D939D937D013E
:1022C000AC15BD05A9F789819A81AB81BC819801C4
:1022D0002C5D3F4FF80144815581668177818417D9
:1022E0009507A607B7070CF0BDC0408351836283F2
:1022F000738334962E173F0771F789819A81AB81DA
:10230000BC819801205E3F4FF80144815581668170
:102310007781481759076A077B070CF0AAC04083EA
:102320005183628373833496E217F30771F760E099
:1023300070E0CB01D801CD90DD90ED90FD908D0146
:102340006C0D7D1D8E1D9F1DEA17FB0799F728E078
:1023500030E040E050E00E94342B69017A016EE3E6
:1023600071E080E695E00E94EE10C701B6010E9480
:10237000C3108091BC029091BD02A091BE02B091A9
:10238000BF02A7019601281B390B4A0B5B0BA8EE75
:10239000B3E00E94682B209106013091070150E0C4
:1023A00040E00E94342B49015A010E94F10B6B015D
:1023B0007C0163E471E080E695E00E94EE10C701C5
:1023C000B6010E94C3108091BC029091BD02A09101
:1023D000BE02B091BF02A7019601281B390B4A0B20
:1023E0005B0BA8EEB3E00E94682B209106013091B0
:1023F000070150E040E00E94342B69017A0168E453
:1024000071E080E695E00E94EE10C501B4010E94E3
:1024100099106EE471E080E695E00E94EE10C7012D
:10242000B6010E94C310C701B6012AE030E040E0C7
:1024300050E00E94342B3093890420938804A8969E
:102440000FB6F894DEBF0FBECDBFDF91CF911F91C5
:102450000F91FF90EF90DF90CF90BF90AF909F9043
:102460008F90089580839183A283B383DB01CA0197
:1024700040CF80839183A283B383DB01CA0153CF12
:10248000CF93DF93EC0197FF06C066EF70E082E820
:1024900093E00E94D825CE01D7FF03C09195819586
:1024A0009109C2E8D3E009900020E9F7C358D3406E
:1024B00064E670E00E94FE2A9F938F937F936F9350
:1024C0008EEE90E09F938F93CE018E579C4F9F93FB
:1024D0008F930E9438262DB73EB7285F3F4F0FB627
:1024E000F8943EBF0FBE2DBF8C0F9D1FDF91CF9183
:1024F0000895FF920F931F93CF93DF93EC01F62E75
:1025000008811981C8010E94E928F81621F06F2D71
:10251000C8010E94FB28CE01DF91CF911F910F913E
:10252000FF900895EF92FF920F931F93CF93DF9345
:1025300000D0CDB7DEB708E814E0885894407C019D
:10254000C701800F911F9A838983F80161918F01E0
:10255000CE0101960E947912F4E00C381F0781F732
:1025600088E894E00F900F90DF91CF911F910F9129
:10257000FF90EF900895EF92FF920F931F93CF93E8
:10258000DF9300D0CDB7DEB78C017B019A838983BE
:10259000FB016081CE0101960E9479120F5F1F4FEF
:1025A0001A830983F7016181CE0101960E94791295
:1025B000C7010F900F90DF91CF911F910F91FF9066
:1025C000EF900895CF92DF92EF92FF920F931F93B7
:1025D000CF93DF93EB017B0124E0E20EF11C8B0132
:1025E0006C01C61AD70AC601800F911F0E94E92804
:1025F000F80181938F01EE15FF05A9F7CE01DF9158
:10260000CF911F910F91FF90EF90DF90CF900895A1
:102610000F931F93CF93DF938C01EB010E94E92866
:102620008883C80101960E94E9288983CE01DF9141
:10263000CF911F910F910895CF93DF93EB010E94EB
:10264000E9288883CE01DF91CF910895CF93DF935E
:1026500000D01F92CDB7DEB71B82BE016D5F7F4FEA
:1026600081E090E00E941C138091C2029091C3020D
:102670002B81222309F476C08E3E9C4054F41A82AA
:102680001982BE016F5F7F4F81E090E00E94BB1214
:102690001B828B81882309F475C08EE00E94330E63
:1026A000682F67648EE00E942A0B88E60E94060469
:1026B0008091430590914405DC01ED91FC910190DE
:1026C000F081E02D67E0099570E060E080914305BE
:1026D000909144050E94D90C60E870E08091430518
:1026E000909144050E94D90C60E870E08091430508
:1026F000909144050E94D90C60E870E080914305F8
:10270000909144050E94D90C809143059091440515
:102710000E94020A809345058FE00E94330E682FC5
:102720006C7F8FE00E942A0B60E08DE00E94DD0547
:102730000E94410C68E670E080E695E00E945A0431
:102740002FB7F8946091AD027091AE028091AF0204
:102750009091B0022FBF0E948C1060E083E00E9435
:10276000DD05FFCF88349D400CF493CF81E090E0ED
:102770009A838983BE016F5F7F4F0E94BB1281E005
:102780008B8387CF8EE00E94330E8C7B682F646032
:102790008EE0C8CF85ED8093BC0080918404909139
:1027A0008504A0918604B09187040796A11DB11DF0
:1027B00023E0B695A795979587952A95D1F720910F
:1027C000BC0024FD03C0109282040895409184044B
:1027D000509185046091860470918704452B462BA7
:1027E000472B69F30097A105B10541F025E12A9532
:1027F000F1F700000197A109B109E1CF80918304AD
:102800000C948D08CF92DF92EF92FF920F931F935B
:10281000CF93DF93EC016A017B0184E994E00E948D
:10282000DC04181619062CF484E994E00E94BA041A
:10283000F4CF6AEB72E084E994E00E945A04BE018E
:1028400084E994E00E94EE1067EB72E084E994E082
:102850000E945A041092E2022FB7F8948091AD02C0
:102860009091AE02A091AF02B091B0022FBFC80EFE
:10287000D91EEA1EFB1ED0E0C0E02FB7F89480916D
:10288000AD029091AE02A091AF02B091B0022FBF05
:102890008C159D05AE05BF05B8F584E994E00E944E
:1028A000DC04181619063CF584E994E00E94BA0489
:1028B0008E010F5F1F4FCE51DD4F8883F801EE511F
:1028C000FD4F1082003A110554F506301105D4F081
:1028D00064E571E082EE92E00E949F2B892B11F556
:1028E0006BE571E082EE92E00E949F2B892B51F004
:1028F00081E090E00BC06AE070E080E090E00E9430
:102900006C068E01E801B9CF8FEF9FEFDF91CF9179
:102910001F910F91FF90EF90DF90CF90089582E08C
:1029200090E0F4CF90E080E0F1CFCF9361E08DE0D4
:102930000E940B0661E08DE00E94DD056CE271E013
:1029400080E090E00E946C06E091A404F091A50460
:1029500082E08083E091A004F091A1041082E091D4
:10296000A204F091A30487E680831092AC04E09166
:10297000A804F091A90486E08083E091A604F09178
:10298000A704808180618083E091A604F091A70470
:10299000808188608083E091A604F091A704808103
:1029A00080688083E091A604F091A70480818F7DE8
:1029B00080838AE591E00E94DF10C1E065E671E066
:1029C00080E695E00E94EE1048EE53E060E070E093
:1029D0008AE591E00E940214029728F40E943110C7
:1029E00081E0CF910895CA30F1F464E972E080E6A5
:1029F00095E00E945A0460E08DE00E94DD056AE1E6
:102A000074E080E090E00E946C0661E08DE00E943E
:102A10000B0661E08DE00E94DD0560E971E080E079
:102A200090E00E946C06CF5FC53141F680E0D9CFBF
:102A3000CF93DF938091BB02D0E0C0E08823C9F040
:102A400040ED57E060E070E087E691E00E940214FC
:102A50006CE671E082EE92E00E94902B9C012E5F6A
:102A60003F4FE9012F3F320741F48EEA92E00E9486
:102A70003710CE01DF91CF910895FC01EB51FD4F4E
:102A80004081C9018E519D4F4C3229F41082DF9153
:102A9000CF910C94BA25FC011282F9CF8F929F92AC
:102AA000AF92BF92EF92FF920F931F93CF93DF935A
:102AB000CDB7DEB72A970FB6F894DEBF0FBECDBFF5
:102AC00084EE90E00E9437100E943C110E94400F5B
:102AD0000E94E00C5C836D830091C2021091C302DE
:102AE000C801845E9C4069E070E00E94FE2A7B0180
:102AF0008AE390E00E94E9288F838BE390E00E94B4
:102B0000E92888878CE390E00E94E92889878DE393
:102B100090E00E94E9288A87809088049090890438
:102B2000092C000CAA08BB088F819885A985BA8555
:102B3000881A990AAA0ABB0A8F829886A986BA8639
:102B400082E893E01092820300311E4064F425ED88
:102B500030E03F932F939F938F930E9438260F90DE
:102B60000F900F900F9085ED92E09F938F938EECD6
:102B700090E09F938F9382E893E09F938F930E94BE
:102B8000382680918804909189040E9440121F92F7
:102B900024E12F9321EC30E03F932F938E579C4FED
:102BA0009F938F930E943826C4010E9440128C018B
:102BB0008D811F928F938C811F928F9380EB90E079
:102BC0009F938F93C8018E579C4F9F938F930E9422
:102BD0003826080F191F80918A041F928F938091C5
:102BE0008B041F928F9381EA90E09F938F93C8018B
:102BF0008E579C4F9F938F930E943826080F191F62
:102C00008091C2029091C302FF24FF92EF9268EE7E
:102C100073E00E94FE2A9B016AE070E00E94FE2A97
:102C20007F936F933F932F938DE890E09F938F93C3
:102C3000C8018E579C4F9F938F930E943826080F90
:102C4000191F0FB6F894DEBF0FBECDBF0E94181536
:102C50007C01FF928F9384E890E09F938F93C8014B
:102C60008E579C4F9F938F930E943826800F911F01
:102C70008E579C4F0F900F900F900F900F900F90CA
:102C80002AE0E216F104ECF420E830E03F932F93C1
:102C90009F938F930E9438260F900F900F900F9064
:102CA0002A960FB6F894DEBF0FBECDBFDF91CF914D
:102CB0001F910F91FF90EF90BF90AF909F908F90DA
:102CC00008952EE0E216F1041CF42DE730E0DECF8B
:102CD00023E1E216F1041CF428E730E0D7CF2EE61A
:102CE00030E0D4CF8F929F92AF92BF92CF92DF927B
:102CF000EF92FF920F931F93CF93DF93CDB7DEB781
:102D00002D970FB6F894DEBF0FBECDBF8091BB02EA
:102D1000811115C010E0812F2D960FB6F894DEBFFB
:102D20000FBECDBFDF91CF911F910F91FF90EF901C
:102D3000DF90CF90BF90AF909F908F90089540ED1F
:102D400057E060E070E08FE691E00E940214892B6A
:102D500009F76AE771E082EE92E00E940426FE0124
:102D6000319687E0DF011D928A95E9F78F017E0198
:102D7000B8E0EB0EF11C66E771E090E080E00E94A5
:102D800004260E94BA25F80181938F01EE15FF05F4
:102D900091F79E812D813C814B816A81898180934D
:102DA0003105609332054093330530933405209309
:102DB0003505909336059F8120E13EE0929F6001AA
:102DC000939FD00C11240D2C000CEE08FF0890E00E
:102DD0000E9450079C01A8E1B0E00E94592B20916D
:102DE00034054B015C01820E911CA11CB11CA50194
:102DF0009401ACE3B0E00E94682B209135054B01B3
:102E00005C01820E911CA11CB11CA50194010E94C1
:102E1000682B20913605C20ED11CE11CF11CAB01C0
:102E2000BC014C0D5D1D6E1D7F1DC8010E947C07FD
:102E300086E0F801A1E3B5E001900D928A95E1F7F3
:102E40000E941004182F882309F465CF0E946E0E8B
:102E500081EA92E00E9437105ECFCF92DF92EF922C
:102E6000FF92CF93DF930E94180CCAE0D0E0683441
:102E70007D40810591050CF471C00E94C10C0E9437
:102E80009514C1E0D0E0882309F468C08AE892E094
:102E90000E94371048E853E160E070E08CE791E071
:102EA0000E940214019609F44BC064EC71E082EEBA
:102EB00092E00E94EA25892B69F467EB71E082EECB
:102EC00092E00E94EA25C3E0D0E0892BD9F1C2E06C
:102ED000D0E038C089E792E00E9437108BE592E09D
:102EE0000E943710C12CD12C7601C0E040ED57E094
:102EF00060E070E083E891E00E9402140196B1F571
:102F000080E592E00E94371068EE73E080E090E088
:102F10000E946C068FEFC81AD80AE80AF80A2EE158
:102F2000C216D104E104F10409F7CB7FC13009F4E2
:102F30004CC063E082E70E94580CC5E0D0E00EC0B0
:102F4000C1E0D0E00E94410C61E872E080E695E0CB
:102F50000E945A0462E082E70E94580CCE01DF9181
:102F6000CF91FF90EF90DF90CF9008956AE871E0E5
:102F700082EE92E00E949F2BCFEF892B51F06AE303
:102F800070E082EE92E00E947E2B04960E94BA25A9
:102F9000C82F6BE472E080E695E00E945A044AE094
:102FA000C701B6010E94461061E472E080E695E038
:102FB0000E945A0482E392E0CC2309F4A3CFC130EB
:102FC00011F589E192E00E9437108DE692E00E94AF
:102FD00037100E941815909302028093010267E651
:102FE00072E080E695E00E945A048091010290917F
:102FF00002020E94CF1081E08093BB020E94410C2C
:10300000D0E0C0E0ABCF80E092E0C23009F47ACFEC
:103010008CEE91E0C33009F475CFC53019F488ED1A
:1030200091E0D1CF80ED91E06DCFCF92DF92EF9222
:10303000FF920F931F93CF93DF9300D0CDB7DEB7EE
:103040006B017A01BC018FEC91E00E94892B01E0B9
:1030500010E02FEC31E0AE014F5F5F4FB601C901C8
:103060000E940926009739F00F5F1F4F30E020E0E3
:10307000E016F10684F70F900F90DF91CF911F912A
:103080000F91FF90EF90DF90CF900895CF93DF9353
:1030900040ED57E060E070E080E991E00E940214AA
:1030A000EC01CF3FDC07A1F043E050E069E571E0BF
:1030B00082EE92E00E941518BC0182E893E00E9423
:1030C000892B81E0CD2B09F480E0DF91CF91089529
:1030D00081E0FBCF1F93CF93DF931092820368EFC1
:1030E00070E080E695E00E945A0480E695E00E9438
:1030F0001907EC01892B29F080E695E00E942F0743
:10310000F4CF80E695E00E941907892B39F462E339
:1031100070E080E090E00E946C06F3CF80E695E0DE
:103120000E942F07182F0E941407133309F464C05C
:1031300084F4113349F1123309F44DC0103379F698
:1031400067E571E080E695E0DF91CF911F910C94E7
:103150005A04143309F472C0193381F765E671E03B
:1031600080E695E00E945A0480E695E00E941907E7
:10317000892B09F075C062E370E080E090E00E9466
:103180006C06CE01EC01F0CF6CEA71E080E695E0D0
:103190000E945A0463EA71E082E893E00E94E3250A
:1031A00085E991E00E941F11EC016BE971E080E676
:1031B00095E00E945A0462EE72E080E695E00E947B
:1031C000EE1063E971E080E695E00E945A04CE01BA
:1031D0000E94CF1084CF0E94181590930202809312
:1031E00001026DE871E080E695E00E945A0480914A
:1031F000010290910202ECCF0E9472168823B9F06E
:103200000E94E00C20933105309332054093330542
:103210005093340560933505709336056CE771E083
:1032200080E695E00E945A040E94F01058CF65E7AE
:1032300071E080E695E00E945A0451CF6FE671E09C
:1032400080E695E00E945A040E944618811105C04C
:1032500082E893E00E94DF1042CF69E671E0E9CF97
:1032600080E695E00E942F07182F0E9414071D305A
:1032700021F0FE01EE51FD4F1083CE0101961D306D
:1032800009F080CFCE51DD4F188262EA71E080E60E
:1032900095E00E94EE1082EE92E00E94DF1040E185
:1032A00057E260E070E082EE92E00E940214EC01CE
:1032B0006AEA71E080E695E00E94EE10CE010E947D
:1032C000CF106DE571E080E695E00E945A0462EE51
:1032D00072E080E695E00E94EE1001CF0F931F93FD
:1032E000CF93DF9300D0CDB7DEB71092820380E694
:1032F00095E00E94190718161906CCF780E695E0AC
:103300000E942F078C011A82198289830D9759F028
:10331000BE016F5F7F4F82E893E00E94732B802F86
:103320000E941407E4CF70E060E082E893E00E941E
:10333000732B80E00F900F90DF91CF911F910F9131
:1033400008951F920F920FB60F9211242F933F935F
:103350004F935F936F937F938F939F93AF93BF939D
:10336000EF93FF9384E994E00E94FC04FF91EF91B6
:10337000BF91AF919F918F917F916F915F914F918D
:103380003F912F910F900FBE0F901F9018951F9295
:103390000F920FB60F9211242F938F939F93EF9359
:1033A000FF93E091A404F091A5048081E091AA0428
:1033B000F091AB0482FD1BC090818091AD048F5FC2
:1033C0008F732091AE04821741F0E091AD04F0E0DC
:1033D000EC56FB4F958F8093AD04FF91EF919F9139
:1033E0008F912F910F900FBE0F901F901895808195
:1033F000F4CF1F920F920FB60F9211242F933F9389
:103400008F939F93AF93BF938091AD029091AE0243
:10341000A091AF02B091B0023091AC0226E0230F30
:103420002D3758F50296A11DB11D2093AC02809353
:10343000AD029093AE02A093AF02B093B002809120
:10344000B1029091B202A091B302B091B402019680
:10345000A11DB11D8093B1029093B202A093B3025B
:10346000B093B402BF91AF919F918F913F912F91F3
:103470000F900FBE0F901F90189529E8230F039609
:10348000A11DB11DD2CF1F920F920FB60F92112422
:103490002F933F934F935F936F937F938F939F935C
:1034A000AF93BF93EF93FF93E091B702F091B8020F
:1034B000309749F0A685B7858585968D91FF14C014
:1034C0009C918923A1F4FF91EF91BF91AF919F91BE
:1034D0008F917F916F915F914F913F912F910F90BD
:1034E0000FBE0F901F9018959C91892361F7A389B7
:1034F000B4899C918589809589238C938689978945
:103500000197F1F7608D718DA685B785558538E0F7
:1035100020E0CB010197F1F7822F90E095958795F8
:10352000282F4C91452309F02068315091F7868D62
:1035300081FD20958091B60290E001968F739927C6
:103540003091B502381799F0A091B602B0E0A459B5
:10355000BD4F2C938093B602828D938D0197F1F726
:10356000A389B4898C919589892B8C93ACCF868D56
:103570008160868FF1CF1F920F920FB60F921124A8
:103580002F933F934F935F936F937F938F939F936B
:10359000AF93BF93EF93FF938091B900887F8036FC
:1035A00009F44AC0F0F5883209F4A7C018F5803153
:1035B00009F49BC0B8F4882309F4F9C0883009F4F1
:1035C00094C0FF91EF91BF91AF919F918F917F91A7
:1035D0006F915F914F913F912F910F900FBE0F9080
:1035E0001F901895883109F488C0803251F7809374
:1035F000600414C0803409F49DC040F48033B9F3F2
:103600008833F9F68093600485ECB0C0803509F406
:1036100085C0883509F496C0883499F60E94CA138B
:10362000D0CF883909F48CC038F5883729F050F4A8
:10363000883611F0803729F683E080938204109257
:103640006B0257C0883809F47BC0803919F0803884
:1036500009F0B7CF80916B02803208F071C0E09121
:103660006B0281E08E0F80936B028091BB00F0E0D3
:10367000E55BFD4F80833DC0803B39F0E0F4803A4C
:1036800009F479C0883A09F09CCF84E080938204E1
:1036900010924A0210924902E091E002F091E10298
:1036A00009958091490281110FC081E08093490200
:1036B0001092290209C0803C09F4A6CF883C09F485
:1036C000A3CF883B09F07DCFE0914A0281E08E0FC5
:1036D00080934A02F0E0E75DFD4F80818093BB005C
:1036E00090914A028091490229C080915D048093A3
:1036F000BB0085EC8093BC0064CF90915F04809107
:103700005E04981758F5E0915F0481E08E0F809376
:103710005F04F0E0E45CFB4F8081E9CFE0915F045F
:1037200081E08E0F80935F048091BB00F0E0E45C49
:10373000FB4F808390915F0480915E049817C8F2DC
:1037400085E8D8CFE0915F0481E08E0F80935F041D
:103750008091BB00F0E0E45CFB4F808380916104CA
:1037600081115CCF81E080935C0484EA8093BC008B
:103770001092820426CF85EC8093BC0010928204C4
:1037800080916B02803230F4E0916B02F0E0E55BF7
:10379000FD4F108260916B0270E0E091DE02F091CB
:1037A000DF028BE492E0099510926B020ACF10922F
:1037B000600434CF1F920F920FB60F9211242F93F3
:1037C0003F934F935F936F937F938F939F93AF93A9
:1037D000BF93EF93FF9380918C0490918D0480931D
:1037E000B2008091040290910502A0910602B0916E
:1037F00007020196A11DB11D80930402909305025A
:10380000A0930602B09307028091040290910502F2
:10381000A0910602B091070240919004509191044A
:10382000609192047091930484179507A607B707D7
:1038300010F18091030281111EC081E08093030288
:103840008091040290910502A0910602B0910702B6
:10385000841B950BA60BB70B809304029093050273
:10386000A0930602B0930702E0918E04F0918F04BA
:10387000099510920302FF91EF91BF91AF919F9133
:103880008F917F916F915F914F913F912F910F9009
:103890000FBE0F901F9018951092970410929604E7
:1038A00088EE93E0A0E0B0E08093980490939904B0
:1038B000A0939A04B0939B042CE031E030939504DC
:1038C0002093940425EC30E03093A1042093A004CD
:1038D00024EC30E03093A3042093A20420EC30E0E9
:1038E0003093A5042093A40421EC30E03093A70486
:1038F0002093A60422EC30E03093A9042093A8047E
:1039000026EC30E03093AB042093AA041092AD046F
:103910001092AE041092AF041092B00410923A05C7
:103920001092390580933B0590933C05A0933D058B
:10393000B0933E052EE131E03093380520933705F2
:10394000109263051092620580936405909365055B
:10395000A0936605B093670580E391E090936105BD
:103960008093600510927705109276051092790584
:103970001092780510927B0510927A0510927D05C1
:1039800010927C0560917E056E7F6D7F60937E0551
:103990006695617081E0682786E00E94DD0561E040
:1039A00086E00E940B06E2E1F7E0E491E093700507
:1039B000EEEFF6E0E491F0E0EE0FFF1FE251F94F79
:1039C00085919491909372058093710560E085E0F4
:1039D0000E940B0680917E0581FD04C061E085E0B8
:1039E0000E94DD0585E080936C05E1E1F7E0E4915C
:1039F000E0936D05EDEFF6E0E491F0E0EE0FFF1FD0
:103A0000EC51F94F8591949190936F0580936E05D9
:103A10001092480510924A0510924B0510924C05E1
:103A200010924D0510925E0510925D0510925C0596
:103A300010925B05109249051092520510925305A1
:103A40001092540510925505109256051092570584
:103A5000109258051092590510925A0510925F0560
:103A600087E395E0909344058093430510924505C4
:103A700040E050E0BA0181E395E00C947C07CF93DD
:103A8000DF9300D000D000D01F92CDB7DEB778947E
:103A900084B5826084BD84B5816084BD85B5826053
:103AA00085BD85B5816085BD80916E008160809304
:103AB0006E0010928100809181008260809381006D
:103AC000809181008160809381008091800081607D
:103AD000809380008091B10084608093B1008091D8
:103AE000B00081608093B00080917A008460809300
:103AF0007A0080917A00826080937A0080917A00C7
:103B00008E7F80937A0080917A00806880937A001B
:103B10001092C10061E083E00E940B0661E083E047
:103B20000E94DD0561E088E00E940B0660E088E00D
:103B30000E94DD0561E087E00E940B0660E087E0FF
:103B40000E94DD0561E084E00E940B0660E084E0F5
:103B50000E94DD0561E089E00E940B0660E089E0DB
:103B60000E94DD0562E082E00E940B0610927B0558
:103B700010927A05109279051092780510927705C7
:103B8000109276058DEC90E090937D0580937C05F6
:103B900090916C05963108F047C025E530E03093F0
:103BA0007705209376052BEC30E030937905209350
:103BB000780520E930E030937B0520937A05209149
:103BC000680084E0983048F031E09E3008F430E03E
:103BD00081E001C0880F3A95EAF7822B8093680054
:103BE0002DE630E0983050F02BE630E09E3030F09B
:103BF0002CE630E0963110F030E020E03093740590
:103C000020937305292F30E0983008F074C081E0CC
:103C100001C0880F9A95EAF78093750580917C051D
:103C200090917D050197F1F780917A0590917B0540
:103C3000892B49F1E091B702F091B80225E0E03616
:103C4000F20709F1309739F0A389B4899C918589ED
:103C5000809589238C9380917E058E7F80937E054D
:103C60001092B6021092B50280E695E09093B802E9
:103C70008093B702E0917305F09174058081909173
:103C80007505892B808382E00E94B405892B09F099
:103C900059C061E087E00E94DD0581E08093DC028D
:103CA0008093DB0200E063E0F62E82E00E94B40520
:103CB000892B09F047C0023308F40F5F68EC70E00D
:103CC00080E090E00E946C068EE20E9414070C30A7
:103CD000F9F460E087E00E94DD0568EC70E080E0C8
:103CE00090E00E946C0661E087E00E94DD0582E0C2
:103CF0008093DB02DACF9E3040F42850310981E016
:103D000001C0880F2A95EAF787CF2E503109F7CFE7
:103D1000083159F460E087E00E94DD0561E084E04D
:103D20000E94DD05F092DB02C0CF083209F0BDCF62
:103D300060E084E00E94DD0561E089E00E94DD052D
:103D400084E0D6CF0E9476080E94530B84E48093CF
:103D5000480587E395E090934705809346050E94C8
:103D6000760882EA90E30E94FA0A882331F061E043
:103D700070E080E090E00E946C0645E050E062E870
:103D800070E085ED92E00E94D9288091D5028F3FA6
:103D900011F50E949514882309F435C10E94461834
:103DA000811131C16CE873E082E893E00E94892BB5
:103DB00083E58093820345E050E062E870E082E8AA
:103DC00093E00E94F12845E050E062E870E085ED64
:103DD00092E00E94D9284FE050E068E870E084EC5F
:103DE00092E00E94D9281092D3028091C4028F3FA2
:103DF00009F010C160EA76E082EE92E00E94E325CD
:103E00000E94180C7093C3026093C2026C3A7D400A
:103E100034F461E976E080E695E00E945A040E945D
:103E2000E00C2093310530933205409333055093D5
:103E3000340560933505709336058091DB02882345
:103E400009F485C06CE876E080E695E00E945A04AB
:103E500066EB71E080E695E00E94EE106AEB71E09F
:103E600080E695E00E94EE1060E876E080E695E05E
:103E70000E945A046AE776E080E695E00E945A04C0
:103E800065ED72E080E695E00E94EE1061E776E075
:103E900080E695E00E945A0462EE72E080E695E0CA
:103EA0000E94EE106AE676E080E695E00E945A04F1
:103EB0008091C2029091C30258EEE52E53E0F52E98
:103EC000B7010E94FE2A072E000C880B990B0E9456
:103ED000991068E676E080E695E00E945A048091A9
:103EE000C2029091C302B7010E94FE2A8436910556
:103EF00034F468EB71E080E695E00E94EE1080916A
:103F0000C2029091C30268EE73E00E94FE2A0A97F3
:103F100034F468EB71E080E695E00E94EE10809149
:103F2000C2029091C30268EE73E00E94FE2ABC01B7
:103F3000990F880B990B0E9499106FE576E080E647
:103F400095E00E945A040E94F0100E94311064EF24
:103F500071E080E090E00E94BC03809170008E7F51
:103F60008093700060E087E00E94DD050E94E00C15
:103F70002093310530933205409333055093340537
:103F800060933505709336055093C1026093C0026B
:103F90008EE290E00E94E9288093BC028FE290E0DC
:103FA0000E94E9288093BD0280E390E00E94E92806
:103FB0008093BE0281E390E00E94E9288093BF02D3
:103FC00066E071E086E390E00E94081361E08FE014
:103FD0000E940B0660E08EE00E940B0660E08FE01E
:103FE0000E94DD050E94400F0E943C118091DB027F
:103FF000823009F4BBC1A8F48823B1F1813009F4FF
:10400000A7C10E94261345E050E062E870E080EB13
:1040100091E0D7CE64EC72E082EE92E00E94892BB0
:10402000EFCE833009F4D8C1843059F789E080930A
:1040300005010E942D17892B09F07AC261E089E001
:104040000E94DD0562E975E080E695E00E945A0471
:1040500080E695E00E941907892B09F4E9C280E601
:1040600095E00E942F07F4CFBE01695F7F4F89E082
:1040700090E00E941C136091C0028F81681709F4C0
:104080004AC089E090E09A838983CE0101960E941C
:104090007912BE016B5F7F4F82E390E00E940813AC
:1040A000E0908804F09089048D819E81E81AF90AD5
:1040B00069EB72E08AE390E00E94081368E874E01C
:1040C00082E390E00E94BB128091C002811109C07E
:1040D0008091C102863009F04EC089E990E00E94CB
:1040E00092128091C102843121F48091C002882310
:1040F00049F04DE9E4164FEFF4066CF48091DC02D0
:10410000811109C08091C4028F3F09F04DC08CE736
:1041100093E00E94371080918B041F928F938091BF
:104120008A041F928F938091C0021F928F93809177
:10413000C1021F928F9382E396E09F938F9382E850
:1041400093E09F938F930E943826809188049091EA
:1041500089040E94401260E376E082E893E00E94C6
:10416000D82582E893E00E94DF100FB6F894DEBFF6
:104170000FBECDBF46CF8C3019F48DE990E0AFCFA4
:104180008E3019F481EA90E0AACF803119F485EAE3
:1041900090E0A5CF843109F0A4CF68E874E08AE309
:1041A00090E00E94BB129DCF85E693E00E943710FD
:1041B0008091BB02811102C00E942D178091BB0229
:1041C000882309F4A8CF0E944E1502E813E0F801F5
:1041D00001900020E9F78F01035813408091C1023C
:1041E00098012E573C4F6901843109F09FC0198214
:1041F0001A821B821C82BE016F5F7F4F89E990E0AB
:104200000E94E21289819A812C811F922F932B8127
:104210001F922F9344E6E42EF12CB7010E94FE2A50
:104220009F938F937F936F9382E593E09F938F93F8
:10423000DF92CF920E943826080F191F68E874E0B9
:104240008DE990E00E94E21289819A812C811F926F
:104250002F932B811F922F93B7010E94FE2A9F93C9
:104260008F937F936F938EE393E09F938F93C80117
:104270008E579C4F9F938F930E943826080F191FCB
:1042800068E874E081EA90E00E94E21289819A81F4
:104290002C811F922F932B811F922F93B7010E9485
:1042A000FE2A9F938F937F936F938AE293E09F936D
:1042B0008F93C8018E579C4F9F938F930E943826EF
:1042C000080F191F0FB6F894DEBF0FBECDBF68E808
:1042D00074E085EA90E00E94E21289819A812C8143
:1042E0001F922F932B811F922F93B7010E94FE2ABA
:1042F0009F938F937F936F9386E193E09F938F9328
:104300000E571C4F1F930F930E9438260E9472165F
:104310000FB6F894DEBF0FBECDBF84EC92E00E94D2
:104320001F11892B91F485EF92E0F3CE64E073E0E6
:10433000C9010E94D825C7010E94401261E073E0C4
:104340008E579C4F0E94D825E8CF87EE92E0E1CEB1
:104350006CE271E080E090E00E946C068091C40203
:1043600061E08F3F09F0E0C082E7DFC087E296E0BE
:104370000E9437108091C4028F3F31F48CEA93E0A1
:104380000E94371061E0F0CF87E0809305018091B3
:10439000BB02811102C00E942D178091BB028823AD
:1043A00009F42FCE0E9472160E944E1584EC92E002
:1043B0000E941F11892B49F461E087E60E94580C86
:1043C00082E993E00E9437101CCE63E082E70E94EE
:1043D000580C8EE993E0F6CF80E296E00E94371009
:1043E0000E94F10B6093BC027093BD028093BE02E9
:1043F0009093BF0261E084E00E94DD0568E97AE302
:1044000080E090E00E946C0660E084E00E94DD05A0
:104410000E94F10B6B017C016DED73E080E695E08D
:104420000E945A046091BC027091BD028091BE024C
:104430009091BF024AE00E94461064ED73E080E66E
:1044400095E00E945A04C701B6010E9499106CECD5
:1044500073E080E695E00E945A048091BC0290913E
:10446000BD02A091BE02B091BF02A7019601281B18
:10447000390B4A0B5B0BCA01B9010E948C10809169
:10448000BC029091BD02A091BE02B091BF02B701E3
:10449000A601481B590B6A0B7B0B403D5740610539
:1044A0007105E8F463E082E70E94580C66EC73E063
:1044B00080E695E00E945A048091BC029091BD0272
:1044C000A091BE02B091BF02A7019601281B390B33
:1044D0004A0B5B0BCA01B9010E948C1092CDC81A1D
:1044E000D90AD0920701C092060183EC93E00E94A2
:1044F00037103CEBE32E32E0F32E0EE210E01A838D
:104500000983F70161917F01CE0101960E94791222
:104510000F5F1F4F0233110591F766E071E086E3EC
:1045200090E00E94BB1262E087E60E94580C69CDC1
:1045300060E47FE180E090E00E946C060E94C10C84
:1045400088E0809305017ECD90E080E07C0184E9E5
:1045500094E00E94DC04181619060CF077C040EDB8
:1045600057E060E070E080EC91E00E940214892B3B
:1045700009F06CC062E270E082EE92E00E947E2B55
:10458000009709F463C0B092E202FC013196A3EEF9
:10459000B2E021E030E08191823209F452C08D9383
:1045A0002F5F3F4F2F303105B1F782EE92E0FC01D3
:1045B00001900020E9F7CF01895E92400B9708F047
:1045C00045C062EE72E084EC92E00E94892B41E1EA
:1045D00050E068E870E084EC92E00E94F1280E94CC
:1045E000311064EC72E080E695E00E94EE1086EEF9
:1045F00093E00E94371060E089E00E94DD0562E0F0
:1046000087E60E94580C60EA7FE080E090E00E941C
:104610006C0640ED57E060E070E086EC91E00E94AF
:10462000021460EA7FE080E090E00E946C06E9CC32
:10463000F12CE12C9BE2B92E22E8C22E23E0D22EEF
:1046400086CF2E513D4FF9011082AFCF80E695E025
:104650000E941907892BA9F462E370E080E090E0E2
:104660000E946C06C7010196F9EBEF16FBE0FF060E
:1046700009F06CCF65E176E080E695E00E945A048F
:10468000C0CC80E695E00E942F077C01082F0E9495
:104690001407FF2423E3E216F10409F4B4C0CCF4B8
:1046A00041E3E416F10409F152E3E516F10409F4DB
:1046B0006BC062E975E080E695E00E945A0406331B
:1046C00009F042CF60E089E00E94DD0580E196E0DC
:1046D00079CE84E3E816F10409F45FC195E3E916A5
:1046E000F10439F70E946A18E4CF65E374E080E6CC
:1046F00095E00E945A048091C4028F3F49F56CE214
:1047000074E080E695E00E945A046CE174E080E673
:1047100095E00E945A040E946E19F6010190002053
:10472000E9F7CF018358934066E074E0429758F46C
:1047300080918203811113C06FEF88E890E00E949E
:10474000FB2866EF73E080E695E00E945A04B1CF43
:1047500064EC72E080E695E00E94EE10D6CF40EA6D
:1047600050E068E870E082E893E00E94F1280E943F
:10477000311062E873E080E695E00E94EE108EEE64
:1047800093E00E94371095CF63E774E080E695E0F0
:104790000E945A0465ED72E080E695E00E94EE10FA
:1047A00068E674E080E695E00E945A040E946E1963
:1047B000F60101900020E9F7CF0183589340069756
:1047C00018F060E474E0BFCF80918203811108C0CB
:1047D0006FEF82E890E00E94FB286CE574E0B3CFB5
:1047E00040EA50E062E870E082E893E00E94F1283D
:1047F0000E94311062E873E080E695E00E94EE10BE
:1048000084E594E0BECF0E94E00C20933105309304
:10481000320540933305509334056093350570930A
:1048200036058AE00E9414070E9431100E94F010A1
:104830006DEA74E080E695E00E945A040E946E19C9
:10484000F60101900020E9F7CF01835893406EE90B
:1048500074E0479708F077CF41E050E06CEC71E0EE
:1048600082E893E00E941518BC0182EE92E00E945B
:10487000892B42E050E06CEC71E082E893E00E940A
:104880001518BC018FEE92E00E94892B8BEE92E00E
:104890000E941908782EE091E202E154E33108F019
:1048A0002CC00E2E000CFF0BE85AFB4D0C94532B22
:1048B00077247D247D24B0247D24B2247D247D248E
:1048C0007D246B247D247D24A324AE24AC247D246C
:1048D0007D247D24AA248091E30211E0813669F0D1
:1048E0008091E40216E08E3641F017E006C0809118
:1048F000E30214E0803709F018E086EE92E00E94AF
:104900001908A82E8FEE92E00E941908E82E82EF77
:1049100092E00E941908F82E85EF92E00E94190893
:104920007092310510933205A0923305E092340560
:10493000F0923505809336050E941004811114C051
:104940008FE894E01ECF8091E40213E08237A9F251
:1049500015E0D3CF19E0D1CF1AE0CFCF1BE0CDCFF8
:104960001CE0CBCF12E0C9CF0E946E0E0E94E00C7B
:10497000209331053093320540933305509334052D
:1049800060933505709336056EE774E080E695E038
:104990000E945A040E94F0108CCE64E275E080E61A
:1049A00095E00E945A04F12CE12C412C512C32014B
:1049B0004394842D0E94060487E395E00E94020A36
:1049C000811175C064E075E080E695E00E945A04AC
:1049D000FFE0F41518F080E30E94140740E1C301E2
:1049E000B2010E9446102FEFE21AF20A4FEF441A6A
:1049F000540A640A740A5FE745165104610471049D
:104A0000C1F6EF2831F462ED74E080E695E00E9493
:104A10005A0466E875E080E695E00E945A048EE04C
:104A20000E94330E87FD5AC080914505811156C002
:104A300066E775E080E695E00E945A040E94E00C6B
:104A4000209331053093320540933305509334055C
:104A500060933505709336050E94F0108AE591E069
:104A60000E94DF1068E675E080E695E00E945A0437
:104A70000E94530B811139C083E695E00E943710E4
:104A800068E475E080E695E00E945A0469E375E009
:104A900080E695E00E945A046DE375E080E695E0BB
:104AA0000E945A040E946A1862E975E04CCE843074
:104AB00009F09CCF68EE74E080E695E00E945A040D
:104AC0003FE0341518F080E30E94140740E1C30171
:104AD000B2010E9446100E94311088CF61E875E053
:104AE00080E695E00E945A04B9CF6FE575E080E654
:104AF00095E00E945A040E94400F6AE575E080E646
:104B000095E00E945A0460918B0470E090E080E090
:104B10004AE00E94461065E575E080E695E00E9457
:104B20005A0460918A0470E090E080E04AE00E94BC
:104B3000461084EC91E00E94DF10A2CF80E391E068
:104B400090936105809360058091B7029091B802BF
:104B50008056954071F4E0917305F0917405908151
:104B6000809175058095892380831092B8021092F8
:104B7000B7020895FC0188279927E89421912032F3
:104B8000E9F3293010F02E30C8F32B3241F02D32EA
:104B900039F4689404C00E943026820F911D21913F
:104BA00020532A30C0F31EF4909581959F4F0895AD
:104BB000FB01DC010D900020E9F7119705900D92A3
:104BC0000020E1F70895FB01DC0105900D92002023
:104BD000E1F70895FB0155915523A9F0BF01DC01D0
:104BE0004D9145174111E1F759F4CD010590002091
:104BF00049F04D9140154111C9F3FB014111EFCF2F
:104C000081E090E0019708954FE755E00E94092662
:104C10000895FA01A191B081009719F41097E1F07D
:104C2000CD01DC01CD010D90002011F4C00113C0B5
:104C3000FB012191222319F02015D9F7F3CFFB01B5
:104C40002191201519F41E92119606C02223C1F756
:104C50000D900020A1F7D001FA01A193B08308952F
:104C60007AE0979F902D879F802D910D11240895B4
:104C7000AEE0B0E0EEE3F6E20C9417290D891E8950
:104C80008EE08C831A8309838FEF9FE79E838D8349
:104C9000AE01475E5F4F6F89788DCE0101960E940D
:104CA0005B262F813885020F131FF80110822E9684
:104CB000E4E00C943329ABE0B0E0E1E6F6E20C94DA
:104CC00009297C013B018A01FC011782168283813C
:104CD00081FFC8C1CE0101965C01F7019381F30108
:104CE00093FD859193FF81913F01882309F453C17E
:104CF000853239F493FD859193FF81913F0185328F
:104D000029F4B70190E00E944B28E7CF912C212C89
:104D1000312CFFE1F31538F08B3211F190F4803231
:104D200009F1833229F137FC3CC020ED280F2A30ED
:104D300050F536FE20C08AE0989E200D1124922E58
:104D400006C08D3291F0803371F7689430F8F3012A
:104D500093FD859193FF81913F018111DACF21C0AD
:104D6000689431F8689432F8F2CF689433F8EFCF52
:104D7000689434F8ECCFEAE02E9E200D1124222E08
:104D8000689435F8E4CF8E3229F436FC04C1689477
:104D900036F8DDCF8C3619F4689437F8D8CF8836DA
:104DA000B1F2982F9F7D95549330E0F08336A1F1B6
:104DB0008337C1F1833509F063C02801F2E04F0E5B
:104DC000511CF801C080D180692D70E036FC02C012
:104DD0006FEF7FEFC6010E9435284C01689437F8C9
:104DE00082010AC00C5F1F4FFFE3F983882483947C
:104DF000912C6501E89437F833FE2DC0522C8114B4
:104E0000910471F5552009F468CFB70180E290E074
:104E10000E944B285A94F6CFF801808189830E5F57
:104E20001F4FE4CF2801F2E04F0E511CF801C08063
:104E3000D180692D70E036FC02C06FEF7FEFC601B4
:104E40000E9440284C018201D5CFB70180E290E05A
:104E50000E944B282A942814190409F0B0F7CECFE9
:104E6000F60137FC859137FE81916F01B70190E023
:104E70000E944B2851105A94F1E08F1A9108BFCF2D
:104E8000843619F0893609F077C0F80137FE6BC017
:104E900060817181828193810C5F1F4FF32DFF76BA
:104EA0003F2E97FF09C090958095709561957F4F33
:104EB0008F4F9F4F689437F82AE030E0A5010E9499
:104EC0007B28C82ECA188C2C432C36FE0CC0E894C4
:104ED00040F8C91440F434FE05C032FC03C0F32D81
:104EE000FE7E4F2E892C44FE95C0FE01EC0DF11D77
:104EF0008081803309F087C0242D297E422E842DA5
:104F00008870582E43FC95C040FE8FC09C2C8214A4
:104F100018F42C0C922C981844FE91C0B70180E331
:104F200090E00E944B2842FE09C088E790E041FED5
:104F300002C088E590E0B7010E944B28C91408F42C
:104F40008AC0CA94D12C9FEFC91AD90ACA0CDB1C9B
:104F5000F60182916F01B70190E00E944B28AC14DA
:104F6000BD04B1F74FCF60817181072E000C880B13
:104F7000990B0E5F1F4F92CFD32CE894D4F82AE000
:104F800030E0853739F1232D297FD22E8F3601F17C
:104F900048F48835A9F0F701868197812B96E2E1E4
:104FA0000C942529803749F08837A9F7D4FE02C030
:104FB0006894D2F820E130E00DC06894D4F8F6CFC0
:104FC00034FE03C0822F8660D82E20E132E002C07A
:104FD00028E030E0F801D7FE0FC060817181828146
:104FE00093810C5F1F4FA5010E947B28C82ECA1811
:104FF0003D2CE89437F867CF6081718190E080E0C4
:105000000E5F1F4FF0CF42FC02C0839478CF839491
:10501000839475CF842D867809F471CFF6CFB701CC
:1050200080E290E00E944B2883948214C0F3512CBC
:1050300073CF522C5818821408F46ECFF8CF842DF9
:10504000867809F47BCF8BE241FE80E247FC8DE25B
:10505000B70190E071CFB70180E390E00E944B2848
:105060009A946CCF8FEF9FEF99CFFC010590615020
:1050700070400110D8F7809590958E0F9F1F08956E
:10508000FC016150704001900110D8F78095909517
:105090008E0F9F1F08950F931F93CF93DF93182FA9
:1050A000092FEB018B8181FD09C01FEF0FEF812FCD
:1050B000902FDF91CF911F910F91089582FF14C01F
:1050C0002E813F818C819D81281739073CF4E8812E
:1050D000F981CF0101969983888310838E819F8106
:1050E00001969F838E83E3CFE885F985812F09950B
:1050F000892BA1F3DACFFA01AA27283051F1203108
:1051000081F1E8946F936E7F6E5F7F4F8F4F9F4F5B
:10511000AF4FB1E03ED0B4E03CD0670F781F891F9D
:105120009A1FA11D680F791F8A1F911DA11D6A0F6B
:10513000711D811D911DA11D20D009F468943F911E
:105140002AE0269F11243019305D3193DEF6CF011D
:105150000895462F4770405D4193B3E00FD0C9F7E3
:10516000F6CF462F4F70405D4A3318F0495D31FD50
:105170004052419302D0A9F7EACFB4E0A6959795A3
:10518000879577956795BA95C9F700976105710579
:1051900008959B01AC010A2E0694579547953795C3
:1051A0002795BA95C9F7620F731F841F951FA01D1D
:1051B0000895DC01CB01FC01F999FECF06C0F2BDD8
:1051C000E1BDF89A319600B40D9241505040B8F7C5
:1051D0000895F999FECF92BD81BDF89A992780B5BF
:1051E0000895DC01CB0103C02D910E94FC284150A1
:1051F0005040D0F70895262FF999FECF1FBA92BDDF
:1052000081BD20BD0FB6F894FA9AF99A0FBE0196A7
:1052100008952F923F924F925F926F927F928F925A
:105220009F92AF92BF92CF92DF92EF92FF920F9335
:105230001F93CF93DF93CDB7DEB7CA1BDB0B0FB63F
:10524000F894DEBF0FBECDBF09942A8839884888FC
:105250005F846E847D848C849B84AA84B984C88492
:10526000DF80EE80FD800C811B81AA81B981CE0F89
:10527000D11D0FB6F894DEBF0FBECDBFED0108956E
:105280005058BB27AA270E9458290C94372A0E94FD
:10529000292A38F00E94302A20F039F49F3F19F46F
:1052A00026F40C94262A0EF4E095E7FB0C94202AB1
:1052B000E92F0E94482A58F3BA1762077307840738
:1052C000950720F079F4A6F50C946A2A0EF4E0957F
:1052D0000B2EBA2FA02D0B01B90190010C01CA01B0
:1052E000A0011124FF27591B99F0593F50F4503E5B
:1052F00068F11A16F040A22F232F342F4427585F4D
:10530000F3CF469537952795A795F0405395C9F764
:105310007EF41F16BA0B620B730B840BBAF091501C
:10532000A1F0FF0FBB1F661F771F881FC2F70EC0BB
:10533000BA0F621F731F841F48F48795779567958E
:10534000B795F7959E3F08F0B0CF9395880F08F07A
:105350009927EE0F9795879508950E94B429689430
:10536000B1110C946B2A08950E94502A88F09F571F
:1053700098F0B92F9927B751B0F0E1F0660F771F79
:10538000881F991F1AF0BA95C9F714C0B13091F06F
:105390000E946A2AB1E008950C946A2A672F782F38
:1053A0008827B85F39F0B93FCCF386957795679534
:1053B000B395D9F73EF490958095709561957F4FA0
:1053C0008F4F9F4F0895E89409C097FB3EF4909546
:1053D0008095709561957F4F8F4F9F4F9923A9F0CE
:1053E000F92F96E9BB279395F6958795779567955D
:1053F000B795F111F8CFFAF4BB0F11F460FF1BC0A1
:105400006F5F7F4F8F4F9F4F16C0882311F096E933
:1054100011C0772321F09EE8872F762F05C06623E1
:1054200071F096E8862F70E060E02AF09A95660F9A
:10543000771F881FDAF7880F9695879597F9089553
:1054400097F99F6780E870E060E008959FEF80EC37
:10545000089500240A9416161706180609060895DA
:1054600000240A9412161306140605060895092E40
:105470000394000C11F4882352F0BB0F40F4BF2BAF
:1054800011F460FF04C06F5F7F4F8F4F9F4F0895EF
:1054900057FD9058440F551F59F05F3F71F04795E5
:1054A000880F97FB991F61F09F3F79F087950895CA
:1054B000121613061406551FF2CF4695F1DF08C0E9
:1054C000161617061806991FF1CF86957105610506
:1054D00008940895E894BB2766277727CB0197F9AE
:1054E00008950E94842A0C94372A0E94292A38F0B1
:1054F0000E94302A20F0952311F00C94202A0C945D
:10550000262A11240C946B2A0E94482A70F3959F36
:10551000C1F3950F50E0551F629FF001729FBB27AA
:10552000F00DB11D639FAA27F00DB11DAA1F649F46
:105530006627B00DA11D661F829F2227B00DA11DF9
:10554000621F739FB00DA11D621F839FA00D611D7F
:10555000221F749F3327A00D611D231F849F600DA0
:10556000211D822F762F6A2F11249F5750409AF0C9
:10557000F1F088234AF0EE0FFF1FBB1F661F771F55
:10558000881F91505040A9F79E3F510580F00C9420
:10559000202A0C946B2A5F3FE4F3983ED4F386955F
:1055A00077956795B795F795E7959F5FC1F7FE2BC0
:1055B000880F911D9695879597F90895991B79E025
:1055C00004C0991F961708F0961B881F7A95C9F793
:1055D00080950895AA1BBB1B51E107C0AA1FBB1FE2
:1055E000A617B70710F0A61BB70B881F991F5A956F
:1055F000A9F780959095BC01CD01089597FB072EE2
:1056000016F4009407D077FD09D00E94EA2A07FC1F
:1056100005D03EF4909581959F4F089570956195C2
:105620007F4F0895A1E21A2EAA1BBB1BFD010DC0DE
:10563000AA1FBB1FEE1FFF1FA217B307E407F50742
:1056400020F0A21BB30BE40BF50B661F771F881F1E
:10565000991F1A9469F760957095809590959B01B4
:10566000AC01BD01CF010895052E97FB1EF40094F7
:105670000E944B2B57FD07D00E94122B07FC03D032
:105680004EF40C944B2B50954095309521953F4FFF
:105690004F4F5F4F089590958095709561957F4F1E
:1056A0008F4F9F4F0895EE0FFF1F0590F491E02D4F
:1056B0000994A29FB001B39FC001A39F700D811DEB
:1056C0001124911DB29F700D811D1124911D08950B
:1056D0000E94592BA59F900DB49F900DA49F800D03
:1056E000911D11240895FB01DC010D900020E9F7C4
:1056F000119701900D920020E1F70895FC0181912E
:10570000861721F08823D9F7992708953197CF017B
:105710000895FB01DC0101900D920020E1F708954E
:10572000DC015D91552331F0FB010190051601105C
:10573000E1F7B9F7809590958A0F9B1F0895FB01BB
:1057400051915523A9F0BF01DC014D91451741113D
:10575000E1F759F4CD010190002049F04D91401539
:105760004111C9F3FB014111EFCF81E090E00197B6
:10577000089513E0C1E9D3E004C0FE010E94532B59
:0C5780002196C239D107C9F7F894FFCF79
:10578C00F401F40101072413000000001E057E043F
:10579C00AB046B05DC04BA04CE0400000000D30992
:1057AC00A609640BB7069F098C097D09000000004F
:1057BC00B8067E04640BB70619072F079F06466CC4
:1057CC00743A004176723A0066696C743A00206152
:1057DC0076673A000D0A4F4B0D0A000D0A455252DE
:1057EC004F520D0A002E002B435351003A20002B30
:1057FC0043434C4B3F002F2C3A2B22002B43504958
:10580C004E3F002B435245473F00435245473A0019
:10581C002B47534E002B3739323738373234383523
:10582C003800737472696E673D00737461743D0067
:10583C00533030303000312E30002053573A5B005B
:0E584C002B434C4343002B43485550002C0087
:00000001FF
