:100000000C94A3030C94CB030C94CB030C94511CC1
:100010000C94511C0C94511C0C94CB030C94CB03EA
:100020000C94CB030C94E81D0C94CB030C94CB03E1
:100030000C94CB030C94CB030C94CB030C94CB0308
:100040000C94AF1B0C94CB030C941F1C0C94F91B49
:100050000C94CB030C94CB030C94CB030C94CB03E8
:100060000C94C91C0C94CB0354696D653D002F257D
:10007000642F2564000A31366820002F25642F255F
:1000800064000A31346820002F25642F2564000A9B
:1000900031326820002F25642F2564000A3668203D
:1000A000004B67000A43617574696F6E21205765C4
:1000B000696768742000457863656C6C656E7400D0
:1000C000476F6F64004F4B00426164000A536967D9
:1000D0003D25642F000A4261743D25642E2530328F
:1000E0006456282564252529000A48756D20256455
:1000F00025252C205420252B6443006B672E002BD4
:10010000000A54696D652025643A25303264000A7E
:10011000576569676874204761696E3A20006B67AC
:100120002E0025733D004C4F5720424154544552F8
:100130005920210A0025642E25303264002D002B21
:100140004350494E3A4E4F2053494D002B4350499E
:100150004E3A524541445900556E6B6E6F776E00B2
:10016000526567697374657265642C20726F616D86
:10017000696E6700526567697374726174696F6E46
:100180002064656E69656400536561726368696EB9
:10019000672061206E6577206F70657261746F7281
:1001A00000526567697374657265642C20686F6DB1
:1001B00065206E6574776F726B004E6F7420726588
:1001C0006769737465726564002053746174757334
:1001D0003A20005472793A0074696D656F75742E17
:1001E0002E2E00436F6E6E6563742E2E2E200052ED
:1001F0005353493D00434F4E4E4543545F4F4B2EA2
:100200000053494D5F4F4B2E000D4E4F5F53494DEC
:100210002E004D4F44454D5F4F4B2E005265626F8F
:100220006F74204D6F64656D0054696D6520576172
:100230007320536574002054696D656F7574000DEB
:100240000A004154001F1C1F1E1F1E1F1F1E1F1EC1
:100250001F534D532073656E64204641494C005333
:100260004D532073656E64204F4B000A7472796998
:100270006E6720746F2073656E6420736D732E2E0D
:100280002E00534D532073656E64204F4B00534D29
:10029000532073656E64204641494C000D4552520F
:1002A0004F5221204E756D626572204E6F7420533F
:1002B0006574004F4B004661696C20002064656CDA
:1002C00074613D00202B6F6E654B673D000D7A65B4
:1002D000726F4B673D002053617665642E0020539A
:1002E000617665642E004E756D62657220436C65A3
:1002F000617265642E004552524F5221204D617843
:10030000203134206469676974732E000D456E7462
:100310006572204E756D6265723A2000204E6F74D2
:1003200020536574000D43757272656E743A200037
:100330002053617665642E00494420436C656172E8
:1003400065642E004552524F5221204D6178203570
:100350002063686172732E000D456E7465722049CA
:10036000443A000D43757272656E743A20000D4E6A
:10037000657720446174652F54696D653A20000DDE
:100380004552524F522120466F726D6174000D45E7
:1003900052524F5221204C656E677468000D456EB5
:1003A00074657220446174652C2054696D653A202F
:1003B0004A616E203120323032322C48483A4D4D5D
:1003C00020000D0A4E6F2049324320646576696330
:1003D000657320666F756E64000D0A556E6B6E6FE7
:1003E00077206572726F7220617420616464726537
:1003F0007373203078000D0A4932432064657669B2
:10040000636520666F756E64206174206164647238
:10041000657373203078000D0A5363616E6E696EE8
:100420006720493263206275732E2E2E004F4B2EAB
:1004300000546573742047534D3A0054657374201B
:1004400048583731313A002520543D002052483D6C
:10045000004F4B2E004641494C00546573742053A5
:1004600049373032303A20004F4B2E2044617465BA
:100470003A20004641494C000D0A546573742052DD
:1004800054433A20000D0A4D454E553A20200D0A9E
:10049000312D5253534920200D0A322D494D4549E3
:1004A00020200D0A332D54696D6520200D0A392D49
:1004B000434D4420200D0A302D4578697420200DCD
:1004C0000A506C656173652073656C6563742030D8
:1004D0002E2E3920200D0A3E004279652100616EE2
:1004E000737765723A000D4154000D4552524F52D8
:1004F000000D4E657720446174652F54696D653A2F
:1005000020004552524F52000D0A494D45493A00CC
:100510000D0A525353493D000D0A4D454E553A20A0
:10052000200D0A312D4368616E6765204D6173743B
:100530006572204E756D62657220200D0A322D5352
:10054000657420494420200D0A332D5365742044DE
:100550006174652F54696D6520200D0A342D546532
:10056000737420486172647761726520200D0A35CA
:100570002D546573742047534D20200D0A362D43AA
:10058000616C6962726174696F6E2041444320201E
:100590000D0A372D5465726D6F636F6D70656E73E4
:1005A0006174696F6E20200D0A382D44656661758F
:1005B0006C742073657474696E677320200D0A3043
:1005C0002D4578697420200D0A506C656173652093
:1005D00073656C65637420302E2E3520200D0A3E25
:1005E00000427965210054696D656F75742E2E2E59
:1005F000004552524F522E004F4B2E000D436F6E4E
:100600006E656374696F6E20746F2047534D2E2E94
:100610002E004B616C696272005465737420534DF7
:1006200053007D002C225732223A007B2254494D40
:1006300045223A22253032643A25303264222C2277
:1006400054223A25642C225248223A25642C2257FF
:100650004549474854223A005620446174653A207F
:10066000002E0020566261743D00204D6173746558
:10067000723A005D2049443A0046656220313520D7
:1006800032303233000D0A48573A004C4F5720564B
:100690004F4C5441474521212100204E756D626524
:1006A00072204E6F74205365740000000000240017
:1006B00027002A00000000080002010000030407D0
:1006C000000000000000000041542B434D47533D03
:1006D00022004552524F5221204E756D62657220A4
:1006E0006E6F742053657400253032752F253032BB
:1006F000752F2530347520253032753A2530327506
:100700003A25303275000000000023002600290041
:1007100000000000250028002B0004040404040449
:1007200004040202020202020303030303030102A0
:10073000040810204080010204081020010204086F
:1007400010205A1E572911241FBECFEFD8E0DEBF5C
:10075000CDBF25E0A6ECB1E001C01D92A039B207E3
:10076000E1F711E0A0E0B1E0E4E5F1E602C00590B8
:100770000D92A63CB107D9F713E0C2EAD3E004C05A
:100780002197FE010E94122FC13AD107C9F70E949A
:10079000641F0C949D300C94000061157105810557
:1007A0009105E1F581E090E0A0E0B0E080938B045A
:1007B00090938C04A0938D04B0938E048CEC9EE0F7
:1007C00090938A0480938904809170008E7F809337
:1007D00070008091B0008C7F8093B0008091B10058
:1007E000877F8093B1008091B6008F7D8093B600A3
:1007F000809170008D7F809370008091B100846043
:100800008093B1008091B1008C7F8093B10083E828
:1008100090E09093880480938704089560938B04FC
:1008200070938C0480938D0490938E04C7CF91E0D5
:1008300090931704809339041092180410923A048C
:1008400008950895089580912D059FEF980F9C308D
:1008500090F590912E052FEF290F2F3160F5209103
:100860002F05283140F5209130052C3320F52091BB
:1008700031052C3300F5823001F59E31E0F49D31D5
:1008800041F520912C0530E02053384FC901837089
:100890009927892B81F4C90164E670E00E94A92E92
:1008A000892BB9F4C90160E971E00E94A92E9C016D
:1008B00081E0232B79F080E008959F3151F481503D
:1008C000990B67E070E00E94BD2E80959095817035
:1008D000089581E00895833081F028F4813099F003
:1008E0008230A9F008958730A9F08830C9F08430AB
:1008F000B1F4809180008F7D03C0809180008F775C
:1009000080938000089584B58F7784BD089584B561
:100910008F7DFBCF8091B0008F778093B0000895DA
:100920008091B0008F7DF9CFCF93DF93282F30E0F7
:10093000F901EC54F94F8491F901E25DF84FD4913B
:10094000F901E65EF84FC491CC23A1F081110E9419
:100950006B04EC2FF0E0EE0FFF1FEA5FF84FA5915C
:10096000B491EC91ED2381E090E009F480E0DF9117
:10097000CF91089580E090E0FACF1F93CF93DF935B
:10098000282F30E0F901EC54F94F8491F901E25D30
:10099000F84FD491F901E65EF84FC491CC23A9F049
:1009A000162F81110E946B04EC2FF0E0EE0FFF1F59
:1009B000E05FF84FA591B4918FB7F894EC911111C5
:1009C00008C0D095DE23DC938FBFDF91CF911F91BC
:1009D0000895DE2BF8CFCF93DF9390E0FC01E25D2A
:1009E000F84F2491865E984FFC0184918823C9F0CA
:1009F00090E0880F991FFC01E655F94FA591B4913D
:100A0000FC01E05FF84FC591D49161110DC09FB713
:100A1000F8948C91209582238C93888128232883B5
:100A20009FBFDF91CF910895623051F49FB7F89442
:100A30003C91822F809583238C93E8812E2BEFCFDE
:100A40008FB7F894EC912E2B2C938FBFEACF833085
:100A5000910528F0880F991F04970197F1F70895E1
:100A60003FB7F8948091A3029091A402A091A502AF
:100A7000B091A60226B5A89B05C02F3F19F001969C
:100A8000A11DB11D3FBFBA2FA92F982F8827BC01E8
:100A9000CD01620F711D811D911D43E0660F771F0F
:100AA000881F991F4A95D1F708958F929F92AF9210
:100AB000BF92CF92DF92EF92FF926B017C010E9476
:100AC00030054B015C01C114D104E104F104B9F01B
:100AD0000E943005681979098A099B09683E7340AC
:100AE0008105910580F321E0C21AD108E108F108DF
:100AF00088EE880E83E0981EA11CB11CE4CFFF9005
:100B0000EF90DF90CF90BF90AF909F908F9008951F
:100B10002FB7F89460919F027091A0028091A1027A
:100B20009091A2022FBF0895EF92FF920F931F930F
:100B3000CF93DF938C017B01D0E0C0E0F701EC0F95
:100B4000FD1F6491662361F0D801ED91FC91019045
:100B5000F081E02DC8010995892B11F02196EECF87
:100B6000CE01DF91CF911F910F91FF90EF900895EB
:100B7000AF92BF92CF92DF92EF92FF920F931F93AB
:100B8000CF93DF936C017B018B01040F151FEB01E9
:100B90005E01AE18BF08C017D10759F06991D601A0
:100BA000ED91FC910190F081E02DC6010995892B12
:100BB00079F7C501DF91CF911F910F91FF90EF90D1
:100BC000DF90CF90BF90AF900895FC01538D448D7E
:100BD000252F30E0842F90E0821B930B541710F0E8
:100BE000CF96089501970895FC01918D828D9817F5
:100BF00061F0A28DAE0FBF2FB11D5D968C91928DCD
:100C00009F5F9F73928F90E008958FEF9FEF0895FD
:100C1000FC01918D828D981731F0828DE80FF11DC6
:100C2000858D90E008958FEF9FEF0895FC01918DE1
:100C3000228D892F90E0805C9F4F821B91098F73DA
:100C4000992708958FE894E00E94160621E0892BE9
:100C500009F420E0822F089580E090E0892B29F0AC
:100C60000E94220681110C9400000895FC01A48DBD
:100C7000A80FB92FB11DA35ABF4F2C91848D90E0BE
:100C800001968F739927848FA689B7892C93A089A1
:100C9000B1898C91837080648C93938D848D98132B
:100CA00006C00288F389E02D80818F7D80830895BE
:100CB000EF92FF920F931F93CF93DF93EC0181E0AC
:100CC000888F9B8D8C8D98131AC0E889F989808153
:100CD00085FF15C09FB7F894EE89FF896083E88986
:100CE000F98980818370806480839FBF81E090E078
:100CF000DF91CF911F910F91FF90EF900895F62E05
:100D00000B8D10E00F5F1F4F0F731127E02E8C8D9E
:100D10008E110CC00FB607FCFACFE889F9898081E3
:100D200085FFF5CFCE010E943606F1CFEB8DEC0F9B
:100D3000FD2FF11DE35AFF4FF0829FB7F8940B8F00
:100D4000EA89FB8980818062CFCFCF93DF93EC016A
:100D5000888D8823B9F0AA89BB89E889F9898C91A3
:100D600085FD03C0808186FD0DC00FB607FCF7CF5F
:100D70008C9185FFF2CF808185FFEDCFCE010E945F
:100D80003606E9CFDF91CF9108952091840230910A
:100D900085022817390771F49091820280918302AD
:100DA000981741F0E0918202F0E0EE5BFD4F808108
:100DB00090E008958FEF9FEF08950895EF92FF92CE
:100DC0000F931F93CF93DF93DC015C96ED90FC9023
:100DD0005D97E114F10479F481E090E013969C931F
:100DE0008E93129790E080E0DF91CF911F910F9149
:100DF000FF90EF9008955196ED91FC915297509687
:100E00008C915097982F90950FB75E962C915E9786
:100E1000122F127021FD6095F8942081112319F191
:100E2000282B2083E7012197F1F728E0462F50E097
:100E3000308160FF1AC0382B3083E7012197F1F72A
:100E4000BA0175956795215089F7112381F080814A
:100E5000892380830FBF5C968D919C910197F1F758
:100E600081E090E0C1CF2923DCCF3923E5CF908109
:100E7000892BEFCF682F8BE695E00C94DE0620914E
:100E80008402309185022817390761F4809183022A
:100E90002091820290E0805C9F4F821B91098F73AA
:100EA0009927089590E080E0089520918402309180
:100EB000850228173907B9F4909182028091830244
:100EC000981789F0E0918202F0E0EE5BFD4F80819F
:100ED0002091820230E02F5F3F4F2F733327209302
:100EE000820290E008958FEF9FEF0895DC0150E0BB
:100EF000E5E4F2E081E0861730F49491490F511D4A
:100F00008F5F3196F8CF633038F0CD018370992729
:100F1000892B11F44F5F5F4F9D012D5F3F4F369539
:100F20002795369527956DE671E0A69FC001A79F8E
:100F3000900DB69F900D11240197820F931F840F7F
:100F4000951F08954F925F926F927F928F929F921A
:100F5000AF92BF92CF92DF92EF92FF92CF93DF9347
:100F6000EC016A017B012CE3822E912CA12CB12C87
:100F7000CB01BA01A50194010E94D12E6D83CA0153
:100F8000B901A50194010E94D12E6C83C701B6015D
:100F900020E13EE040E050E00E94D12ECA01B901BC
:100FA00028E130E040E050E00E94D12E6B83C70181
:100FB000B60120E831E541E050E00E94D12E1882D0
:100FC00063E9862E6EEF962EAA24AA94BA2C888105
:100FD000782F7370C12CD12C7601C394772319F02C
:100FE000C12CD12C7601260137019DE6490E91E0F6
:100FF000591E611C711C241535054605570578F0EE
:10100000240135014C185D086E087F0873016201E8
:101010002C0D3D1D4E1D5F1D8F5F8883D8CF81E055
:1010200089836981862F8150990BFC01EB5BFD4F11
:10103000E491711103C0623009F4EF5F8E2F90E0EC
:10104000B0E0A0E0281739074A075B0738F0281BF3
:10105000390B4A0B5B0B6F5F6983E3CF2F5F2A83EA
:10106000DF91CF91FF90EF90DF90CF90BF90AF9046
:101070009F908F907F906F905F904F900895FC01AC
:101080009F012F5F3F4F80818F7E803269F080E02B
:101090002AE0919130ED390F3A3040F4829F900D63
:1010A000112480ED890FF5CFF901EACF0895FC01F5
:1010B00083858F3F19F061E00C94BD040895FC0115
:1010C00080819181892B39F0A281B3819C91119605
:1010D0008C919CBD8DBD83858F3F19F060E00C9491
:1010E000BD040895AF92BF92CF92DF92EF92FF922C
:1010F0000F931F93CF93DF93EC0188819981892B04
:1011000089F06EBD0DB407FEFDCFBEB48B2DDF910F
:10111000CF911F910F91FF90EF90DF90CF90BF90F4
:10112000AF9008958885998511E0892B09F010E822
:10113000AA24A394862F812309F0A12C062F2C81A9
:101140003D814E815F8160E271EA87E090E00E941C
:10115000D12EF22EB02EE12CC22ED12CFF2019F070
:10116000C6010E9427058A85877F09F042C08D85C8
:101170008F3F89F0902F912381E009F480E08A1558
:1011800051F0EF85F8898F89992369F19081892B36
:101190008083AA24A394E989FA898081998D892B77
:1011A0008083FF2019F0C6010E9427058E858F3F9E
:1011B00039F0EB89FC898081988D892309F0E12A37
:1011C000E989FA899081898D8095892380838E852C
:1011D0008F3F09F0BE2C88859985892BB9F5110FB1
:1011E0001111BCCF93CF9081809589238083A12C4E
:1011F000D2CFE989FA898081998D892B8083FF205C
:1012000019F0C6010E9427058D858F3F49F0EF85B3
:10121000F8898F89902F9123A9F09081892B808361
:10122000E989FA899081898D8095892380838E85CB
:101230008F3F69F2EB89FC898081988D892339F28F
:10124000E12AC5CF908180958923E9CF1695C8CF33
:101250008F929F92AF92BF92CF92DF92EF92FF92C6
:101260000F931F93CF93DF937C014B016A01B22E42
:10127000A32E0E945F08E401C80CD91CCC15DD0523
:1012800069F4CB2DDA2D0C0F1D1FC017D10759F0B3
:101290006FEFC7010E9472088993F7CF6991C70168
:1012A0000E947208EBCFC7010E94570881E0DF91CE
:1012B000CF911F910F91FF90EF90DF90CF90BF9053
:1012C000AF909F908F9008958F929F92AF92BF9210
:1012D000CF92DF92EF92FF920F931F93CF93DF9302
:1012E0007C01B62EA72E6A0149010E945F08E40125
:1012F000080D191DC017D10761F4CB2DDA2DCC0EC6
:10130000DD1ECC15DD0551F06991C7010E94720800
:10131000F8CF6991C7010E947208ECCFC7010E9403
:10132000570881E0DF91CF911F910F91FF90EF90CF
:10133000DF90CF90BF90AF909F908F9008952091B5
:101340001F02260F3327331F21323105ECF4209181
:101350008104FC0190E080E0243069F082E008958F
:10136000A0911F022191AC0141505E4FA40FB52FF7
:10137000B11D2C930196861798F380911F02680F78
:1013800060931F0280E0089581E008951092810427
:1013900081E08093600410925B0461E082E10E942E
:1013A000BD0461E083E10E94BD04E9EBF0E08081CF
:1013B0008E7F808380818D7F808380E28093B800E0
:1013C00085E48093BC0008951092120410921104D9
:1013D0001092180410923A040E94C60981E294E027
:1013E0009093FC038093FB0382E294E09093FA03D2
:1013F0008093F9030895CF93DF9391E09093FE01DA
:101400008823B9F0C091B800D091BA008091BC0097
:101410008A7B8093BC0060E082E10E94BD0460E0B2
:1014200083E10E94BD040E94C609D093BA00C09314
:10143000B800DF91CF9108958F929F92AF92BF92A3
:10144000CF92DF92EF92FF920F931F93CF93DF9390
:10145000D82FC62F142F613208F09CC00E9430058F
:101460006B017C018091810481116FC081E08093C8
:101470008104109360049FEF90935F0410925E04C8
:101480009C0F90935D0480935C0480915C04DD0F5D
:10149000D82BD0935C0480915B04813009F07CC030
:1014A00010925B040E9430056B017C0180915C040A
:1014B0008093BB008091830490918404A091850463
:1014C000B0918604892B8A2B8B2BA1F00E943005CA
:1014D0000091830410918404209185043091860446
:1014E0006C197D098E099F09061717072807390708
:1014F00008F44CC08091BC0083FDD8CF85EC80936C
:10150000BC000E9430056B017C0180918104813018
:1015100009F444C080915E048C1710F4C0915E04FD
:10152000EBE3F4E0A1E6B4E080E08C1359C08C2F2B
:10153000DF91CF911F910F91FF90EF90DF90CF90AF
:10154000BF90AF909F908F90089580918304909169
:101550008404A0918504B0918604892B8A2B8B2B5F
:1015600009F480CF0E943005809083049090840419
:10157000A0908504B09086046C197D098E099F099E
:1015800086169706A806B90608F06CCF80918204EB
:101590000E94FB09C0E0CBCF85EEB1CF80918304E0
:1015A00090918404A0918504B0918604892B8A2BA4
:1015B0008B2B09F4AACF0E9430050091830410916F
:1015C000840420918504309186046C197D098E096C
:1015D0009F09061717072807390708F096CFD6CFB7
:1015E00091919D938F5FA1CF8F929F92AF92BF9267
:1015F000CF92DF92EF92FF920F931F93CF93DF93DF
:10160000D0913A04D13208F0D7C0182FC0913904D4
:101610000E9430056B017C018091810481116BC0B7
:1016200082E080938104109360048FEF80935F04C5
:1016300010925E04D0935D04A9E1B4E0EBE3F4E022
:1016400080E0D81391C010925C0480915C04CC0FB0
:10165000C82BC0935C0480915B04813009F088C082
:1016600010925B040E9430056B017C0180915C0448
:101670008093BB008091830490918404A0918504A1
:10168000B0918604892B8A2B8B2BA1F00E94300508
:101690000091830410918404209185043091860484
:1016A0006C197D098E099F09061717072807390746
:1016B00008F442C08091BC0083FDD8CF85EC8093B4
:1016C000BC000E9430056B017C0180918104823056
:1016D00009F450C080915F048F3F09F46FC080917E
:1016E0005F04803209F46CC080915F04803309F498
:1016F00069C084E026C08091830490918404A09105
:101700008504B0918604892B8A2B8B2B09F484CF16
:101710000E9430058090830490908404A0908504FA
:10172000B09086046C197D098E099F09861697066C
:10173000A806B90608F070CF809182040E94FB09C8
:1017400085E01092180410923A0410921704DF9169
:10175000CF911F910F91FF90EF90DF90CF90BF90AE
:10176000AF909F908F9008959D9191938F5F69CFD7
:1017700085EEA5CF8091830490918404A091850487
:10178000B0918604892B8A2B8B2B09F49ECF0E9463
:1017900030050091830410918404209185043091D8
:1017A00086046C197D098E099F09061717072807FB
:1017B000390708F08ACFC0CF81E0C3CF80E0C1CF26
:1017C00082E0BFCF83E0BDCF1F93CF93DF93EA01C9
:1017D000122FDC0111968D919C91DC01ED91FC9111
:1017E0000280F381E02D0995C817D90729F4812FCC
:1017F0000E94F40A91E0811190E0892FDF91CF914E
:101800001F910895CF92DF92EF92FF920F931F9353
:10181000CF93DF9300D0CDB7DEB7FC014787508B65
:10182000618B728B8285882369F14487452F562FFF
:10183000672F7727882341F143877F018BE0E80EEC
:10184000F11C9681878199838A83C080D180C114DD
:10185000D104F1F1018510E098012E5F3F4FD601D0
:1018600014968D919C918217930780F480E00F90DD
:101870000F90DF91CF911F910F91FF90EF90DF902C
:10188000CF9008954387D2CF4487D7CFF601808188
:101890000E9417040115110541F421E042E050E0D7
:1018A000B701C6010E94E40BE2CFD60111968D91DB
:1018B0009C91DC01ED91FC910280F381E02DA80167
:1018C000BE016F5F7F4F09950817190779F6E5CFBD
:1018D000A281B381109751F224813581018510E0F6
:1018E0002330310579F48E7F89839A830F5F1F4FF0
:1018F0009E012F5F3F4F42E050E0B701CD010E94B3
:101900006409B5CF2115310519F49F779983F0CF7C
:101910002230310511F49068F9CF2130310541F7BB
:101920009F779064F3CFE091120480911104E8173F
:1019300030F4F0E0EF59FB4F808190E008958FEF95
:101940009FEF089590911204809111042FEF3FEFC3
:10195000981748F4E92FF0E0EF59FB4F208130E071
:101960009F5F90931204C901089580911104909192
:101970001204891B990B0895CF92DF92EF92FF9288
:101980000F931F93CF93DF937C01CB018A012091AA
:101990001704222389F0EB016B01C40ED51ECC1570
:1019A000DD0569F06991D701ED91FC910190F0811D
:1019B000E02DC7010995F3CF642F0E949F09C8014C
:1019C000DF91CF911F910F91FF90EF90DF90CF901B
:1019D0000895CF93DF931F92CDB7DEB7698320912F
:1019E00017042223F9F020913A04203258F021E024
:1019F00030E0FC013383228390E080E00F90DF91A0
:101A0000CF91089580911804E82FF0E0E75EFB4F36
:101A1000998190838F5F8093180480933A0481E0CA
:101A200090E0ECCF61E0CE0101960E949F09F7CFD4
:101A300081E00C94F40ACF93DF93EC0180E40E94E0
:101A40001704688182E495E00E94E90C82E495E045
:101A5000DF91CF910C94180DCF93DF93EC0180911F
:101A600053050E9417048091510590915205DC01A5
:101A7000ED91FC910190F081E02D6D2F0995809101
:101A8000510590915205DC01ED91FC910190F0819E
:101A9000E02D6C2F099580915105909152050E947F
:101AA000180D882339F081E880936A0580E0DF9182
:101AB000CF91089581E0FBCF0E94E40980E40E9469
:101AC000170482E495E00E94180D811103C081E0A3
:101AD0008093F8038091F80308950F931F93CF9399
:101AE000DF93082F162F88E60E941704CEE4D5E076
:101AF00088819981DC01ED91FC910190F081E02DCC
:101B0000602F099588819981DC01ED91FC9101900C
:101B1000F081E02D612F0995888199810E94180D2F
:101B20008A83DF91CF911F910F910895CF93DF9317
:101B3000EC018B81882371F088810E9417048981D0
:101B40009A810E94180D91E0811190E0892FDF9118
:101B5000CF9108950E94E40981E08B83CE010E9419
:101B6000960D982F8111E8CFF1CF90E080E0089595
:101B70001092FA011092FB011092FC011092FD01EB
:101B80001092F90180918704909188048093B200AB
:101B9000E0E7F0E080818160808308958F929F92DA
:101BA000AF92BF92DF92EF92FF920F931F93CF936A
:101BB000DF9300D01F92CDB7DEB78EE00E94940471
:101BC000892B31F060E070E0CB010E945505F5CF24
:101BD00093E0D92E812C912C54018394DA948FEFC9
:101BE000D81225C061E08FE00E94BD0460E08FE064
:101BF0000E94BD0461E08FE00E94BD0460E08FE0C0
:101C00000E94BD042B81205869817A8190E0822F47
:101C10000F900F900F90DF91CF911F910F91FF9038
:101C2000EF90DF90BF90AF909F908F90089507E066
:101C300010E0EE24E394F12CEC0EFD1EED0CF11CF3
:101C400061E08FE00E94BD048EE00E949404B50123
:101C5000A401002E04C0440F551F661F771F0A946D
:101C6000D2F7F7012081892B51F0422B408360E0AD
:101C70008FE00E94BD040150110910F7AFCF4095CD
:101C80004223F4CFCF92DF92EF92FF920E94CE0DCB
:101C90006B017C010E94CE0DC60ED71EE81EF91EF8
:101CA0000E94CE0D6C0D7D1D8E1D9F1D23E030E02A
:101CB00040E050E00E94F32ECA01B901FF90EF907E
:101CC000DF90CF900895E0E7F0E080818E7F808301
:101CD0001092C60160E084E00E94BD0460E087E0ED
:101CE0000E94BD0460E088E00E94BD0460E089E0DD
:101CF0000C94BD04EF92FF920F931F93CF93DF9349
:101D0000C82F162F0E94630E80919D02882329F10F
:101D10001F5F08E0C73609F407E0C1E0D0E0812F7B
:101D20008150990B7C0161E0802F0E94BD0464EF1B
:101D300071E080E090E00E94550560E0802F0E94F5
:101D4000BD04EC16FD0631F064EF71E080E090E038
:101D50000E9455052196C11730F3DF91CF911F9155
:101D60000F91FF90EF90089580919D02882399F044
:101D70000E94630E80E293E090930401809303013C
:101D800080E490E0909302018093010181E08093D0
:101D9000C6010C94B80D0895CF9380919D028823BD
:101DA00041F18091C6018823E1F0C09100016C2FC0
:101DB000809107010E94BD0481E0C827C093000103
:101DC0006091030170910401C11104C0609101018F
:101DD0007091020190E080E00E94CD03CF910C94BD
:101DE000B80D809170008E7F80937000CF910C941D
:101DF000630ECF910895DC01ED91FC910190F0818B
:101E0000E02D0994CF93DF93EC0141E062E080E4A0
:101E10000E941C0A109212048093110482E495E03F
:101E20000E94A20C888382E495E00E94A20C898320
:101E300081E090E0DF91CF910895DF92EF92FF92E1
:101E40000F931F93CF93DF93CDB7DEB72C970FB6C9
:101E5000F894DEBF0FBECDBF88E60E9417048091C4
:101E60004E0590914F05DC01ED91FC910190F081C0
:101E7000E02D60E0099580914E0590914F050E94FC
:101E8000180D80935005882331F140E050E0BA01ED
:101E9000CE0101960E94A20786E0FE013196DE0186
:101EA000179601900D928A95E1F72F813885498523
:101EB0005A856B857C8580E090E02C960FB6F8946F
:101EC000DEBF0FBECDBFDF91CF911F910F91FF906D
:101ED000EF90DF90089541E067E088E60E941C0AD9
:101EE00010921204809311048730A1F084E0809353
:101EF000500540E050E0BA01CE0107960E94A207CB
:101F000086E0FE013796DE01119601900D928A95CA
:101F1000E1F7C2CF80914E0590914F05DC01ED9124
:101F2000FC910284F385E02D09958F77282F30E00E
:101F3000F4E035952795FA95E1F7922F990F990FCF
:101F4000022F091B000F080F80914E0590914F053D
:101F5000DC01ED91FC910284F385E02D09959C0153
:101F6000A4E035952795AA95E1F72F703327922F96
:101F7000990F990FF22EF91AFF0CF80E80914E0569
:101F800090914F05DC01ED91FC910284F385E02DE9
:101F9000099586FF7CC0982F9F71292F30E0E4E0DF
:101FA00035952795EA95E1F7322F330F330F122F2E
:101FB000131B110F190F85FD145F80914E05909131
:101FC0004F05DC01ED91FC910284F385E02D09952C
:101FD00080914E0590914F05DC01ED91FC910284BA
:101FE000F385E02D09959C0144E0359527954A95A8
:101FF000E1F72F703327922F990F990FE22EE91AEC
:10200000EE0CE80E80914E0590914F05DC01ED91AC
:10201000FC910284F385E02D0995D82E80914E0520
:1020200090914F05DC01ED91FC910284F385E02D48
:102030000995AC0164E0559547956A95E1F74F70B5
:102040005527942F990F990F242F291B220F280F02
:1020500030E0A9014053584FD7FE02C04C595F4FA2
:102060008D2D8F77405D4F83282F30E094E035959C
:1020700027959A95E1F7922F990F990F291B220F17
:10208000280F2887E9861A87FB860C870ECF9C01CC
:1020900074E0359527957A95E1F72F703327922FC5
:1020A000990F990F122F191B110F180F86CFCF936D
:1020B000C82F88E60E94170480914E0590914F0525
:1020C000DC01ED91FC910190F081E02D6C2F0995E0
:1020D00080914E0590914F050E94180DC82F809356
:1020E000500581111EC041E061E088E60E941C0A93
:1020F0001092120480931104813031F084E08093B7
:1021000050058C2FCF91089580914E0590914F05E9
:10211000DC01ED91FC910284F385E02D0995C82F37
:10212000F0CFC0E0EECF1F93CF93DF938FE00E94FC
:102130005710682F6F778FE00E946D0D88E60E9420
:10214000170480914E0590914F05DC01ED91FC91B3
:102150000190F081E02D60E00995A0914E05B091CD
:102160004F0520913105CAE0822F6C2F0E949D2ED1
:10217000682F660F680F660F620FED91FC91119743
:102180000190F081E02DCD010995A0914E05B0910F
:102190004F0520913005822F6C2F0E949D2E682FB5
:1021A000660F680F660F620FED91FC911197019019
:1021B000F081E02DCD010995A0914E05B0914F051C
:1021C00020912F05822F6C2F0E949D2E682F660F65
:1021D000680F660F620FED91FC9111970190F081ED
:1021E000E02DCD01099580912C05CCE9C80F10E8B0
:1021F000843610F4C82F10E040912E0560912D0513
:1022000090E00E947607069667E070E00E94A92E93
:10221000682F811101C067E080914E0590914F05B4
:10222000DC01ED91FC910190F081E02D0995A091E8
:102230004E05B0914F0520912E05DAE0822F6D2FCB
:102240000E949D2E682F660F680F660F620FED913A
:10225000FC9111970190F081E02DCD01099520911D
:102260002D05822F6D2F0E949D2E682F660F680FFF
:10227000660F620F862F812B682F70E080914E05CC
:1022800090914F050E94FB0EA0914E05B0914F0515
:102290008C2F6D2F0E949D2E682F660F680F660F82
:1022A0006C0FED91FC9111970190F081E02DCD0123
:1022B000099580914E0590914F050E94180D8093CD
:1022C0005005DF91CF911F9108953F924F925F92F9
:1022D0006F927F928F929F92AF92BF92CF92DF9236
:1022E000EF92FF920F931F93CF93DF93CDB7DEB79B
:1022F00065970FB6F894DEBF0FBECDBF80919B02ED
:10230000882309F4C1C0E0903205F0903305188AA3
:10231000198A1A8A1B8AFA82E9821C821B8281E04E
:102320008A8722E030E038872F838B8782E0898795
:102330008C8B1D8AE114F10409F469C0D70114964D
:102340008D919C911597892B09F461C08C910E9405
:10235000170420E041E050E0BE016C5E7F4FC701F2
:102360000E94E40B382E882309F451C0B12CA12C13
:1023700032E0632E712CF701848195816301CA18C4
:10238000DB088C159D0508F46C0141E0C3018C1934
:102390009D09A816B90608F440E06C2DD7018C9170
:1023A0000E941C0A10921204809311048C151D04C3
:1023B00071F588248394912C8C0E9D1E8A0C9B1C95
:1023C0002401C401841995098C159D0580F4F70139
:1023D00081819281DC01ED91FC910284F385E02DF5
:1023E0000995F4018387FFEF8F1A9F0AEACFAC0C9F
:1023F000BD1C82E0A816B10408F4BDCF0C851D8574
:102400008B85882329F010270127102701C0312C44
:1024100030923405B80183E0769567958A95E1F7A7
:10242000660F771F660F771F072E000C880B990B1E
:102430000E94A42D2FE632E143E85AE30E94302E99
:1024400020E030E04AE754E40E94302E0E946C2DD8
:10245000072E000C880B990B65960FB6F894DEBF1B
:102460000FBECDBFDF91CF911F910F91FF90EF90E5
:10247000DF90CF90BF90AF909F908F907F906F90A4
:102480005F904F903F9008958EE480937C006BE4C2
:1024900070E080E090E00E94550580917A008064B1
:1024A00080937A0080917A0086FDFCCF809178003D
:1024B00020917900322F282F032E000C440B550B4E
:1024C00064EB7BE281E190E00E94F32ECA01B90146
:1024D0006456710981099109BFCFEF92FF920F9362
:1024E0001F93CF93DF93CDB7DEB728970FB6F8943D
:1024F000DEBF0FBECDBF80E40E94170482E495E0EA
:102500000E94180D811142C083EE8887CE01089683
:102510000E941B0DCE0101960E94020F29813A8173
:10252000322723273227A4EAB4E40E94182F8D54BF
:10253000924164E670E00E94BD2E6093150485EE22
:102540008F83CE0107960E941B0DCE0101960E943B
:10255000020F29813A81322723273227ADE7B0E0E5
:102560000E94182F0697843678F4809316042896D4
:102570000FB6F894DEBF0FBECDBFDF91CF911F9194
:102580000F91FF90EF90089583E6EFCF86E194E2FC
:102590000E942C0D882309F44EC064E070E080E0B6
:1025A00090E00E94550541E066E0809153050E944D
:1025B0001C0A10921204809311048630C9F58E0112
:1025C0000F5F1F4F7E0187E0E80EF11C80915105DF
:1025D00090915205DC01ED91FC910284F385E02D90
:1025E0000995F80181938F01EE16FF0679F789812D
:1025F00090E0982F88272A81820F911D909369057A
:10260000809368058C8190E0982F88272D81820F18
:10261000911D90936705809366050E9488056093DD
:10262000550570935605809357059093580503C040
:1026300082E880936A05609168057091690590E071
:1026400080E00E94A22D2FEA30E04FE25BE30E947F
:10265000302E20E030E044E352E40E94FF2C0E9440
:102660006C2D60931504609166057091670590E08C
:1026700080E00E94A22D28EC30E048EC5AE30E9452
:10268000302E0E94732D6093160471CFFB010190D0
:102690000020E9F73197AF01461B570BDC01ED91A4
:1026A000FC910280F381E02D09948F929F92AF926A
:1026B000BF920F931F93CF93DF93CDB7DEB7A19750
:1026C0000FB6F894DEBF0FBECDBF19A2423008F49A
:1026D0004AE08E010F5D1F4F842E912CB12CA12C4E
:1026E000A50194010E94D12EE62FB901CA01EA305A
:1026F00004F5E05DD801EE938D01232B242B252BCF
:1027000079F790E080E0109729F0BD018BE695E025
:102710000E944613A1960FB6F894DEBF0FBECDBF40
:10272000DF91CF911F910F91BF90AF909F908F90AD
:102730000895E95CDFCFCF92DF92EF92FF92CF93C3
:10274000DF9397FF19C06B017C018DE20E943A076D
:10275000EC0166277727CB016C197D098E099F094B
:102760004AE00E9455138C0F9D1FDF91CF91FF907F
:10277000EF90DF90CF9008954AE0DF91CF91FF90E6
:10278000EF90DF90CF900C94551368E471E00C94B7
:102790004613CF93DF93BC018BE695E00E9494052E
:1027A000EC018BE695E00E94C5138C0F9D1FDF9115
:1027B000CF910895CF93DF934AE00E945513EC0127
:1027C0008BE695E00E94C5138C0F9D1FDF91CF9182
:1027D0000895CF93DF93BC01990F880B990B0E944A
:1027E0009B13EC018BE695E00E94C5138C0F9D1F97
:1027F000DF91CF9108950F931F93CF93DF93EC0157
:102800000E9446138C01CE010E94C513800F911FB8
:10281000DF91CF911F910F9108950C944613ECE234
:10282000F5E085811F928F9384811F928F9383811E
:102830001F928F93808190E08053984F9F938F9346
:1028400081811F928F9382811F928F9388EE96E0F1
:102850009F938F938DEF93E09F938F930E94F7291F
:102860008DB79EB740960FB6F8949EBF0FBE8DBF32
:102870006DEF73E08BE695E00C940D14CF93DF932E
:10288000EC0197FF06C06DE371E088EB92E00E94D7
:102890009729CE01D7FF03C0919581959109C8EB87
:1028A000D2E009900020E9F7C95BD24064E670E00D
:1028B0000E94BD2E9F938F937F936F9385E391E04A
:1028C0009F938F93CE0188549D4F9F938F930E9427
:1028D000F7292DB73EB7285F3F4F0FB6F8943EBF9C
:1028E0000FBE2DBF8C0F9D1FDF91CF910895FF92DA
:1028F0000F931F93CF93DF93EC01F62E088119817C
:10290000C8010E94A82CF81621F06F2DC8010E9462
:10291000BA2CCE01DF91CF911F910F91FF900895B6
:10292000EF92FF920F931F93CF93DF9300D0CDB719
:10293000DEB703E114E0835194407C01C701800FAE
:10294000911F9A838983F80161918F01CE010196CD
:102950000E947714F4E007311F0781F783E194E0C8
:102960000F900F90DF91CF911F910F91FF90EF90FB
:102970000895EF92FF920F931F93CF93DF9300D0B0
:10298000CDB7DEB78C017B019A838983FB0160811F
:10299000CE0101960E9477140F5F1F4F1A8309839F
:1029A000F7016181CE0101960E947714C7010F9053
:1029B0000F90DF91CF911F910F91FF90EF900895AD
:1029C0000F931F93CF93DF938C01EB010E94A82CF0
:1029D0008883C80101960E94A82C8983CE01DF91CB
:1029E000CF911F910F910895CF92DF92EF92FF92B6
:1029F0000F931F93CF93DF93EB017B0124E0E20E53
:102A0000F11C8B016C01C61AD70AC601800F911FF9
:102A10000E94A82CF80181938F01EE15FF05A9F7FC
:102A2000CE01DF91CF911F910F91FF90EF90DF903A
:102A3000CF900895CF93DF93EB010E94A82C888359
:102A4000CE01DF91CF910895CF93DF9300D01F92F5
:102A5000CDB7DEB71B82BE016D5F7F4F81E090E096
:102A60000E941A1580919302909194022B81222347
:102A700009F46DC08E3E9C4054F41A821982BE0146
:102A80006F5F7F4F81E090E00E94B9141B828B81C1
:102A9000882309F46CC08EE00E945710682F676489
:102AA0008EE00E946D0D88E60E94170480914E050D
:102AB00090914F05DC01ED91FC910190F081E02DAA
:102AC00067E0099570E060E080914E0590914F05B8
:102AD0000E94FB0E60E870E080914E0590914F05DA
:102AE0000E94FB0E60E870E080914E0590914F05CA
:102AF0000E94FB0E60E870E080914E0590914F05BA
:102B00000E94FB0E80914E0590914F050E94180D7A
:102B1000809350058FE00E945710682F6C7F8FE0E4
:102B20000E946D0D60E08DE00E94BD040E94630E66
:102B300068E670E08BE695E00E9494050E948805A7
:102B40000E94DA1360E083E00E94BD04FFCF883466
:102B50009D400CF49CCF81E090E09A838983BE0174
:102B60006F5F7F4F0E94B91481E08B8390CF8EE01E
:102B70000E9457108C7B682F64608EE0D1CF85ED6A
:102B80008093BC008091830490918404A09185047B
:102B9000B09186040796A11DB11D23E0B695A795B7
:102BA000979587952A95D1F72091BC0024FD03C005
:102BB000109281040895409183045091840460919F
:102BC000850470918604452B462B472B69F30097AB
:102BD000A105B10541F025E12A95F1F70000019723
:102BE000A109B109E1CF809182040C94FB09CF9235
:102BF000DF92EF92FF920F931F93CF93DF936C01BD
:102C0000109258030E9488058601DD0C220B330BBD
:102C100068017901C60ED71EE81EF91ED0E0C0E09B
:102C20000E9488056C157D058E059F05B8F58FE817
:102C300094E00E941606181619063CF58FE894E0F9
:102C40000E94F4058E010F5F1F4FC85ADC4F888326
:102C5000F801E85AFC4F1082003A110554F506308D
:102C60001105D4F064E471E088E593E00E948330BC
:102C7000892B11F56BE471E088E593E00E948330C5
:102C8000892B51F081E090E00BC06AE070E080E0B9
:102C900090E00E9455058E01E801C2CF8FEF9FEFB3
:102CA000DF91CF911F910F91FF90EF90DF90CF9028
:102CB000089582E090E0F4CF90E080E0F1CFCF92F1
:102CC000DF92EF92FF92CF93DF93EC016A018FE8DE
:102CD00094E00E941606181619062CF48FE894E06A
:102CE0000E94F405F4CF62E472E08FE894E00E9461
:102CF0009405BE018FE894E00E940D146FE372E02A
:102D00008FE894E00E949405C601DF91CF91FF9077
:102D1000EF90DF90CF900C94F715CF92DF92EF9267
:102D2000FF9240ED57E060E070E085E591E00E94A1
:102D30005F168091A7028F3F59F482ED96E00E94C2
:102D4000C91387E090E0FF90EF90DF90CF90089557
:102D500068EC76E08FE894E00E94940567EA72E000
:102D60008FE894E00E940D1462E771E08FE894E030
:102D70000E94FB130E9488056B017C0120EDC20EAE
:102D800027E0D21EE11CF11C0E9488056C157D0510
:102D90008E059F0538F58FE894E00E9416061816F8
:102DA0001906CCF48FE894E00E94F405CE9761F701
:102DB00068EB72E08FE894E00E940D146AE18FE8FE
:102DC00094E00E94580680EE9EE2FF90EF90DF9024
:102DD000CF900C94F7156AE070E080E090E00E94DC
:102DE0005505D2CF8FEF9FEFAECFCF9361E08DE04F
:102DF0000E94EB0461E08DE00E94BD046CE271E092
:102E000080E090E00E945505E0919F04F091A004BD
:102E100082E08083E0919B04F0919C041082E09119
:102E20009D04F0919E0487E680831092A704E091B0
:102E3000A304F091A40486E08083E091A104F091C2
:102E4000A204808180618083E091A104F091A204BA
:102E5000808188608083E091A104F091A204808148
:102E600080688083E091A104F091A20480818F7D2D
:102E700080836AE471E08BE695E00E94FB13C1E079
:102E80006DE571E08BE695E00E940D1448EE53E08D
:102E900060E070E08AE491E00E945F16029738F4E7
:102EA0008BE695E00E94C51381E0CF910895CA306A
:102EB000F1F46CE172E08BE695E00E94940560E02D
:102EC0008DE00E94BD046AE174E080E090E00E9421
:102ED000550561E08DE00E94EB0461E08DE00E9409
:102EE000BD0460E971E080E090E00E945505CF5F8D
:102EF000C53131F680E0D9CFCF93DF93809188023E
:102F0000D0E0C0E08823C9F040ED57E060E070E019
:102F10008FE591E00E945F1664E671E088E593E03A
:102F20000E9474309C012E5F3F4FE9012F3F320712
:102F300041F486E392E00E94C913CE01DF91CF9164
:102F40000895FC01E55AFC4F4081C901885A9C4F05
:102F50004C3229F41082DF91CF910C947929FC0135
:102F60001282F9CFEF92FF920F931F93CF93DF93CB
:102F700000D000D0CDB7DEB788EB92E01092B80257
:102F8000209193023091940220313E4064F426E275
:102F900031E03F932F939F938F930E94F7290F90D7
:102FA0000F900F900F9085E992E09F938F9382E2AC
:102FB00091E09F938F9388EB92E09F938F930E9471
:102FC000F72980911304909114040E943E148C01FF
:102FD0008EE191E09F938F93C80188549D4F9F93FA
:102FE0008F930E94F729080F191F80912F050FB6A4
:102FF000F894DEBF0FBECDBF909130058431D1F57E
:10300000911138C0BE016F5F7F4F8AE390E00E944C
:10301000E014809113049091140429813A81821B59
:10302000930B9A8389836FE071E088EB92E00E94B2
:10303000972989819A8197FD06C06FEF70E088EB30
:1030400092E00E94972989819A810E943E148C0106
:103050008BEF90E09F938F93C80188549D4F9F936F
:103060008F930E94F729080F191F0F900F900F9050
:103070000F9016C01F929F931F928F9381E091E053
:103080009F938F93C80188549D4F9F938F930E9465
:10309000F729080F191F0FB6F894DEBF0FBECDBF7A
:1030A000809115041F928F93809116041F928F9325
:1030B00089EE90E09F938F93C80188549D4F9F9312
:1030C0008F930E94F729080F191F209193023091C6
:1030D0009402C901845E9C4069E070E00E94BD2EAC
:1030E00077277F936F93C90168EE73E00E94BD2E2E
:1030F0009B016AE070E00E94BD2E7F936F933F9327
:103100002F9385ED90E09F938F93C80188549D4F36
:103110009F938F930E94F729080F191F0E947C1715
:103120007C01FF928F938CEC90E09F938F930854D7
:103130001D4F1F930F930E94F7290FB6F894DEBF1F
:103140000FBECDBF68EC70E03AE0E316F10474F016
:1031500065EC70E04EE0E416F10444F060EC70E0E1
:1031600083E1E816F10414F066EB70E088EB92E07E
:103170000E94972980919D0281111AC080912F058C
:10318000843121F4809130058823E9F064EA70E00D
:1031900088EB92E00E9497298091860290918702A5
:1031A0000E943E1461EA70E088EB92E00E94972949
:1031B0000F900F900F900F90DF91CF911F910F9173
:1031C000FF90EF90089519821A821B821C82BE0123
:1031D0006F5F7F4F89E990E00E94F4146CE970E022
:1031E00088EB92E00E94972989819A810E943E147F
:1031F0002C811F922F932B811F922F9325E930E072
:103200003F932F9388549D4F9F938F930E94F7294C
:10321000BE016F5F7F4F8DE990E00E94F4146FE86C
:1032200070E088EB92E00E94972989819A810E9440
:103230003E142C811F922F932B811F922F9328E8ED
:1032400030E03F932F9388549D4F9F938F930E941C
:10325000F729BE016F5F7F4F81EA90E00E94F4146E
:1032600062E870E088EB92E00E94972989819A8158
:103270000E943E148C0108541D4F8C811F928F9325
:103280008B811F928F938BE790E09F938F931F9377
:103290000F930E94F729BE016F5F7F4F85EA90E090
:1032A0000E94F41465E770E0C8010E9497298981A3
:1032B0009A810E943E142C811F922F932B811F9282
:1032C0002F932EE630E03F932F9388549D4F9F938A
:1032D0008F930E94F7290FB6F894DEBF0FBECDBFC3
:1032E00067CF8F929F92AF92BF92CF92DF92EF9271
:1032F000FF920F931F93CF93DF93CDB7DEB72D9738
:103300000FB6F894DEBF0FBECDBF80918802811149
:1033100015C010E0812F2D960FB6F894DEBF0FBEBA
:10332000CDBFDF91CF911F910F91FF90EF90DF9074
:10333000CF90BF90AF909F908F90089540ED57E051
:1033400060E070E087E691E00E945F16892B09F744
:1033500062E771E088E593E00E94C329FE0131969F
:1033600087E0DF011D928A95E9F78F017E01B8E0C1
:10337000EB0EF11C6EE671E090E080E00E94C32944
:103380000E947929F80181938F01EE15FF0591F7CD
:103390009E812D813C814B816A81898180932C059E
:1033A00060932D0540932E0530932F052093300513
:1033B000909331059F8120E13EE0929F6001939FB1
:1033C000D00C11240D2C000CEE08FF0890E00E9498
:1033D00076079C01A8E1B0E00E94182F20912F05EC
:1033E0004B015C01820E911CA11CB11CA501940132
:1033F000ACE3B0E00E94272F209130054B015C0127
:10340000820E911CA11CB11CA50194010E94272FC2
:1034100020913105C20ED11CE11CF11CAB01BC0195
:103420004C0D5D1D6E1D7F1DC8010E94A20786E028
:10343000F801ACE2B5E001900D928A95E1F70E94A7
:103440002304182F882309F465CF0E94931089E282
:1034500092E00E94C9135ECFCF92DF92EF92FF926B
:10346000CF93DF930E946511CAE0D0E068347D40BD
:10347000810591050CF471C00E94B40E0E94F516EE
:10348000C1E0D0E0882309F468C082E192E00E94A4
:10349000C91348E853E160E070E084E791E00E94DE
:1034A0005F16019609F44BC06CE471E088E593E087
:1034B0000E94A929892B69F46FE371E088E593E004
:1034C0000E94A929C3E0D0E0892BD9F1C2E0D0E065
:1034D00038C081E092E00E94C91383EE91E00E941F
:1034E000C913C12CD12C7601C0E040ED57E060E05B
:1034F00070E08BE791E00E945F160196B1F588EDD0
:1035000091E00E94C91368EE73E080E090E00E94B1
:1035100055058FEFC81AD80AE80AF80A2EE1C21634
:10352000D104E104F10409F7CB7FC13009F44CC0A8
:1035300063E082E70E947A0EC5E0D0E00EC0C1E0F1
:10354000D0E00E94630E69E072E08BE695E00E9495
:10355000940562E082E70E947A0ECE01DF91CF915E
:10356000FF90EF90DF90CF90089562E871E088E5DA
:1035700093E00E948330CFEF892B51F06AE370E033
:1035800088E593E00E94623004960E947929C82F52
:1035900063ED71E08BE695E00E9494054AE0C70177
:1035A000B6010E94551369EC71E08BE695E00E942C
:1035B00094058AEB91E0CC2309F4A3CFC13011F537
:1035C00081EA91E00E94C91385EF91E00E94C9133E
:1035D0000E947C1790938E0280938D026FEE71E0B3
:1035E0008BE695E00E94940580918D0290918E0269
:1035F0000E94E91381E0809388020E94630ED0E06C
:10360000C0E0ABCF88E891E0C23009F47ACF84E71C
:1036100091E0C33009F475CFC53019F480E691E02C
:10362000D1CF88E591E06DCF0E942C1A892B61F0F3
:1036300060E08DE00E94BD0468EB7BE080E090E0FC
:103640000E9455050C942C1A90E080E00895CF92CA
:10365000DF92EF92FF920F931F93CF93DF9300D0EF
:10366000CDB7DEB76B017A01BC0187EC91E00E9417
:103670006D3001E010E027EC31E0AE014F5F5F4FAD
:10368000B601C9010E94C829009739F00F5F1F4F8A
:1036900030E020E0E016F10684F70F900F90DF9104
:1036A000CF911F910F91FF90EF90DF90CF900895F1
:1036B000CF93DF9340ED57E060E070E088E891E061
:1036C0000E945F16EC01CF3FDC07A1F043E050E021
:1036D00069E471E088E593E00E94271BBC0188EB58
:1036E00092E00E946D3081E0CD2B09F480E0DF9103
:1036F000CF91089581E0FBCF0F931F93CF93DF937A
:1037000000D0CDB7DEB71092B8028BE695E00E94EC
:103710003F0718161906CCF78BE695E00E9455076F
:103720008C011A82198289830D9759F0BE016F5F4F
:103730007F4F88EB92E00E945730802F0E943A071B
:10374000E4CF70E060E088EB92E00E94573080E0C8
:103750000F900F90DF91CF911F910F9108951F92BD
:103760000F920FB60F9211242F933F938F939F9335
:10377000AF93BF9380919F029091A002A091A1026C
:10378000B091A20230919E0226E0230F2D3758F50A
:103790000296A11DB11D20939E0280939F029093DB
:1037A000A002A093A102B093A2028091A3029091E3
:1037B000A402A091A502B091A6020196A11DB11D7F
:1037C0008093A3029093A402A093A502B093A602B3
:1037D000BF91AF919F918F913F912F910F900FBE0D
:1037E0000F901F90189529E8230F0396A11DB11D76
:1037F000D2CF1F920F920FB60F9211242F933F93A7
:103800004F935F936F937F938F939F93AF93BF93E8
:10381000EF93FF938FE894E00E943606FF91EF91BB
:10382000BF91AF919F918F917F916F915F914F91D8
:103830003F912F910F900FBE0F901F9018951F92E0
:103840000F920FB60F9211242F938F939F93EF93A4
:10385000FF93E0919F04F091A0048081E091A50482
:10386000F091A60482FD1BC090818091A8048F5F17
:103870008F732091A904821741F0E091A804F0E031
:10388000E157FB4F958F8093A804FF91EF919F9193
:103890008F912F910F900FBE0F901F9018958081E0
:1038A000F4CF1F920F920FB60F9211242F933F93D4
:1038B0004F935F936F937F938F939F93AF93BF9338
:1038C000EF93FF93E0918402F0918502309749F0E5
:1038D000A685B7858585968D91FF14C09C91892317
:1038E000A1F4FF91EF91BF91AF919F918F917F9143
:1038F0006F915F914F913F912F910F900FBE0F905D
:103900001F9018959C91892361F7A389B4899C9194
:103910008589809589238C93868997890197F1F70A
:10392000608D718DA685B785558538E020E0CB0187
:103930000197F1F7822F90E095958795282F4C916C
:10394000452309F02068315091F7868D81FD20953F
:103950008091830290E001968F73992730918202C3
:10396000381799F0A0918302B0E0AE5BBD4F2C9365
:1039700080938302828D938D0197F1F7A389B48997
:103980008C919589892B8C93ACCF868D8160868FA5
:10399000F1CF1F920F920FB60F9211242F933F93E6
:1039A0004F935F936F937F938F939F93AF93BF9347
:1039B000EF93FF938091B900887F803609F44AC065
:1039C000F0F5883209F4A7C018F5803109F49BC0DE
:1039D000B8F4882309F4F9C0883009F494C0FF9141
:1039E000EF91BF91AF919F918F917F916F915F9177
:1039F0004F913F912F910F900FBE0F901F901895F0
:103A0000883109F488C0803251F780935F0414C074
:103A1000803409F49DC040F48033B9F38833F9F65B
:103A200080935F0485ECB0C0803509F485C088358B
:103A300009F496C0883499F60E94BF15D0CF883912
:103A400009F48CC038F5883729F050F4883611F025
:103A5000803729F683E0809381041092410257C099
:103A6000883809F47BC0803919F0803809F0B7CF65
:103A700080914102803208F071C0E091410281E002
:103A80008E0F809341028091BB00F0E0EF5DFD4F0F
:103A900080833DC0803B39F0E0F4803A09F479C07E
:103AA000883A09F09CCF84E0809381041092200230
:103AB00010921F02E091FB03F091FC0309958091A5
:103AC0001F0281110FC081E080931F021092FF013D
:103AD00009C0803C09F4A6CF883C09F4A3CF883BF9
:103AE00009F07DCFE091200281E08E0F80932002CB
:103AF000F0E0E150FE4F80818093BB009091200266
:103B000080911F0229C080915C048093BB0085ECEA
:103B10008093BC0064CF90915E0480915D049817FF
:103B200058F5E0915E0481E08E0F80935E04F0E032
:103B3000E55CFB4F8081E9CFE0915E0481E08E0F70
:103B400080935E048091BB00F0E0E55CFB4F8083D6
:103B500090915E0480915D049817C8F285E8D8CFF3
:103B6000E0915E0481E08E0F80935E048091BB0043
:103B7000F0E0E55CFB4F80838091600481115CCFB5
:103B800081E080935B0484EA8093BC0010928104FE
:103B900026CF85EC8093BC00109281048091410275
:103BA000803230F4E0914102F0E0EF5DFD4F108291
:103BB0006091410270E0E091F903F091FA0381E233
:103BC00092E00995109241020ACF10925F0434CF1F
:103BD0001F920F920FB60F9211242F933F934F9382
:103BE0005F936F937F938F939F93AF93BF93EF9365
:103BF000FF9380918704909188048093B200809114
:103C0000FA019091FB01A091FC01B091FD01019698
:103C1000A11DB11D8093FA019093FB01A093FC01BB
:103C2000B093FD018091FA019091FB01A091FC01FC
:103C3000B091FD0140918B0450918C0460918D04F2
:103C400070918E0484179507A607B70710F180912D
:103C5000F90181111EC081E08093F9018091FA0180
:103C60009091FB01A091FC01B091FD01841B950B8B
:103C7000A60BB70B8093FA019093FB01A093FC0174
:103C8000B093FD01E0918904F0918A0409951092A6
:103C9000F901FF91EF91BF91AF919F918F917F912A
:103CA0006F915F914F913F912F910F900FBE0F90A9
:103CB0001F901895109292041092910488EE93E050
:103CC000A0E0B0E08093930490939404A0939504B3
:103CD000B093960422E131E03093900420938F0456
:103CE00025EC30E030939C0420939B0424EC30E0DE
:103CF00030939E0420939D0420EC30E03093A00488
:103D000020939F0421EC30E03093A2042093A1047F
:103D100022EC30E03093A4042093A30426EC30E09E
:103D20003093A6042093A5041092A8041092A9042D
:103D30001092AA041092AB0410924505109244050B
:103D40008093460590934705A0934805B093490595
:103D500024E231E0309343052093420510926E0532
:103D600010926D0580936F0590937005A093710577
:103D7000B093720586E391E090936C0580936B0598
:103D8000109282051092810510928405109283058D
:103D9000109286051092850510928805109287056D
:103DA000609189056E7F6D7F60938905669561706E
:103DB00081E0682786E00E94BD0461E086E00E9401
:103DC000EB04E4E3F7E0E491E0937B05E0E2F7E065
:103DD000E491F0E0EE0FFF1FE05FF84F85919491C2
:103DE00090937D0580937C0560E085E00E94EB0464
:103DF0008091890581FD04C061E085E00E94BD04D9
:103E000085E080937705E3E3F7E0E491E0937805BC
:103E1000EFE1F7E0E491F0E0EE0FFF1FEA5FF84F0B
:103E20008591949190937A0580937905109253052A
:103E3000109255051092560510925705109258058C
:103E40001092690510926805109267051092660538
:103E50001092540510925D0510925E0510925F0558
:103E60001092600510926105109262051092630530
:103E7000109264051092650510926A0582E495E03F
:103E800090934F0580934E05109250051092330584
:103E90001092320582E48093350510923A05109213
:103EA0003B0510923C0510923D0510923E05109284
:103EB0003F05109240051092410540E050E0BA01E4
:103EC0008CE295E00C94A207CF93DF93CDB7DEB7D9
:103ED000EB970FB6F894DEBF0FBECDBF789484B5D4
:103EE000826084BD84B5816084BD85B5826085BDF6
:103EF00085B5816085BD80916E00816080936E0084
:103F00001092810080918100826080938100809175
:103F10008100816080938100809180008160809326
:103F200080008091B10084608093B1008091B000E6
:103F300081608093B00080917A00846080937A00E1
:103F400080917A00826080937A0080917A008E7FDF
:103F500080937A0080917A00806880937A00109232
:103F6000C10061E083E00E94EB0461E083E00E9415
:103F7000BD0461E088E00E94EB0460E088E00E94FC
:103F8000BD0461E087E00E94EB0460E087E00E94EE
:103F9000BD0461E084E00E94EB0460E084E00E94E4
:103FA000BD0461E089E00E94EB0460E089E00E94CA
:103FB000BD0462E082E00E94EB041092860510923C
:103FC0008505109284051092830510928205109247
:103FD00081058DEC90E09093880580938705909102
:103FE0007705963108F047C025E530E0309382052B
:103FF000209381052BEC30E03093840520938305DA
:1040000020E930E0309386052093850520916800F3
:1040100084E0983048F031E09E3008F430E081E0F0
:1040200001C0880F3A95EAF7822B809368002DE64D
:1040300030E0983050F02BE630E09E3030F02CE647
:1040400030E0963110F030E020E030937F0520938F
:104050007E05292F30E0983008F074C081E001C05F
:10406000880F9A95EAF78093800580918705909153
:1040700088050197F1F78091850590918605892B38
:1040800049F1E0918402F091850225E0EB36F207D8
:1040900009F1309739F0A389B4899C91858980957D
:1040A00089238C93809189058E7F80938905109256
:1040B0008302109282028BE695E0909385028093B2
:1040C0008402E0917E05F0917F05808190918005CA
:1040D000892B808382E00E949404892B09F059C0C7
:1040E00061E087E00E94BD0481E080939D0280939F
:1040F0009C0200E063E0F62E82E00E949404892B8B
:1041000009F047C0023308F40F5F68EC70E080E00C
:1041100090E00E9455058EE20E943A070C30F9F4B7
:1041200060E087E00E94BD0468EC70E080E090E011
:104130000E94550561E087E00E94BD0482E0809303
:104140009C02DACF9E3040F42850310981E001C052
:10415000880F2A95EAF787CF2E503109F7CF08311B
:1041600059F460E087E00E94BD0461E084E00E94B1
:10417000BD04F0929C02C0CF083209F0BDCF60E0D0
:1041800084E00E94BD0461E089E00E94BD0484E0F7
:10419000D6CF0E94E4090E945C0D84E4809353050D
:1041A00082E495E090935205809351050E94E409C2
:1041B00082EA90E30E942C0D882331F061E070E0E8
:1041C00080E090E00E945505809132059091330582
:1041D000892BA9F486E090E00E94322FFC018091A7
:1041E0003505808382E495E092838183138280E2A7
:1041F00090E095838483F0933305E0933205E0905B
:104200003205F09033050E94E40901E0D7011396CE
:104210000C93C7010E94960DFE01B9967F01882379
:1042200009F45DC080E090E1A0E0B0E08093360545
:1042300090933705A0933805B09339058AE090E054
:10424000A0E0B0E080933A0590933B05A0933C0535
:10425000B0933D0580E090E0A0E0B0E480933E059F
:1042600090933F05A0934005B0934105809132059E
:104270009091330518AE19AE1AAE1BAE9AA789A756
:104280001CA61BA60AAB85E090E098AB8FA70BABF2
:1042900052E0D52ED9AA40E050E160E070E0CF01B5
:1042A0000E94020C8091320590913305188A198A78
:1042B0001A8A1B8A9A8389831C821B820A87188622
:1042C0001F820B87D9864FE959E360E070E0CE0189
:1042D00001960E94020C8093340500939B0245E0F6
:1042E00050E062E870E085E992E00E94982C8091AD
:1042F00095028F3F11F50E94F516882309F4E6C157
:104300000E94581B8111E2C162EC72E088EB92E0DE
:104310000E946D3083E58093B80245E050E062E88A
:1043200070E088EB92E00E94B02C45E050E062E83B
:1043300070E085E992E00E94982C4FE050E068E838
:1043400070E087EA92E00E94982C1092B602809169
:10435000A7028F3F09F0C1C16AE976E088E593E0E2
:104360000E94A2290E9465117093940260939302A7
:104370006C3A7D4034F46BE876E08BE695E00E9481
:1043800094050E941D0F20932C0530932D0540931A
:104390002E0550932F05609330057093310550938F
:1043A00092026093910280919C02882309F487C055
:1043B00065E876E08BE695E00E94940563E971E09C
:1043C0008BE695E00E940D1467E971E08BE695E0BD
:1043D0000E940D1469E776E08BE695E00E94940553
:1043E00063E776E08BE695E00E94940565E972E06C
:1043F0008BE695E00E940D146AE676E08BE695E088
:104400000E94940568E573E08BE695E00E940D1428
:1044100063E676E08BE695E00E9494058091930236
:104420009091940248EEC42E43E0D42EB6010E942F
:10443000BD2E072E000C880B990B0E949B1361E682
:1044400076E08BE695E00E9494058091930290912E
:104450009402B6010E94BD2E8436910534F465E9BC
:1044600071E08BE695E00E940D148091930290918B
:10447000940268EE73E00E94BD2E0A9734F465E959
:1044800071E08BE695E00E940D148091930290916B
:10449000940268EE73E00E94BD2EBC01990F880B58
:1044A000990B0E949B1368E576E08BE695E00E94ED
:1044B00094050E940F148BE695E00E94C51364EFEB
:1044C00071E080E090E00E94CD03809170008E7FCB
:1044D0008093700060E087E00E94BD0461E08FE09F
:1044E0000E94EB0460E08EE00E94EB0460E08FE04D
:1044F0000E94BD040E946D128EE290E00E94A82CE2
:10450000809389028FE290E00E94A82C80938A0217
:1045100080E390E00E94A82C80938B0281E390E0DE
:104520000E94A82C80938C0265E071E086E390E005
:104530000E94E0140E94420E9E012F5F3F4F6901CE
:1045400039010E94CE0DD3016D937D938D939D9380
:104550003D01AE15BF05A9F789819A81AB81BC8168
:1045600021E030E02C0F3D1F2C5D3F4FFE013196C6
:10457000448155816681778184179507A607B7071F
:104580000CF0B2C0408351836283738334962E173C
:104590003F0771F789819A81AB81BC8121E030E0CE
:1045A0002C0F3D1F205E3F4FFE0131964481558107
:1045B00066817781481759076A077B070CF09BC013
:1045C000408351836283738334962E173F0771F7BC
:1045D00060E070E0CB01D6018D909D90AD90BD90D4
:1045E0006D01680D791D8A1D9B1DEA17FB0799F760
:1045F00028E030E040E050E00E94F32E80918902F4
:1046000090918A02A0918B02B0918C02281B390BE9
:104610004A0B5B0BA8EEB3E00E94272F2091050107
:104620003091060150E040E00E94F32E29013A014A
:104630000E94420E0E94420E8090890290908A024F
:10464000A0908B02B0908C029B01AC012819390913
:104650004A095B09A8EEB3E00E94272F20910501CB
:104660003091060150E040E00E94F32E49015A01CA
:104670006DE971E08BE695E00E940D14C301B20173
:104680000E949B1363EA71E08BE695E00E940D1493
:10469000C501B4010E949B138BE695E00E94C513EF
:1046A0005092900240928F029092140480921304D0
:1046B00080919C02823009F425C120F5882309F4F9
:1046C0004CC0813009F40EC10E94241545E050E031
:1046D00062E870E08DE891E026CE67EA72E088E556
:1046E00093E00E946D303ECE80839183A283B3839A
:1046F000DB01CA014BCF80839183A283B383DB01AB
:10470000CA0162CF833009F431C18430E9F668E12F
:1047100075E08BE695E00E9494058CEF95E00E9491
:10472000C91389E0809307010E94141B892B09F0AB
:10473000CBC161E089E00E94BD0488EF95E00E9452
:10474000C9138BE695E00E943F07892B09F446C206
:104750008BE695E00E945507F4CF809116041F92D6
:104760008F93809115041F928F93809191021F92D5
:104770008F93809192021F928F938BE296E09F938A
:104780008F9388EB92E09F938F930E94F7298091FB
:104790001304909114040E943E1424E236E03F93E7
:1047A0002F9388549D4F9F938F930E94F729809158
:1047B0008F02909190020E943E1462E276E088EBB4
:1047C00092E00E94972968EB72E08BE695E00E94E8
:1047D000FB13B70189E090E00E941A1560919102E5
:1047E0000FB6F894DEBF0FBECDBF89A5681709F4D8
:1047F0006BCF89E090E09A838983CE0101960E9475
:104800007714BE016F5F7F4F82E390E00E94E01457
:10481000809113049091140429813A81821B930B97
:10482000909387028093860263E174E082E390E0D4
:104830000E94B91480919102811108C08091920266
:104840008630A1F589E990E00E949014809192024F
:10485000843121F480919102882361F08091860255
:10486000909187028D399F4F0CF02ECF80919D0241
:1048700081112ACF80918802811102C00E94141BED
:104880000E94B2178BE692E00E94C91380918802C1
:10489000882309F419CF0E948D16892B01F58FE525
:1048A00092E00E94C9130E9471190ECF8C3019F446
:1048B0008DE990E0C9CF8E3019F481EA90E0C4CF41
:1048C000803119F485EA90E0BFCF843109F0BECF82
:1048D00063E174E08AE390E00E94B914B7CF81E508
:1048E00092E0DFCF6CE271E080E090E00E9455053D
:1048F0008091A70261E08F3F09F0E4C082E70E9447
:104900007A0EE2CE89E196E00E94C9138091A70257
:104910008F3F31F48CE992E00E94C91361E0EECF41
:1049200087E08093070180918802811102C00E9474
:10493000141B80918802882309F4C6CE0E94711945
:104940000E94B2170E948D16892B49F461E087E618
:104950000E947A0E82E892E00E94C913B5CE63E00D
:1049600082E70E947A0E8EE892E0F6CF82E196E02E
:104970000E94C9130E94420E0E94420E6093890257
:1049800070938A0280938B0290938C0261E084E0A2
:104990000E94BD0468E97AE380E090E00E9455053A
:1049A00060E084E00E94BD040E94420E0E94420E1C
:1049B0006B017C016DEC72E08BE695E00E94940542
:1049C0006091890270918A0280918B0290918C0291
:1049D0004AE00E94551364EC72E08BE695E00E9479
:1049E0009405C701B6010E949B136CEB72E08BE645
:1049F00095E00E9494058091890290918A02A0918D
:104A00008B02B0918C02A7019601281B390B4A0B2F
:104A10005B0BCA01B9010E94DA138091890290915F
:104A20008A02A0918B02B0918C02B701A601481BAB
:104A3000590B6A0B7B0B403D574061057105E8F44B
:104A400063E082E70E947A0E66EB72E08BE695E007
:104A50000E9494058091890290918A02A0918B0214
:104A6000B0918C02A7019601281B390B4A0B5B0BF6
:104A7000CA01B9010E94DA1327CEC81AD90AD09206
:104A80000601C092050183EB92E00E94C91339E848
:104A9000E32E32E0F32E0EE210E01A830983D701F1
:104AA0006D917D01CE0101960E9477140F5F1F4F1B
:104AB0000233110591F765E071E086E390E00E9412
:104AC000B91462E087E61BCF81EF95E00E94C9131D
:104AD00060E47FE180E090E00E9455050E94B40E02
:104AE00088E08093070160E08DE00E94BD0429CE3C
:104AF00090E080E07C018FE894E00E941606181692
:104B000019060CF079C040ED57E060E070E089EAEA
:104B100091E00E945F16892B09F06EC062E270E09E
:104B200088E593E00E946230009709F465C0B09276
:104B30005803FC013196A9E5B3E021E030E0819112
:104B4000823209F454C08D932F5F3F4F2F303105CF
:104B5000B1F788E593E0DC010D900020E9F7CD0185
:104B60008F5593400B9708F047C068E573E087EADC
:104B700092E00E946D3041E150E068E870E087EA21
:104B800092E00E94B02C8BE695E00E94C51367EA84
:104B900072E08BE695E00E940D1486ED92E00E9493
:104BA000C91360E089E00E94BD0462E087E60E94CC
:104BB0007A0E60EA7FE080E090E00E94550540EDCB
:104BC00057E060E070E08FEA91E00E945F1660EAD3
:104BD0007FE080E090E00E94550576CDF12CE12C3D
:104BE0009BE2B92E28EBC22E22E0D22E84CF285A87
:104BF0003C4FF9011082ADCF8BE695E00E943F0754
:104C0000892BA9F462E370E080E090E00E945505F2
:104C1000C7010196B9EBEB16BBE0FB0609F06ACFC2
:104C200066EE75E08BE695E00E9494054DCD8BE62F
:104C300095E00E9455077C01882E0E943A07FF24C8
:104C4000E3E3EE16F10409F4D4C0CCF421E3E21658
:104C5000F10499F132E3E316F10409F47FC068E14D
:104C600075E08BE695E00E94940540E3841240CF06
:104C700060E089E00E94BD0481EE95E06DCE44E3E2
:104C8000E416F10409F481C155E3E516F10439F79E
:104C90001092B80265E874E08BE695E00E949405F6
:104CA0008BE695E00E943F073C01892B09F43AC24C
:104CB0008BE695E00E945507F3CF65E273E08BE643
:104CC00095E00E9494058091A7028F3F49F56CE121
:104CD00073E08BE695E00E9494056CE073E08BE650
:104CE00095E00E9494050E947C1BD6010D90002047
:104CF000E9F7CD01895B924066EF72E0429758F484
:104D00008091B802811113C06FEF88E890E00E9493
:104D1000BA2C66EE72E08BE695E00E9494059FCF78
:104D200067EA72E08BE695E00E940D14D6CF40EA68
:104D300050E068E870E088EB92E00E94B02C8BE6CF
:104D400095E00E94C51368EB72E08BE695E00E9447
:104D50000D148EED92E00E94C91381CF63E673E0DB
:104D60008BE695E00E94940565E972E08BE695E09C
:104D70000E940D1468E573E08BE695E00E949405AF
:104D80000E947C1BF60101900020E9F7CF01895BAE
:104D90009240069718F064E473E0BDCF8091B802AA
:104DA000811108C06FEF82E890E00E94BA2C68E39E
:104DB00073E0B1CF40EA50E062E870E088EB92E047
:104DC0000E94B02C8BE695E00E94C51368EB72E060
:104DD0008BE695E00E940D1480E393E00E94C913D6
:104DE00045E050E062E870E085E992E00E94982C8E
:104DF00036CF0E941D0F20932C0530932D05409334
:104E00002E0550932F0560933005709331058AE08D
:104E10000E943A078BE695E00E94C5130E940F148A
:104E20006DE973E08BE695E00E9494050E947C1B7F
:104E3000D6010D900020E9F7CD01895B92406EE824
:104E400073E0479708F067CF41E050E065EB71E011
:104E500088EB92E00E94271BBC0188E593E00E944A
:104E60006D3042E050E065EB71E088EB92E00E942B
:104E7000271BBC0185E693E00E946D3081E693E03C
:104E80000E943F08982EE0915803E154E33108F066
:104E90002CC00E2E000CFF0BE05BF84D0C94122F73
:104EA0006F2775277527A8277527AA2775277527C0
:104EB00075276327752775279B27A627A42775279E
:104EC00075277527A2278091590311E0813669F073
:104ED00080915A0316E08E3641F017E006C08091AB
:104EE000590314E0803709F018E08CE593E00E9444
:104EF0003F08A82E85E693E00E943F08E82E88E64A
:104F000093E00E943F08F82E8BE693E00E943F0852
:104F100090922C0510932D05A0922E05E0922F055E
:104F2000F0923005809331050E942304811114C052
:104F30008FE793E010CF80915A0313E08237A9F2F4
:104F400015E0D3CF19E0D1CF1AE0CFCF1BE0CDCF02
:104F50001CE0CBCF12E0C9CF0E9493100E941D0F1E
:104F600020932C0530932D0540932E0550932F054B
:104F700060933005709331056EE673E08BE695E043
:104F80000E9494050E940F146ACE67E174E08BE6DC
:104F900095E00E949405F12CE12C412C512C32011A
:104FA0004394042D842D0E94170482E495E00E940E
:104FB000180D81115DC066EF73E08BE695E00E94ED
:104FC0009405003118F480E30E943A0740E1C301E0
:104FD000B2010E945513BFEFEB1AFB0AEFEF4E1A16
:104FE0005E0A6E0A7E0AFFE74F16510461047104DF
:104FF000C1F6EF2831F462EC73E08BE695E00E9495
:10500000940568E774E08BE695E00E9494058EE0D5
:105010000E94571087FD05C080915005882309F430
:105020003FC063E774E08BE695E00E9494056AE474
:1050300071E08BE695E00E94FB136AE574E08BE675
:1050400095E00E9494050E945C0D811140C085E5A9
:1050500094E00E94C9136BE374E08BE695E00E9434
:1050600094058DE294E00E94C91361E374E053CE8D
:10507000843009F0B3CF69ED73E08BE695E00E94D0
:105080009405003118F480E30E943A0740E1C3011F
:10509000B2010E9455138BE695E00E94C5139ECF86
:1050A00068E674E08BE695E00E9494050E941D0F6F
:1050B00020932C0530932D0540932E0550932F05FA
:1050C00060933005709331050E940F14B0CF61E5F5
:1050D00074E08BE695E00E9494050E946D126CE4EA
:1050E00074E08BE695E00E9494056091160470E0F0
:1050F00090E080E04AE00E94551367E474E08BE69C
:1051000095E00E9494056091150470E090E080E0C5
:105110004AE00E9455136DEA71E08BE695E00E942B
:10512000FB1399CF8BE695E00E943F07892B39F45A
:1051300062E370E080E090E00E945505F3CF8BE6DB
:1051400095E00E945507082F0E943A070233B9F1F3
:1051500044F4013309F1003309F09CCD89ED94E06A
:10516000FACD033309F443C00933A9F766EE74E0BE
:105170008BE695E00E9494058BE695E00E943F0740
:10518000892B09F052C062E370E080E090E00E9459
:105190005505C3013C01F0CF0E947C1790938E020D
:1051A00080938D0260E175E08BE695E00E949405A6
:1051B00080918D0290918E020E94E9136BCD68E080
:1051C00075E08BE695E00E9494050E94581B8111C2
:1051D00007C068EB72E08BE695E00E94FB135ACDA6
:1051E00062E075E08BE695E00E94940553CD0E9445
:1051F00071198823B9F00E941D0F20932C0530935C
:105200002D0540932E0550932F0560933005709324
:10521000310561EF74E08BE695E00E9494050E94F1
:105220000F1438CD6AEE74E0DDCF8BE695E00E9476
:105230005507F82E0E943A072DE0F21621F0F301EF
:10524000E85AFC4FF082C30101963DE0F312A2CF71
:10525000F301E85AFC4F108267EB71E08BE695E0B2
:105260000E940D1468E573E08BE695E00E94FB1345
:1052700040E157E260E070E088E593E00E945F164D
:105280007C016FEB71E08BE695E00E940D14C70185
:105290000E94E9136EED74E08BE695E00E949405A0
:1052A00068E573E08BE695E00E940D14F3CC8091E5
:1052B0003205909133050E94CE2F86E391E09093C2
:1052C0006C0580936B0580918402909185028B56CA
:1052D000954071F4E0917E05F0917F059081809179
:1052E0008005809589238083109285021092840224
:1052F0000895FC0188279927E89421912032E9F349
:10530000293010F02E30C8F32B3241F02D3239F411
:10531000689404C00E94EF29820F911D21912053AF
:105320002A30C0F31EF4909581959F4F0895FB019C
:10533000DC010D900020E9F7119705900D920020F7
:10534000E1F70895FB01DC0105900D920020E1F7E3
:105350000895FB0155915523A9F0BF01DC014D9142
:1053600045174111E1F759F4CD010590002049F0AE
:105370004D9140154111C9F3FB014111EFCF81E07F
:1053800090E0019708954AE855E00E94C8290895E1
:10539000FA01A191B081009719F41097E1F0CD01C5
:1053A000DC01CD010D90002011F4C00113C0FB0100
:1053B0002191222319F02015D9F7F3CFFB01219178
:1053C000201519F41E92119606C02223C1F70D90E4
:1053D0000020A1F7D001FA01A193B08308957AE0EB
:1053E000979F902D879F802D910D11240895AEE0F9
:1053F000B0E0EDEFF9E20C94D62C0D891E898EE019
:105400008C831A8309838FEF9FE79E838D83AE0180
:10541000475E5F4F6F89788DCE0101960E941A2AF0
:105420002F813885020F131FF80110822E96E4E0B9
:105430000C94F22CABE0B0E0E0E2FAE20C94C82C61
:105440007C013B018A01FC0117821682838181FF66
:10545000C8C1CE0101965C01F7019381F30193FD70
:10546000859193FF81913F01882309F453C18532CF
:1054700039F493FD859193FF81913F01853229F4A1
:10548000B70190E00E940A2CE7CF912C212C312CFF
:10549000FFE1F31538F08B3211F190F4803209F10D
:1054A000833229F137FC3CC020ED280F2A3050F51B
:1054B00036FE20C08AE0989E200D1124922E06C050
:1054C0008D3291F0803371F7689430F8F30193FDD9
:1054D000859193FF81913F018111DACF21C06894BA
:1054E00031F8689432F8F2CF689433F8EFCF6894CB
:1054F00034F8ECCFEAE02E9E200D1124222E689481
:1055000035F8E4CF8E3229F436FC04C1689436F8BD
:10551000DDCF8C3619F4689437F8D8CF8836B1F2DD
:10552000982F9F7D95549330E0F08336A1F1833717
:10553000C1F1833509F063C02801F2E04F0E511C20
:10554000F801C080D180692D70E036FC02C06FEF99
:105550007FEFC6010E94F42B4C01689437F882015A
:105560000AC00C5F1F4FFFE3F98388248394912CBA
:105570006501E89437F833FE2DC0522C8114910454
:1055800071F5552009F468CFB70180E290E00E94E0
:105590000A2C5A94F6CFF801808189830E5F1F4F41
:1055A000E4CF2801F2E04F0E511CF801C080D180F9
:1055B000692D70E036FC02C06FEF7FEFC6010E94DC
:1055C000FF2B4C018201D5CFB70180E290E00E9411
:1055D0000A2C2A942814190409F0B0F7CECFF6014A
:1055E00037FC859137FE81916F01B70190E00E94F1
:1055F0000A2C51105A94F1E08F1A9108BFCF8436CB
:1056000019F0893609F077C0F80137FE6BC0608168
:105610007181828193810C5F1F4FF32DFF763F2EA6
:1056200097FF09C090958095709561957F4F8F4F3A
:105630009F4F689437F82AE030E0A5010E943A2C89
:10564000C82ECA188C2C432C36FE0CC0E89440F8A7
:10565000C91440F434FE05C032FC03C0F32DFE7EB5
:105660004F2E892C44FE95C0FE01EC0DF11D80816A
:10567000803309F087C0242D297E422E842D887026
:10568000582E43FC95C040FE8FC09C2C821418F409
:105690002C0C922C981844FE91C0B70180E390E046
:1056A0000E940A2C42FE09C088E790E041FE02C039
:1056B00088E590E0B7010E940A2CC91408F48AC05A
:1056C000CA94D12C9FEFC91AD90ACA0CDB1CF60167
:1056D00082916F01B70190E00E940A2CAC14BD04C6
:1056E000B1F74FCF60817181072E000C880B990BA9
:1056F0000E5F1F4F92CFD32CE894D4F82AE030E00D
:10570000853739F1232D297FD22E8F3601F148F4C8
:105710008835A9F0F701868197812B96E2E10C94F8
:10572000E42C803749F08837A9F7D4FE02C068948A
:10573000D2F820E130E00DC06894D4F8F6CF34FE02
:1057400003C0822F8660D82E20E132E002C028E01C
:1057500030E0F801D7FE0FC06081718182819381B2
:105760000C5F1F4FA5010E943A2CC82ECA183D2C71
:10577000E89437F867CF6081718190E080E00E5F38
:105780001F4FF0CF42FC02C0839478CF8394839460
:1057900075CF842D867809F471CFF6CFB70180E2FA
:1057A00090E00E940A2C83948214C0F3512C73CF92
:1057B000522C5818821408F46ECFF8CF842D8678B6
:1057C00009F47BCF8BE241FE80E247FC8DE2B7011A
:1057D00090E071CFB70180E390E00E940A2C9A9488
:1057E0006CCF8FEF9FEF99CFFC0105906150704017
:1057F0000110D8F7809590958E0F9F1F0895FC019A
:105800006150704001900110D8F7809590958E0FEF
:105810009F1F08950F931F93CF93DF93182F092F86
:10582000EB018B8181FD09C01FEF0FEF812F902FBE
:10583000DF91CF911F910F91089582FF14C02E81A7
:105840003F818C819D81281739073CF4E881F981DB
:10585000CF0101969983888310838E819F81019661
:105860009F838E83E3CFE885F985812F0995892B66
:10587000A1F3DACFFA01AA27283051F1203181F1C2
:10588000E8946F936E7F6E5F7F4F8F4F9F4FAF4F48
:10589000B1E03ED0B4E03CD0670F781F891F9A1F5B
:1058A000A11D680F791F8A1F911DA11D6A0F711D0F
:1058B000811D911DA11D20D009F468943F912AE01B
:1058C000269F11243019305D3193DEF6CF01089503
:1058D000462F4770405D4193B3E00FD0C9F7F6CF34
:1058E000462F4F70405D4A3318F0495D31FD4052FC
:1058F000419302D0A9F7EACFB4E0A6959795879592
:1059000077956795BA95C9F7009761057105089570
:105910009B01AC010A2E069457954795379527951C
:10592000BA95C9F7620F731F841F951FA01D0895B4
:10593000DC01CB01FC01F999FECF06C0F2BDE1BD4F
:10594000F89A319600B40D9241505040B8F708953E
:10595000F999FECF92BD81BDF89A992780B5089537
:10596000DC01CB0103C02D910E94BB2C4150504063
:10597000D0F70895262FF999FECF1FBA92BD81BDA9
:1059800020BD0FB6F894FA9AF99A0FBE01960895C1
:105990002F923F924F925F926F927F928F929F923F
:1059A000AF92BF92CF92DF92EF92FF920F931F932D
:1059B000CF93DF93CDB7DEB7CA1BDB0B0FB6F894DE
:1059C000DEBF0FBECDBF09942A88398848885F841E
:1059D0006E847D848C849B84AA84B984C884DF808F
:1059E000EE80FD800C811B81AA81B981CE0FD11D73
:1059F0000FB6F894DEBF0FBECDBFED01089550582D
:105A0000BB27AA270E94172D0C94F62D0E94E82D83
:105A100038F00E94EF2D20F039F49F3F19F426F45E
:105A20000C94E52D0EF4E095E7FB0C94DF2DE92FA7
:105A30000E94072E58F3BA17620773078407950769
:105A400020F079F4A6F50C94292E0EF4E0950B2E97
:105A5000BA2FA02D0B01B90190010C01CA01A001C0
:105A60001124FF27591B99F0593F50F4503E68F11B
:105A70001A16F040A22F232F342F4427585FF3CF5C
:105A8000469537952795A795F0405395C9F77EF42D
:105A90001F16BA0B620B730B840BBAF09150A1F076
:105AA000FF0FBB1F661F771F881FC2F70EC0BA0FFC
:105AB000621F731F841F48F4879577956795B79584
:105AC000F7959E3F08F0B0CF9395880F08F099277F
:105AD000EE0F9795879508950E94732D6894B111E4
